{
  "contractName": "EEAClaimsIssuer",
  "abi": [
    {
      "constant": false,
      "inputs": [],
      "name": "renounceOwnership",
      "outputs": [],
      "payable": false,
      "stateMutability": "nonpayable",
      "type": "function"
    },
    {
      "constant": true,
      "inputs": [],
      "name": "owner",
      "outputs": [
        {
          "name": "",
          "type": "address"
        }
      ],
      "payable": false,
      "stateMutability": "view",
      "type": "function"
    },
    {
      "constant": true,
      "inputs": [],
      "name": "isOwner",
      "outputs": [
        {
          "name": "",
          "type": "bool"
        }
      ],
      "payable": false,
      "stateMutability": "view",
      "type": "function"
    },
    {
      "constant": true,
      "inputs": [],
      "name": "claimsRegistry",
      "outputs": [
        {
          "name": "",
          "type": "address"
        }
      ],
      "payable": false,
      "stateMutability": "view",
      "type": "function"
    },
    {
      "constant": false,
      "inputs": [
        {
          "name": "newOwner",
          "type": "address"
        }
      ],
      "name": "transferOwnership",
      "outputs": [],
      "payable": false,
      "stateMutability": "nonpayable",
      "type": "function"
    },
    {
      "inputs": [
        {
          "name": "_claimsRegistry",
          "type": "address"
        }
      ],
      "payable": false,
      "stateMutability": "nonpayable",
      "type": "constructor"
    },
    {
      "anonymous": false,
      "inputs": [
        {
          "indexed": true,
          "name": "issuer",
          "type": "address"
        },
        {
          "indexed": true,
          "name": "subject",
          "type": "address"
        },
        {
          "indexed": false,
          "name": "updatedAt",
          "type": "uint256"
        }
      ],
      "name": "MemberShipAdded",
      "type": "event"
    },
    {
      "anonymous": false,
      "inputs": [
        {
          "indexed": true,
          "name": "issuer",
          "type": "address"
        },
        {
          "indexed": true,
          "name": "subject",
          "type": "address"
        },
        {
          "indexed": false,
          "name": "removedAt",
          "type": "uint256"
        }
      ],
      "name": "MembershipRevoked",
      "type": "event"
    },
    {
      "anonymous": false,
      "inputs": [
        {
          "indexed": true,
          "name": "issuer",
          "type": "address"
        },
        {
          "indexed": true,
          "name": "subject",
          "type": "address"
        },
        {
          "indexed": true,
          "name": "key",
          "type": "bytes32"
        },
        {
          "indexed": false,
          "name": "value",
          "type": "bytes32"
        },
        {
          "indexed": false,
          "name": "updatedAt",
          "type": "uint256"
        }
      ],
      "name": "ClaimAdded",
      "type": "event"
    },
    {
      "anonymous": false,
      "inputs": [
        {
          "indexed": true,
          "name": "issuer",
          "type": "address"
        },
        {
          "indexed": true,
          "name": "subject",
          "type": "address"
        },
        {
          "indexed": true,
          "name": "key",
          "type": "bytes32"
        },
        {
          "indexed": false,
          "name": "removedAt",
          "type": "uint256"
        }
      ],
      "name": "ClaimRemoved",
      "type": "event"
    },
    {
      "anonymous": false,
      "inputs": [
        {
          "indexed": true,
          "name": "previousOwner",
          "type": "address"
        },
        {
          "indexed": true,
          "name": "newOwner",
          "type": "address"
        }
      ],
      "name": "OwnershipTransferred",
      "type": "event"
    },
    {
      "constant": false,
      "inputs": [
        {
          "name": "organization",
          "type": "address"
        }
      ],
      "name": "setMembershipClaim",
      "outputs": [],
      "payable": false,
      "stateMutability": "nonpayable",
      "type": "function"
    },
    {
      "constant": false,
      "inputs": [
        {
          "name": "organization",
          "type": "address"
        }
      ],
      "name": "revokeMembership",
      "outputs": [],
      "payable": false,
      "stateMutability": "nonpayable",
      "type": "function"
    },
    {
      "constant": false,
      "inputs": [
        {
          "name": "subject",
          "type": "address"
        },
        {
          "name": "key",
          "type": "bytes32"
        },
        {
          "name": "value",
          "type": "bytes32"
        }
      ],
      "name": "setClaim",
      "outputs": [],
      "payable": false,
      "stateMutability": "nonpayable",
      "type": "function"
    },
    {
      "constant": false,
      "inputs": [
        {
          "name": "subject",
          "type": "address"
        },
        {
          "name": "key",
          "type": "bytes32"
        }
      ],
      "name": "removeClaim",
      "outputs": [],
      "payable": false,
      "stateMutability": "nonpayable",
      "type": "function"
    }
  ],
  "bytecode": "0x608060405234801561001057600080fd5b5060405160208061093b8339810180604052602081101561003057600080fd5b5051600080546001600160a01b03191633178082556040516001600160a01b039190911691907f8be0079c531659141344cd1fd0a4f28419497f9722a3daafe3b4186f6b6457e0908290a3600180546001600160a01b0319166001600160a01b0392909216919091179055610891806100aa6000396000f3fe608060405234801561001057600080fd5b50600436106100935760003560e01c80639918925d116100665780639918925d14610108578063a1c8ca7e1461013a578063b1a8dbc414610166578063c5ae086a1461016e578063f2fde38b1461019457610093565b80636a60b64d14610098578063715018a6146100c05780638da5cb5b146100c85780638f32d59b146100ec575b600080fd5b6100be600480360360208110156100ae57600080fd5b50356001600160a01b03166101ba565b005b6100be610319565b6100d06103ad565b604080516001600160a01b039092168252519081900360200190f35b6100f46103bc565b604080519115158252519081900360200190f35b6100be6004803603606081101561011e57600080fd5b506001600160a01b0381351690602081013590604001356103cd565b6100be6004803603604081101561015057600080fd5b506001600160a01b0381351690602001356104d9565b6100d06105e0565b6100be6004803603602081101561018457600080fd5b50356001600160a01b03166105ef565b6100be600480360360208110156101aa57600080fd5b50356001600160a01b0316610726565b6101c26103bc565b6102045760408051600160e51b62461bcd0281526020600482018190526024820152600080516020610846833981519152604482015290519081900360640190fd5b60015460408051600160b41b6906d656d6265727368697026020808301919091528251808303600a018152602a83018452805190820120600160e01b637472756502604a8401528351602e818503018152604e840180865281519190930120600160e01b639918925d029092526001600160a01b0386811660528501526072840191909152609283019190915291519190921691639918925d9160b280830192600092919082900301818387803b1580156102be57600080fd5b505af11580156102d2573d6000803e3d6000fd5b50506040805142815290516001600160a01b03851693503392507fda66334262641660b97e474cae54b5982d14220fd5120cae2ee5b31325a250789181900360200190a350565b6103216103bc565b6103635760408051600160e51b62461bcd0281526020600482018190526024820152600080516020610846833981519152604482015290519081900360640190fd5b600080546040516001600160a01b03909116907f8be0079c531659141344cd1fd0a4f28419497f9722a3daafe3b4186f6b6457e0908390a3600080546001600160a01b0319169055565b6000546001600160a01b031690565b6000546001600160a01b0316331490565b6103d56103bc565b6104175760408051600160e51b62461bcd0281526020600482018190526024820152600080516020610846833981519152604482015290519081900360640190fd5b60015460408051600160e01b639918925d0281526001600160a01b038681166004830152602482018690526044820185905291519190921691639918925d91606480830192600092919082900301818387803b15801561047657600080fd5b505af115801561048a573d6000803e3d6000fd5b50506040805184815242602082015281518694506001600160a01b038816935033927f853a5f612ccc135937c620de7cb5adb1787beb9624323c28c09f981c21d89bf3928290030190a4505050565b6104e16103bc565b6105235760408051600160e51b62461bcd0281526020600482018190526024820152600080516020610846833981519152604482015290519081900360640190fd5b60015460408051600160e01b63c7508ec70281523060048201526001600160a01b038581166024830152604482018590529151919092169163c7508ec791606480830192600092919082900301818387803b15801561058157600080fd5b505af1158015610595573d6000803e3d6000fd5b50506040805142815290518493506001600160a01b038616925033917f7bc046ef9f2fccd4c99778d7e0fbed67ddb16e63e1a266894769de9516b8039a919081900360200190a45050565b6001546001600160a01b031681565b6105f76103bc565b6106395760408051600160e51b62461bcd0281526020600482018190526024820152600080516020610846833981519152604482015290519081900360640190fd5b60015460408051600160b41b6906d656d6265727368697026020808301919091528251808303600a018152602a830180855281519190920120600160e01b63c7508ec70290915230602e8301526001600160a01b03858116604e840152606e8301919091529151919092169163c7508ec791608e80830192600092919082900301818387803b1580156106cb57600080fd5b505af11580156106df573d6000803e3d6000fd5b50506040805142815290516001600160a01b03851693503392507f43c2a8d3790d980a7f79d8a9bd84cc66132c033d495fc90955366dc62f362d849181900360200190a350565b61072e6103bc565b6107705760408051600160e51b62461bcd0281526020600482018190526024820152600080516020610846833981519152604482015290519081900360640190fd5b6107798161077c565b50565b6001600160a01b0381166107c457604051600160e51b62461bcd0281526004018080602001828103825260268152602001806108206026913960400191505060405180910390fd5b600080546040516001600160a01b03808516939216917f8be0079c531659141344cd1fd0a4f28419497f9722a3daafe3b4186f6b6457e091a3600080546001600160a01b0319166001600160a01b039290921691909117905556fe4f776e61626c653a206e6577206f776e657220697320746865207a65726f20616464726573734f776e61626c653a2063616c6c6572206973206e6f7420746865206f776e6572a165627a7a723058209611bea44f7a0eb7f6ccc11bccf95cb4016ea09c4634cf86baff04851a7b757d0029",
  "source": "pragma solidity ^0.5.0;\n\nimport \"node_modules/openzeppelin-solidity/contracts/ownership/Ownable.sol\";\nimport \"./EthereumClaimsRegistry.sol\";\n\n\n/**\n * @title EEA Claims issuer\n */\n\n\n\n\ncontract EEAClaimsIssuer is Ownable{\n\n    // Register Claims Registry Address\n    EthereumClaimsRegistry public claimsRegistry;\n\n    event MemberShipAdded(\n        address indexed issuer,\n        address indexed subject,\n        uint updatedAt\n    );\n\n    event MembershipRevoked(\n        address indexed issuer,\n        address indexed subject,\n        uint removedAt\n    );\n\n    event ClaimAdded(\n        address indexed issuer,\n        address indexed subject,\n        bytes32 indexed key,\n        bytes32 value,\n        uint updatedAt\n    );\n\n     event ClaimRemoved(\n        address indexed issuer,\n        address indexed subject,\n        bytes32 indexed key,\n        uint removedAt\n    );\n\n\n    constructor(address _claimsRegistry) public {\n        //set claims registry\n        claimsRegistry = EthereumClaimsRegistry(_claimsRegistry);\n    }\n\n\n    function setMembershipClaim(address organization) public onlyOwner {\n        claimsRegistry.setClaim(organization, keccak256(abi.encodePacked(\"membership\")), keccak256(abi.encodePacked(\"true\")));\n        emit MemberShipAdded(msg.sender, organization, now);\n    }\n\n    function revokeMembership(address organization) public onlyOwner {\n        claimsRegistry.removeClaim(address(this), organization, keccak256(abi.encodePacked(\"membership\")));\n        emit MembershipRevoked(msg.sender, organization, now);\n\n    }\n\n    function setClaim(address subject, bytes32 key, bytes32 value) public onlyOwner {\n        claimsRegistry.setClaim(subject, key, value);\n        emit ClaimAdded(msg.sender, subject, key, value, now);\n    }\n\n    function removeClaim(address subject, bytes32 key) public onlyOwner {\n        claimsRegistry.removeClaim(address(this), subject, key);\n        emit ClaimRemoved(msg.sender, subject, key, now);\n    }\n\n\n\n\n\n}\n",
  "sourcePath": "/home/svm/src/EEA/Trusted-Token/contracts/EEAClaimsIssuer.sol",
  "compiler": {
    "name": "solc",
    "version": "0.5.8+commit.23d335f2.Emscripten.clang"
  },
  "schemaVersion": "3.0.12",
  "updatedAt": "2019-09-10T14:20:38.244Z",
  "devdoc": {
    "methods": {
      "isOwner()": {
        "details": "Returns true if the caller is the current owner."
      },
      "owner()": {
        "details": "Returns the address of the current owner."
      },
      "renounceOwnership()": {
        "details": "Leaves the contract without owner. It will not be possible to call `onlyOwner` functions anymore. Can only be called by the current owner.     * > Note: Renouncing ownership will leave the contract without an owner, thereby removing any functionality that is only available to the owner."
      },
      "transferOwnership(address)": {
        "details": "Transfers ownership of the contract to a new account (`newOwner`). Can only be called by the current owner."
      }
    },
    "title": "EEA Claims issuer"
  },
  "userdoc": {
    "methods": {}
  }
}