{
  "contractName": "EEAOperator",
  "abi": [
    {
      "constant": true,
      "inputs": [],
      "name": "reputationToken",
      "outputs": [
        {
          "name": "",
          "type": "address"
        }
      ],
      "payable": false,
      "stateMutability": "view",
      "type": "function"
    },
    {
      "constant": true,
      "inputs": [],
      "name": "penaltyToken",
      "outputs": [
        {
          "name": "",
          "type": "address"
        }
      ],
      "payable": false,
      "stateMutability": "view",
      "type": "function"
    },
    {
      "constant": true,
      "inputs": [],
      "name": "didRegistry",
      "outputs": [
        {
          "name": "",
          "type": "address"
        }
      ],
      "payable": false,
      "stateMutability": "view",
      "type": "function"
    },
    {
      "constant": false,
      "inputs": [],
      "name": "renounceOwnership",
      "outputs": [],
      "payable": false,
      "stateMutability": "nonpayable",
      "type": "function"
    },
    {
      "constant": true,
      "inputs": [],
      "name": "owner",
      "outputs": [
        {
          "name": "",
          "type": "address"
        }
      ],
      "payable": false,
      "stateMutability": "view",
      "type": "function"
    },
    {
      "constant": true,
      "inputs": [],
      "name": "isOwner",
      "outputs": [
        {
          "name": "",
          "type": "bool"
        }
      ],
      "payable": false,
      "stateMutability": "view",
      "type": "function"
    },
    {
      "constant": true,
      "inputs": [],
      "name": "claimsRegistry",
      "outputs": [
        {
          "name": "",
          "type": "address"
        }
      ],
      "payable": false,
      "stateMutability": "view",
      "type": "function"
    },
    {
      "constant": true,
      "inputs": [],
      "name": "eeaIssuer",
      "outputs": [
        {
          "name": "",
          "type": "address"
        }
      ],
      "payable": false,
      "stateMutability": "view",
      "type": "function"
    },
    {
      "constant": false,
      "inputs": [
        {
          "name": "newOwner",
          "type": "address"
        }
      ],
      "name": "transferOwnership",
      "outputs": [],
      "payable": false,
      "stateMutability": "nonpayable",
      "type": "function"
    },
    {
      "constant": true,
      "inputs": [],
      "name": "rewardToken",
      "outputs": [
        {
          "name": "",
          "type": "address"
        }
      ],
      "payable": false,
      "stateMutability": "view",
      "type": "function"
    },
    {
      "inputs": [
        {
          "name": "_didRegistry",
          "type": "address"
        },
        {
          "name": "_claimsRegistry",
          "type": "address"
        },
        {
          "name": "_eeaIssuer",
          "type": "address"
        }
      ],
      "payable": false,
      "stateMutability": "nonpayable",
      "type": "constructor"
    },
    {
      "anonymous": false,
      "inputs": [
        {
          "indexed": true,
          "name": "account",
          "type": "address"
        },
        {
          "indexed": false,
          "name": "amount",
          "type": "uint256"
        },
        {
          "indexed": false,
          "name": "operatorData",
          "type": "bytes"
        }
      ],
      "name": "RewardsMinted",
      "type": "event"
    },
    {
      "anonymous": false,
      "inputs": [
        {
          "indexed": true,
          "name": "account",
          "type": "address"
        },
        {
          "indexed": false,
          "name": "amount",
          "type": "uint256"
        },
        {
          "indexed": false,
          "name": "operatorData",
          "type": "bytes"
        }
      ],
      "name": "PenaltiesMinted",
      "type": "event"
    },
    {
      "anonymous": false,
      "inputs": [
        {
          "indexed": true,
          "name": "account",
          "type": "address"
        },
        {
          "indexed": false,
          "name": "amount",
          "type": "uint256"
        },
        {
          "indexed": false,
          "name": "operatorData",
          "type": "bytes"
        }
      ],
      "name": "ReputationMinted",
      "type": "event"
    },
    {
      "anonymous": false,
      "inputs": [
        {
          "indexed": true,
          "name": "account",
          "type": "address"
        },
        {
          "indexed": false,
          "name": "amount",
          "type": "uint256"
        },
        {
          "indexed": false,
          "name": "operatorData",
          "type": "bytes"
        }
      ],
      "name": "PenaltiesBurned",
      "type": "event"
    },
    {
      "anonymous": false,
      "inputs": [
        {
          "indexed": true,
          "name": "account",
          "type": "address"
        },
        {
          "indexed": false,
          "name": "amount",
          "type": "uint256"
        },
        {
          "indexed": false,
          "name": "operatorData",
          "type": "bytes"
        }
      ],
      "name": "RewardsBurned",
      "type": "event"
    },
    {
      "anonymous": false,
      "inputs": [
        {
          "indexed": true,
          "name": "account",
          "type": "address"
        },
        {
          "indexed": false,
          "name": "amount",
          "type": "uint256"
        },
        {
          "indexed": false,
          "name": "operatorData",
          "type": "bytes"
        }
      ],
      "name": "ReputationBurned",
      "type": "event"
    },
    {
      "anonymous": false,
      "inputs": [
        {
          "indexed": false,
          "name": "organization",
          "type": "address"
        },
        {
          "indexed": false,
          "name": "account",
          "type": "address"
        },
        {
          "indexed": false,
          "name": "amount",
          "type": "uint256"
        }
      ],
      "name": "BatchMintError",
      "type": "event"
    },
    {
      "anonymous": false,
      "inputs": [
        {
          "indexed": false,
          "name": "organization",
          "type": "address"
        }
      ],
      "name": "OrgNotMember",
      "type": "event"
    },
    {
      "anonymous": false,
      "inputs": [
        {
          "indexed": false,
          "name": "organization",
          "type": "address"
        },
        {
          "indexed": false,
          "name": "account",
          "type": "address"
        }
      ],
      "name": "EmployeeNotRegistered",
      "type": "event"
    },
    {
      "anonymous": false,
      "inputs": [
        {
          "indexed": true,
          "name": "previousOwner",
          "type": "address"
        },
        {
          "indexed": true,
          "name": "newOwner",
          "type": "address"
        }
      ],
      "name": "OwnershipTransferred",
      "type": "event"
    },
    {
      "constant": false,
      "inputs": [
        {
          "name": "_penaltyToken",
          "type": "address"
        },
        {
          "name": "_rewardToken",
          "type": "address"
        },
        {
          "name": "_reputationToken",
          "type": "address"
        }
      ],
      "name": "registerTokens",
      "outputs": [],
      "payable": false,
      "stateMutability": "nonpayable",
      "type": "function"
    },
    {
      "constant": false,
      "inputs": [
        {
          "name": "_organization",
          "type": "address[]"
        },
        {
          "name": "_account",
          "type": "address[]"
        },
        {
          "name": "_amount",
          "type": "uint256[]"
        }
      ],
      "name": "batchMintRewards",
      "outputs": [],
      "payable": false,
      "stateMutability": "nonpayable",
      "type": "function"
    },
    {
      "constant": false,
      "inputs": [
        {
          "name": "_organization",
          "type": "address[]"
        },
        {
          "name": "_account",
          "type": "address[]"
        },
        {
          "name": "_amount",
          "type": "uint256[]"
        }
      ],
      "name": "batchMintPenalties",
      "outputs": [],
      "payable": false,
      "stateMutability": "nonpayable",
      "type": "function"
    },
    {
      "constant": false,
      "inputs": [
        {
          "name": "organization",
          "type": "address"
        },
        {
          "name": "amount",
          "type": "uint256"
        },
        {
          "name": "operatorData",
          "type": "bytes"
        }
      ],
      "name": "burnPenalties",
      "outputs": [],
      "payable": false,
      "stateMutability": "nonpayable",
      "type": "function"
    },
    {
      "constant": false,
      "inputs": [
        {
          "name": "organization",
          "type": "address"
        },
        {
          "name": "amount",
          "type": "uint256"
        },
        {
          "name": "operatorData",
          "type": "bytes"
        }
      ],
      "name": "burnRewards",
      "outputs": [],
      "payable": false,
      "stateMutability": "nonpayable",
      "type": "function"
    },
    {
      "constant": false,
      "inputs": [
        {
          "name": "organization",
          "type": "address"
        }
      ],
      "name": "burnAll",
      "outputs": [],
      "payable": false,
      "stateMutability": "nonpayable",
      "type": "function"
    },
    {
      "constant": true,
      "inputs": [
        {
          "name": "account",
          "type": "address"
        }
      ],
      "name": "balance",
      "outputs": [
        {
          "name": "",
          "type": "uint256"
        },
        {
          "name": "",
          "type": "uint256"
        },
        {
          "name": "",
          "type": "uint256"
        }
      ],
      "payable": false,
      "stateMutability": "view",
      "type": "function"
    }
  ],
  "bytecode": "0x608060405234801561001057600080fd5b506040516060806122df8339810180604052606081101561003057600080fd5b5080516020820151604092830151600080546001600160a01b031916331780825594519394929391926001600160a01b0316917f8be0079c531659141344cd1fd0a4f28419497f9722a3daafe3b4186f6b6457e0908290a3600480546001600160a01b039485166001600160a01b03199182161790915560058054938516938216939093179092556006805491909316911617905561220b806100d46000396000f3fe608060405234801561001057600080fd5b506004361061010b5760003560e01c8063715018a6116100a2578063b1a8dbc411610071578063b1a8dbc41461055e578063dbf1bfb814610566578063e3d670d71461056e578063f2fde38b146105b2578063f7c618c1146105d85761010b565b8063715018a61461050c5780637e9d2ac1146105145780638da5cb5b1461053a5780638f32d59b146105425761010b565b80633abecfcf116100de5780633abecfcf146103055780633ed6e9cd146103be578063577f9fb1146103f65780636ba92503146103fe5761010b565b80630a6bad3d146101105780631afe3e3d146101cb578063275bbe9b146102d95780632c2d7709146102fd575b600080fd5b6101c96004803603606081101561012657600080fd5b6001600160a01b0382351691602081013591810190606081016040820135600160201b81111561015557600080fd5b82018360208201111561016757600080fd5b803590602001918460018302840111600160201b8311171561018857600080fd5b91908080601f0160208091040260200160405190810160405280939291908181526020018383808284376000920191909152509295506105e0945050505050565b005b6101c9600480360360608110156101e157600080fd5b810190602081018135600160201b8111156101fb57600080fd5b82018360208201111561020d57600080fd5b803590602001918460208302840111600160201b8311171561022e57600080fd5b919390929091602081019035600160201b81111561024b57600080fd5b82018360208201111561025d57600080fd5b803590602001918460208302840111600160201b8311171561027e57600080fd5b919390929091602081019035600160201b81111561029b57600080fd5b8201836020820111156102ad57600080fd5b803590602001918460208302840111600160201b831117156102ce57600080fd5b5090925090506107cf565b6102e1610a43565b604080516001600160a01b039092168252519081900360200190f35b6102e1610a52565b6101c96004803603606081101561031b57600080fd5b6001600160a01b0382351691602081013591810190606081016040820135600160201b81111561034a57600080fd5b82018360208201111561035c57600080fd5b803590602001918460018302840111600160201b8311171561037d57600080fd5b91908080601f016020809104026020016040519081016040528093929190818152602001838380828437600092019190915250929550610a61945050505050565b6101c9600480360360608110156103d457600080fd5b506001600160a01b038135811691602081013582169160409091013516610c0f565b6102e1610c98565b6101c96004803603606081101561041457600080fd5b810190602081018135600160201b81111561042e57600080fd5b82018360208201111561044057600080fd5b803590602001918460208302840111600160201b8311171561046157600080fd5b919390929091602081019035600160201b81111561047e57600080fd5b82018360208201111561049057600080fd5b803590602001918460208302840111600160201b831117156104b157600080fd5b919390929091602081019035600160201b8111156104ce57600080fd5b8201836020820111156104e057600080fd5b803590602001918460208302840111600160201b8311171561050157600080fd5b509092509050610ca7565b6101c9610f0f565b6101c96004803603602081101561052a57600080fd5b50356001600160a01b0316610fa3565b6102e1611150565b61054a61115f565b604080519115158252519081900360200190f35b6102e1611170565b6102e161117f565b6105946004803603602081101561058457600080fd5b50356001600160a01b031661118e565b60408051938452602084019290925282820152519081900360600190f35b6101c9600480360360208110156105c857600080fd5b50356001600160a01b0316611315565b6102e1611368565b6105e861115f565b61062a5760408051600160e51b62461bcd02815260206004820181905260248201526000805160206121c0833981519152604482015290519081900360640190fd5b600254604051600160e01b63fc673c4f0281526001600160a01b03858116600483019081526024830186905260806044840190815260006084850181905260c060648601908152875160c48701528751949096169563fc673c4f958a958a958a95909490939260e4019160208701918190849084905b838110156106b85781810151838201526020016106a0565b50505050905090810190601f1680156106e55780820380516001836020036101000a031916815260200191505b5095505050505050600060405180830381600087803b15801561070757600080fd5b505af115801561071b573d6000803e3d6000fd5b50505050826001600160a01b03167f2774d0262ba6b8c0231a7b6786fbfad994dc4d70431c0561da79766f02cd6b1383836040518083815260200180602001828103825283818151815260200191508051906020019080838360005b8381101561078f578181015183820152602001610777565b50505050905090810190601f1680156107bc5780820380516001836020036101000a031916815260200191505b50935050505060405180910390a2505050565b6107d761115f565b6108195760408051600160e51b62461bcd02815260206004820181905260248201526000805160206121c0833981519152604482015290519081900360640190fd5b848314801561082757508281145b61087b5760408051600160e51b62461bcd02815260206004820152601e60248201527f4572726f723a204d69736d617463686564206172726179206c656e6774680000604482015290519081900360640190fd5b6000806000805b88811015610a375789898281811061089657fe5b905060200201356001600160a01b031693508787828181106108b457fe5b905060200201356001600160a01b031692508585828181106108d257fe5b9050602002013591506108e484611377565b156109aa576108f38385611480565b1561092757610922848484604051806040016040528060038152602001600160ec1b620307830281525061154e565b6109a5565b604080516001600160a01b0380871682528516602082015281517f591053e75a4d18b38da927b368bbfd008fcae4825890a416f9ee5b9ad96591a0929181900390910190a1604080516001600160a01b0380871682528516602082015280820184905290516000805160206121a08339815191529181900360600190a15b610a1f565b604080516001600160a01b038616815290517fb2626c6a3e83d570e2c4d1014db192ab0e636692af92acb64c902822f4d538c79181900360200190a1604080516001600160a01b0380871682528516602082015280820184905290516000805160206121a08339815191529181900360600190a15b610a3081600163ffffffff611a3216565b9050610882565b50505050505050505050565b6003546001600160a01b031681565b6001546001600160a01b031681565b610a6961115f565b610aab5760408051600160e51b62461bcd02815260206004820181905260248201526000805160206121c0833981519152604482015290519081900360640190fd5b600154604051600160e01b63fc673c4f0281526001600160a01b03858116600483019081526024830186905260806044840190815260006084850181905260c060648601908152875160c48701528751949096169563fc673c4f958a958a958a95909490939260e4019160208701918190849084905b83811015610b39578181015183820152602001610b21565b50505050905090810190601f168015610b665780820380516001836020036101000a031916815260200191505b5095505050505050600060405180830381600087803b158015610b8857600080fd5b505af1158015610b9c573d6000803e3d6000fd5b50505050826001600160a01b03167f7c6a3e262af3d7a188321ff5018442c85e9e1fcb7e05fca53663dc7d95a958b783836040518083815260200180602001828103825283818151815260200191508051906020019080838360008381101561078f578181015183820152602001610777565b610c1761115f565b610c595760408051600160e51b62461bcd02815260206004820181905260248201526000805160206121c0833981519152604482015290519081900360640190fd5b600180546001600160a01b039485166001600160a01b031991821617909155600280549385169382169390931790925560038054919093169116179055565b6004546001600160a01b031681565b610caf61115f565b610cf15760408051600160e51b62461bcd02815260206004820181905260248201526000805160206121c0833981519152604482015290519081900360640190fd5b8483148015610cff57508281145b610d535760408051600160e51b62461bcd02815260206004820152601e60248201527f4572726f723a204d69736d617463686564206172726179206c656e6774680000604482015290519081900360640190fd5b6000806000805b88811015610a3757898982818110610d6e57fe5b905060200201356001600160a01b03169350878782818110610d8c57fe5b905060200201356001600160a01b03169250858582818110610daa57fe5b905060200201359150610dbc84611377565b15610e8257610dcb8385611480565b15610dff57610dfa848484604051806040016040528060038152602001600160ec1b6203078302815250611a96565b610e7d565b604080516001600160a01b0380871682528516602082015281517f591053e75a4d18b38da927b368bbfd008fcae4825890a416f9ee5b9ad96591a0929181900390910190a1604080516001600160a01b0380871682528516602082015280820184905290516000805160206121a08339815191529181900360600190a15b610ef7565b604080516001600160a01b038616815290517fb2626c6a3e83d570e2c4d1014db192ab0e636692af92acb64c902822f4d538c79181900360200190a1604080516001600160a01b0380871682528516602082015280820184905290516000805160206121a08339815191529181900360600190a15b610f0881600163ffffffff611a3216565b9050610d5a565b610f1761115f565b610f595760408051600160e51b62461bcd02815260206004820181905260248201526000805160206121c0833981519152604482015290519081900360640190fd5b600080546040516001600160a01b03909116907f8be0079c531659141344cd1fd0a4f28419497f9722a3daafe3b4186f6b6457e0908390a3600080546001600160a01b0319169055565b610fab61115f565b610fed5760408051600160e51b62461bcd02815260206004820181905260248201526000805160206121c0833981519152604482015290519081900360640190fd5b60015460408051600160e01b6370a082310281526001600160a01b038085166004830152915161109d93859316916370a08231916024808301926020929190829003018186803b15801561104057600080fd5b505afa158015611054573d6000803e3d6000fd5b505050506040513d602081101561106a57600080fd5b50516040805180820190915260128152600160721b711b595b58995c9cda1a5c081c995b995dd85b026020820152610a61565b60025460408051600160e01b6370a082310281526001600160a01b038085166004830152915161114d93859316916370a08231916024808301926020929190829003018186803b1580156110f057600080fd5b505afa158015611104573d6000803e3d6000fd5b505050506040513d602081101561111a57600080fd5b50516040805180820190915260128152600160721b711b595b58995c9cda1a5c081c995b995dd85b0260208201526105e0565b50565b6000546001600160a01b031690565b6000546001600160a01b0316331490565b6005546001600160a01b031681565b6006546001600160a01b031681565b60025460408051600160e01b6370a082310281526001600160a01b0384811660048301529151600093849384939116916370a0823191602480820192602092909190829003018186803b1580156111e457600080fd5b505afa1580156111f8573d6000803e3d6000fd5b505050506040513d602081101561120e57600080fd5b505160015460408051600160e01b6370a082310281526001600160a01b038881166004830152915191909216916370a08231916024808301926020929190829003018186803b15801561126057600080fd5b505afa158015611274573d6000803e3d6000fd5b505050506040513d602081101561128a57600080fd5b505160035460408051600160e01b6370a082310281526001600160a01b038981166004830152915191909216916370a08231916024808301926020929190829003018186803b1580156112dc57600080fd5b505afa1580156112f0573d6000803e3d6000fd5b505050506040513d602081101561130657600080fd5b50519196909550909350915050565b61131d61115f565b61135f5760408051600160e51b62461bcd02815260206004820181905260248201526000805160206121c0833981519152604482015290519081900360640190fd5b61114d816120d6565b6002546001600160a01b031681565b60055460065460408051600160b41b6906d656d6265727368697026020808301919091528251808303600a018152602a8301808552815191830191909120600160e01b63e1661eff029091526001600160a01b03948516602e840152868516604e840152606e83015291516000948594169263e1661eff92608e8082019391829003018186803b15801561140a57600080fd5b505afa15801561141e573d6000803e3d6000fd5b505050506040513d602081101561143457600080fd5b505160408051600160e01b637472756502602082810191909152825180830360040181526024909201909252805191012090915081141561147957600191505061147b565b505b919050565b60045460408051600160c01b67656d706c6f796565026020808301919091528251808303600801815260288301808552815191830191909120600160e21b63188aca8f029091526001600160a01b03868116602c850152604c840191909152868116606c8401529251600094939093169263622b2a3c92608c808201939291829003018186803b15801561151357600080fd5b505afa158015611527573d6000803e3d6000fd5b505050506040513d602081101561153d57600080fd5b505115611548575060015b92915050565b600354604051600160e21b6326677a730281526001600160a01b03858116600483019081526024830186905260806044840190815260006084850181905260c060648601908152875160c48701528751949096169563999de9cc958a958a958a95909490939260e4019160208701918190849084905b838110156115dc5781810151838201526020016115c4565b50505050905090810190601f1680156116095780820380516001836020036101000a031916815260200191505b5095505050505050600060405180830381600087803b15801561162b57600080fd5b505af115801561163f573d6000803e3d6000fd5b5050600254604051600160e21b6326677a730281526001600160a01b03888116600483019081526024830188905260806044840190815260006084850181905260c060648601908152895160c4870152895194909616975063999de9cc96508b958a958a95919260e49091019160208701918190849084905b838110156116d05781810151838201526020016116b8565b50505050905090810190601f1680156116fd5780820380516001836020036101000a031916815260200191505b5095505050505050600060405180830381600087803b15801561171f57600080fd5b505af1158015611733573d6000803e3d6000fd5b5050600354604051600160e21b6326677a730281526001600160a01b03888116600483019081526024830188905260806044840190815260006084850181905260c060648601908152895160c4870152895194909616975063999de9cc96508b958a958a95919260e49091019160208701918190849084905b838110156117c45781810151838201526020016117ac565b50505050905090810190601f1680156117f15780820380516001836020036101000a031916815260200191505b5095505050505050600060405180830381600087803b15801561181357600080fd5b505af1158015611827573d6000803e3d6000fd5b50505050826001600160a01b03167f07fbb4dc7d160f762f5111d8f033086512a0857dfb27c8525c71d04120597ce783836040518083815260200180602001828103825283818151815260200191508051906020019080838360005b8381101561189b578181015183820152602001611883565b50505050905090810190601f1680156118c85780820380516001836020036101000a031916815260200191505b50935050505060405180910390a2836001600160a01b03167f0bf208b09593f1ba23dff8989cf3b82f36e0e97b7a2f8e078a452be16ebd033083836040518083815260200180602001828103825283818151815260200191508051906020019080838360005b8381101561194657818101518382015260200161192e565b50505050905090810190601f1680156119735780820380516001836020036101000a031916815260200191505b50935050505060405180910390a2836001600160a01b03167f07fbb4dc7d160f762f5111d8f033086512a0857dfb27c8525c71d04120597ce783836040518083815260200180602001828103825283818151815260200191508051906020019080838360005b838110156119f15781810151838201526020016119d9565b50505050905090810190601f168015611a1e5780820380516001836020036101000a031916815260200191505b50935050505060405180910390a250505050565b600082820183811015611a8f5760408051600160e51b62461bcd02815260206004820152601b60248201527f536166654d6174683a206164646974696f6e206f766572666c6f770000000000604482015290519081900360640190fd5b9392505050565b600154604051600160e21b6326677a730281526001600160a01b03868116600483019081526024830186905260806044840190815260006084850181905260c060648601908152875160c48701528751949096169563999de9cc958b958a958a95909490939260e4019160208701918190849084905b83811015611b24578181015183820152602001611b0c565b50505050905090810190601f168015611b515780820380516001836020036101000a031916815260200191505b5095505050505050600060405180830381600087803b158015611b7357600080fd5b505af1158015611b87573d6000803e3d6000fd5b505060035460408051600160e01b6370a082310281526001600160a01b0388811660048301529151600095509190921692506370a0823191602480820192602092909190829003018186803b158015611bdf57600080fd5b505afa158015611bf3573d6000803e3d6000fd5b505050506040513d6020811015611c0957600080fd5b505190506000818411611c1c5783611c1e565b815b9050600360009054906101000a90046001600160a01b03166001600160a01b031663fc673c4f8683866040518463ffffffff1660e01b815260040180846001600160a01b03166001600160a01b031681526020018381526020018060200180602001838103835260008152602001602001838103825284818151815260200191508051906020019080838360005b83811015611cc4578181015183820152602001611cac565b50505050905090810190601f168015611cf15780820380516001836020036101000a031916815260200191505b5095505050505050600060405180830381600087803b158015611d1357600080fd5b505af1158015611d27573d6000803e3d6000fd5b505060035460408051600160e01b6370a082310281526001600160a01b038b811660048301529151600095509190921692506370a0823191602480820192602092909190829003018186803b158015611d7f57600080fd5b505afa158015611d93573d6000803e3d6000fd5b505050506040513d6020811015611da957600080fd5b505190506000818611611dbc5785611dbe565b815b9050600360009054906101000a90046001600160a01b03166001600160a01b031663fc673c4f8983886040518463ffffffff1660e01b815260040180846001600160a01b03166001600160a01b031681526020018381526020018060200180602001838103835260008152602001602001838103825284818151815260200191508051906020019080838360005b83811015611e64578181015183820152602001611e4c565b50505050905090810190601f168015611e915780820380516001836020036101000a031916815260200191505b5095505050505050600060405180830381600087803b158015611eb357600080fd5b505af1158015611ec7573d6000803e3d6000fd5b50505050876001600160a01b03167f2b0f3cd7d82ba65dc95cc75ef4e3c3d5e49b5ce950b3160ef260c000a9b89da787876040518083815260200180602001828103825283818151815260200191508051906020019080838360005b83811015611f3b578181015183820152602001611f23565b50505050905090810190601f168015611f685780820380516001836020036101000a031916815260200191505b50935050505060405180910390a2876001600160a01b03167ff2b8ec7e5bb7df2ee7c67ecad21734bd50e4cb1aeb121f2284644e915f867a3b82876040518083815260200180602001828103825283818151815260200191508051906020019080838360005b83811015611fe6578181015183820152602001611fce565b50505050905090810190601f1680156120135780820380516001836020036101000a031916815260200191505b50935050505060405180910390a2866001600160a01b03167ff2b8ec7e5bb7df2ee7c67ecad21734bd50e4cb1aeb121f2284644e915f867a3b84876040518083815260200180602001828103825283818151815260200191508051906020019080838360005b83811015612091578181015183820152602001612079565b50505050905090810190601f1680156120be5780820380516001836020036101000a031916815260200191505b50935050505060405180910390a25050505050505050565b6001600160a01b03811661211e57604051600160e51b62461bcd02815260040180806020018281038252602681526020018061217a6026913960400191505060405180910390fd5b600080546040516001600160a01b03808516939216917f8be0079c531659141344cd1fd0a4f28419497f9722a3daafe3b4186f6b6457e091a3600080546001600160a01b0319166001600160a01b039290921691909117905556fe4f776e61626c653a206e6577206f776e657220697320746865207a65726f20616464726573732375c18441c25a8df52ecf93bd2870de5a6c03cbb97e70a2a712267780af3e474f776e61626c653a2063616c6c6572206973206e6f7420746865206f776e6572a165627a7a7230582066ed3660d3ddb17b2996d8175a7a6b51b4e1b0a06adb7d2d469774a1c664543f0029",
  "source": "pragma solidity ^0.5.0;\n\nimport \"node_modules/openzeppelin-solidity/contracts/ownership/Ownable.sol\";\nimport \"node_modules/openzeppelin-solidity/contracts/math/SafeMath.sol\";\n\nimport \"./EthereumClaimsRegistry.sol\";\nimport \"./EthereumDIDRegistry.sol\";\nimport \"./RewardToken.sol\";\nimport \"./PenaltyToken.sol\";\nimport \"./ReputationToken.sol\";\nimport \"./EEAClaimsIssuer.sol\";\n\n/**\n * @title EEA Operator contract\n */\n\n\n\n\ncontract EEAOperator is Ownable {\n  using SafeMath for uint256;\n\n  PenaltyToken public penaltyToken;\n  RewardToken public rewardToken;\n  ReputationToken public reputationToken;\n  EthereumDIDRegistry public didRegistry;\n  EthereumClaimsRegistry public claimsRegistry;\n  EEAClaimsIssuer public eeaIssuer;\n\n\n  event RewardsMinted(\n      address indexed account,\n      uint256 amount,\n      bytes operatorData\n  );\n\n  event PenaltiesMinted(\n      address indexed account,\n      uint256 amount,\n      bytes operatorData\n  );\n\n  event ReputationMinted(\n      address indexed account,\n      uint256 amount,\n      bytes operatorData\n  );\n\n  event PenaltiesBurned(\n    address indexed account,\n    uint256 amount,\n    bytes operatorData\n  );\n\n  event RewardsBurned(\n    address indexed account,\n    uint256 amount,\n    bytes operatorData\n  );\n\n  event ReputationBurned(\n    address indexed account,\n    uint256 amount,\n    bytes operatorData\n  );\n\n  event BatchMintError(\n    address organization,\n    address account,\n    uint256 amount\n  );\n\n  event OrgNotMember(\n    address organization\n  );\n\n  event EmployeeNotRegistered(\n    address organization,\n    address account\n  );\n\n  constructor(address _didRegistry,\n    address _claimsRegistry,\n    address _eeaIssuer) public {\n\n    //set registries and EEA Issuer address\n    didRegistry = EthereumDIDRegistry(_didRegistry);\n    claimsRegistry = EthereumClaimsRegistry(_claimsRegistry);\n    eeaIssuer = EEAClaimsIssuer(_eeaIssuer);\n  }\n\n\n  function registerTokens(address _penaltyToken, address _rewardToken, address _reputationToken)\n    external\n    onlyOwner\n  {\n    penaltyToken = PenaltyToken(_penaltyToken);\n    rewardToken = RewardToken(_rewardToken);\n    reputationToken = ReputationToken(_reputationToken);\n  }\n\n\n\n  function batchMintRewards(address[] calldata _organization, address[] calldata _account, uint256[] calldata _amount)\n  external onlyOwner\n  {\n      require(_organization.length == _account.length && _account.length == _amount.length, \"Error: Mismatched array length\");\n      address organization;\n      address account;\n      uint256 amount;\n      for (uint256 c; c < _organization.length; c = c.add(1)) {\n          organization = _organization[c]; // gas optimization\n          account = _account[c]; // gas optimization\n          amount = _amount[c]; // gas optimization\n          if(_memberCheck(organization)) {\n            if (_orgCheck(account, organization)) {\n              mintRewards(organization, account, amount,'0x0');\n            }\n            else {\n              emit EmployeeNotRegistered(organization, account);\n              emit BatchMintError(organization, account, amount);\n            }\n          }\n          else {\n            emit OrgNotMember(organization);\n            emit BatchMintError(organization, account, amount);\n          }\n      }\n  }\n\n\n  function batchMintPenalties(address[] calldata _organization, address[] calldata _account, uint256[] calldata _amount)\n  external onlyOwner\n  {\n      require(_organization.length == _account.length && _account.length == _amount.length, \"Error: Mismatched array length\");\n      address organization;\n      address account;\n      uint256 amount;\n      for (uint256 c; c < _organization.length; c = c.add(1)) {\n          organization = _organization[c]; // gas optimization\n          account = _account[c]; // gas optimization\n          amount = _amount[c]; // gas optimization\n          if(_memberCheck(organization)) {\n            if (_orgCheck(account, organization)) {\n              mintPenalties(organization, account, amount, '0x0');\n            }\n            else {\n              emit EmployeeNotRegistered(organization, account);\n              emit BatchMintError(organization, account, amount);\n            }\n          }\n          else {\n            emit OrgNotMember(organization);\n            emit BatchMintError(organization, account, amount);\n          }\n      }\n  }\n\n\n  function burnPenalties(address organization, uint256 amount, bytes memory operatorData) public onlyOwner\n  {\n    penaltyToken.operatorBurn(organization, amount, '', operatorData);\n    emit PenaltiesBurned(organization, amount, operatorData);\n  }\n\n\n  function burnRewards(address organization, uint256 amount, bytes memory operatorData) public onlyOwner\n  {\n    rewardToken.operatorBurn(organization, amount, '', operatorData);\n    emit RewardsBurned(organization, amount, operatorData);\n  }\n\n\n  /// At the end of membership year EEA secretary can burn all tokens using them towards membership fee or credits\n  /// Reputation tokens stay intact\n  function burnAll(address organization) external onlyOwner\n  {\n    burnPenalties(organization, penaltyToken.balanceOf(organization), 'membership renewal');\n    burnRewards(organization, rewardToken.balanceOf(organization), 'membership renewal');\n  }\n\n  function balance(address account) external view returns (uint256, uint256, uint256)\n  {\n    return (rewardToken.balanceOf(account), penaltyToken.balanceOf(account), reputationToken.balanceOf(account));\n  }\n\n\n  function mintRewards(address organization, address account, uint256 amount, bytes memory operatorData) internal\n  {\n    // Mint reputation for Employee\n    reputationToken.operatorMint(account, amount, '', operatorData);\n\n    // Mint for Organizations\n    rewardToken.operatorMint(organization, amount, '', operatorData);\n    reputationToken.operatorMint(organization, amount, '', operatorData);\n\n    // Emit events\n    emit ReputationMinted(account, amount, operatorData);\n    emit RewardsMinted(organization, amount, operatorData);\n    emit ReputationMinted(organization, amount, operatorData);\n  }\n\n  function mintPenalties(address organization, address account, uint256 amount, bytes memory operatorData) internal\n  {\n    penaltyToken.operatorMint(organization, amount, '', operatorData);\n\n    // Update user reputation balance\n    uint256 reputationBalance = reputationToken.balanceOf(account);\n    uint256 reputationPenalty = amount > reputationBalance ? reputationBalance : amount;\n    reputationToken.operatorBurn(account, reputationPenalty, '', operatorData);\n\n    // Update org reputation balance\n    uint256 orgReputationBalance = reputationToken.balanceOf(organization);\n    uint256 orgReputationPenalty = amount > orgReputationBalance ? orgReputationBalance : amount;\n    reputationToken.operatorBurn(organization, orgReputationPenalty, '', operatorData);\n\n    //Emit events\n    emit PenaltiesMinted(organization, amount, operatorData);\n    emit ReputationBurned(organization, orgReputationPenalty, operatorData);\n    emit ReputationBurned(account, reputationPenalty, operatorData);\n  }\n\n\n  function _memberCheck(address member) internal view returns (bool) {\n      bytes32 claim = claimsRegistry.getClaim(address(eeaIssuer), member, keccak256(abi.encodePacked(\"membership\")));\n      if (claim == keccak256(abi.encodePacked(\"true\"))){\n          return true;\n      }\n  }\n\n  function _orgCheck(address member, address organization) internal view returns (bool) {\n      if (didRegistry.validDelegate(organization, keccak256(abi.encodePacked(\"employee\")), member)){\n          return true;\n      }\n  }\n\n}\n",
  "sourcePath": "/home/svm/src/EEA/Trusted-Token/contracts/EEAOperator.sol",
  "compiler": {
    "name": "solc",
    "version": "0.5.8+commit.23d335f2.Emscripten.clang"
  },
  "schemaVersion": "3.0.12",
  "updatedAt": "2019-09-10T14:20:38.252Z",
  "devdoc": {
    "methods": {
      "isOwner()": {
        "details": "Returns true if the caller is the current owner."
      },
      "owner()": {
        "details": "Returns the address of the current owner."
      },
      "renounceOwnership()": {
        "details": "Leaves the contract without owner. It will not be possible to call `onlyOwner` functions anymore. Can only be called by the current owner.     * > Note: Renouncing ownership will leave the contract without an owner, thereby removing any functionality that is only available to the owner."
      },
      "transferOwnership(address)": {
        "details": "Transfers ownership of the contract to a new account (`newOwner`). Can only be called by the current owner."
      }
    },
    "title": "EEA Operator contract"
  },
  "userdoc": {
    "methods": {
      "burnAll(address)": {
        "notice": "At the end of membership year EEA secretary can burn all tokens using them towards membership fee or credits Reputation tokens stay intact"
      }
    }
  }
}