{
  "contractName": "EEATransferableToken",
  "abi": [
    {
      "constant": true,
      "inputs": [],
      "name": "didRegistry",
      "outputs": [
        {
          "name": "",
          "type": "address"
        }
      ],
      "payable": false,
      "stateMutability": "view",
      "type": "function"
    },
    {
      "constant": true,
      "inputs": [],
      "name": "claimsRegistry",
      "outputs": [
        {
          "name": "",
          "type": "address"
        }
      ],
      "payable": false,
      "stateMutability": "view",
      "type": "function"
    },
    {
      "constant": true,
      "inputs": [],
      "name": "eeaIssuer",
      "outputs": [
        {
          "name": "",
          "type": "address"
        }
      ],
      "payable": false,
      "stateMutability": "view",
      "type": "function"
    },
    {
      "inputs": [
        {
          "name": "_didRegistry",
          "type": "address"
        },
        {
          "name": "_claimsRegistry",
          "type": "address"
        },
        {
          "name": "_eeaIssuer",
          "type": "address"
        }
      ],
      "payable": false,
      "stateMutability": "nonpayable",
      "type": "constructor"
    }
  ],
  "bytecode": "0x608060405234801561001057600080fd5b506040516060806101538339810180604052606081101561003057600080fd5b5080516020820151604090920151600080546001600160a01b039384166001600160a01b031991821617909155600180549484169482169490941790935560028054929091169190921617905560c88061008b6000396000f3fe6080604052348015600f57600080fd5b5060043610603c5760003560e01c8063577f9fb1146041578063b1a8dbc4146063578063dbf1bfb8146069575b600080fd5b6047606f565b604080516001600160a01b039092168252519081900360200190f35b6047607e565b6047608d565b6000546001600160a01b031681565b6001546001600160a01b031681565b6002546001600160a01b03168156fea165627a7a72305820e22d0390ede80ff329ca0b2c64c8cd3c435d32017dde20915076c9123762eaa40029",
  "source": "pragma solidity ^0.5.0;\n\n\nimport \"./EthereumClaimsRegistry.sol\";\nimport \"./EthereumDIDRegistry.sol\";\n\n\n/**\n * @title EEA Transferable Token\n */\ncontract EEATransferableToken {\n\n    EthereumDIDRegistry public didRegistry;\n    EthereumClaimsRegistry public claimsRegistry;\n    address public eeaIssuer;\n\n\n\n\n    function _memberCheck(address member) internal view returns (bool) {\n        bytes32 claim = claimsRegistry.getClaim(eeaIssuer, member, keccak256(abi.encodePacked(\"membership\")));\n        if (claim == keccak256(abi.encodePacked(\"true\"))){\n            return true;\n        }\n    }\n\n\n\n  constructor(address _didRegistry,\n    address _claimsRegistry,\n    address _eeaIssuer) public {\n\n    //set registries and EEA Issuer address\n    didRegistry = EthereumDIDRegistry(_didRegistry);\n    claimsRegistry = EthereumClaimsRegistry(_claimsRegistry);\n    eeaIssuer = _eeaIssuer;\n  }\n\n\n}\n",
  "sourcePath": "/home/svm/src/EEA/Trusted-Token/contracts/EEATransferableToken.sol",
  "compiler": {
    "name": "solc",
    "version": "0.5.8+commit.23d335f2.Emscripten.clang"
  },
  "schemaVersion": "3.0.12",
  "updatedAt": "2019-09-10T14:20:38.306Z",
  "devdoc": {
    "methods": {},
    "title": "EEA Transferable Token"
  },
  "userdoc": {
    "methods": {}
  }
}