{
  "contractName": "ERC777",
  "abi": [
    {
      "inputs": [
        {
          "name": "name",
          "type": "string"
        },
        {
          "name": "symbol",
          "type": "string"
        },
        {
          "name": "defaultOperators",
          "type": "address[]"
        }
      ],
      "payable": false,
      "stateMutability": "nonpayable",
      "type": "constructor"
    },
    {
      "anonymous": false,
      "inputs": [
        {
          "indexed": true,
          "name": "from",
          "type": "address"
        },
        {
          "indexed": true,
          "name": "to",
          "type": "address"
        },
        {
          "indexed": false,
          "name": "value",
          "type": "uint256"
        }
      ],
      "name": "Transfer",
      "type": "event"
    },
    {
      "anonymous": false,
      "inputs": [
        {
          "indexed": true,
          "name": "owner",
          "type": "address"
        },
        {
          "indexed": true,
          "name": "spender",
          "type": "address"
        },
        {
          "indexed": false,
          "name": "value",
          "type": "uint256"
        }
      ],
      "name": "Approval",
      "type": "event"
    },
    {
      "anonymous": false,
      "inputs": [
        {
          "indexed": true,
          "name": "operator",
          "type": "address"
        },
        {
          "indexed": true,
          "name": "from",
          "type": "address"
        },
        {
          "indexed": true,
          "name": "to",
          "type": "address"
        },
        {
          "indexed": false,
          "name": "amount",
          "type": "uint256"
        },
        {
          "indexed": false,
          "name": "data",
          "type": "bytes"
        },
        {
          "indexed": false,
          "name": "operatorData",
          "type": "bytes"
        }
      ],
      "name": "Sent",
      "type": "event"
    },
    {
      "anonymous": false,
      "inputs": [
        {
          "indexed": true,
          "name": "operator",
          "type": "address"
        },
        {
          "indexed": true,
          "name": "to",
          "type": "address"
        },
        {
          "indexed": false,
          "name": "amount",
          "type": "uint256"
        },
        {
          "indexed": false,
          "name": "data",
          "type": "bytes"
        },
        {
          "indexed": false,
          "name": "operatorData",
          "type": "bytes"
        }
      ],
      "name": "Minted",
      "type": "event"
    },
    {
      "anonymous": false,
      "inputs": [
        {
          "indexed": true,
          "name": "operator",
          "type": "address"
        },
        {
          "indexed": true,
          "name": "from",
          "type": "address"
        },
        {
          "indexed": false,
          "name": "amount",
          "type": "uint256"
        },
        {
          "indexed": false,
          "name": "data",
          "type": "bytes"
        },
        {
          "indexed": false,
          "name": "operatorData",
          "type": "bytes"
        }
      ],
      "name": "Burned",
      "type": "event"
    },
    {
      "anonymous": false,
      "inputs": [
        {
          "indexed": true,
          "name": "operator",
          "type": "address"
        },
        {
          "indexed": true,
          "name": "tokenHolder",
          "type": "address"
        }
      ],
      "name": "AuthorizedOperator",
      "type": "event"
    },
    {
      "anonymous": false,
      "inputs": [
        {
          "indexed": true,
          "name": "operator",
          "type": "address"
        },
        {
          "indexed": true,
          "name": "tokenHolder",
          "type": "address"
        }
      ],
      "name": "RevokedOperator",
      "type": "event"
    },
    {
      "constant": true,
      "inputs": [],
      "name": "name",
      "outputs": [
        {
          "name": "",
          "type": "string"
        }
      ],
      "payable": false,
      "stateMutability": "view",
      "type": "function"
    },
    {
      "constant": true,
      "inputs": [],
      "name": "symbol",
      "outputs": [
        {
          "name": "",
          "type": "string"
        }
      ],
      "payable": false,
      "stateMutability": "view",
      "type": "function"
    },
    {
      "constant": true,
      "inputs": [],
      "name": "decimals",
      "outputs": [
        {
          "name": "",
          "type": "uint8"
        }
      ],
      "payable": false,
      "stateMutability": "pure",
      "type": "function"
    },
    {
      "constant": true,
      "inputs": [],
      "name": "granularity",
      "outputs": [
        {
          "name": "",
          "type": "uint256"
        }
      ],
      "payable": false,
      "stateMutability": "view",
      "type": "function"
    },
    {
      "constant": true,
      "inputs": [],
      "name": "totalSupply",
      "outputs": [
        {
          "name": "",
          "type": "uint256"
        }
      ],
      "payable": false,
      "stateMutability": "view",
      "type": "function"
    },
    {
      "constant": true,
      "inputs": [
        {
          "name": "tokenHolder",
          "type": "address"
        }
      ],
      "name": "balanceOf",
      "outputs": [
        {
          "name": "",
          "type": "uint256"
        }
      ],
      "payable": false,
      "stateMutability": "view",
      "type": "function"
    },
    {
      "constant": false,
      "inputs": [
        {
          "name": "recipient",
          "type": "address"
        },
        {
          "name": "amount",
          "type": "uint256"
        },
        {
          "name": "data",
          "type": "bytes"
        }
      ],
      "name": "send",
      "outputs": [],
      "payable": false,
      "stateMutability": "nonpayable",
      "type": "function"
    },
    {
      "constant": false,
      "inputs": [
        {
          "name": "recipient",
          "type": "address"
        },
        {
          "name": "amount",
          "type": "uint256"
        }
      ],
      "name": "transfer",
      "outputs": [
        {
          "name": "",
          "type": "bool"
        }
      ],
      "payable": false,
      "stateMutability": "nonpayable",
      "type": "function"
    },
    {
      "constant": false,
      "inputs": [
        {
          "name": "amount",
          "type": "uint256"
        },
        {
          "name": "data",
          "type": "bytes"
        }
      ],
      "name": "burn",
      "outputs": [],
      "payable": false,
      "stateMutability": "nonpayable",
      "type": "function"
    },
    {
      "constant": true,
      "inputs": [
        {
          "name": "operator",
          "type": "address"
        },
        {
          "name": "tokenHolder",
          "type": "address"
        }
      ],
      "name": "isOperatorFor",
      "outputs": [
        {
          "name": "",
          "type": "bool"
        }
      ],
      "payable": false,
      "stateMutability": "view",
      "type": "function"
    },
    {
      "constant": false,
      "inputs": [
        {
          "name": "operator",
          "type": "address"
        }
      ],
      "name": "authorizeOperator",
      "outputs": [],
      "payable": false,
      "stateMutability": "nonpayable",
      "type": "function"
    },
    {
      "constant": false,
      "inputs": [
        {
          "name": "operator",
          "type": "address"
        }
      ],
      "name": "revokeOperator",
      "outputs": [],
      "payable": false,
      "stateMutability": "nonpayable",
      "type": "function"
    },
    {
      "constant": true,
      "inputs": [],
      "name": "defaultOperators",
      "outputs": [
        {
          "name": "",
          "type": "address[]"
        }
      ],
      "payable": false,
      "stateMutability": "view",
      "type": "function"
    },
    {
      "constant": false,
      "inputs": [
        {
          "name": "sender",
          "type": "address"
        },
        {
          "name": "recipient",
          "type": "address"
        },
        {
          "name": "amount",
          "type": "uint256"
        },
        {
          "name": "data",
          "type": "bytes"
        },
        {
          "name": "operatorData",
          "type": "bytes"
        }
      ],
      "name": "operatorSend",
      "outputs": [],
      "payable": false,
      "stateMutability": "nonpayable",
      "type": "function"
    },
    {
      "constant": false,
      "inputs": [
        {
          "name": "account",
          "type": "address"
        },
        {
          "name": "amount",
          "type": "uint256"
        },
        {
          "name": "data",
          "type": "bytes"
        },
        {
          "name": "operatorData",
          "type": "bytes"
        }
      ],
      "name": "operatorBurn",
      "outputs": [],
      "payable": false,
      "stateMutability": "nonpayable",
      "type": "function"
    },
    {
      "constant": true,
      "inputs": [
        {
          "name": "holder",
          "type": "address"
        },
        {
          "name": "spender",
          "type": "address"
        }
      ],
      "name": "allowance",
      "outputs": [
        {
          "name": "",
          "type": "uint256"
        }
      ],
      "payable": false,
      "stateMutability": "view",
      "type": "function"
    },
    {
      "constant": false,
      "inputs": [
        {
          "name": "spender",
          "type": "address"
        },
        {
          "name": "value",
          "type": "uint256"
        }
      ],
      "name": "approve",
      "outputs": [
        {
          "name": "",
          "type": "bool"
        }
      ],
      "payable": false,
      "stateMutability": "nonpayable",
      "type": "function"
    },
    {
      "constant": false,
      "inputs": [
        {
          "name": "holder",
          "type": "address"
        },
        {
          "name": "recipient",
          "type": "address"
        },
        {
          "name": "amount",
          "type": "uint256"
        }
      ],
      "name": "transferFrom",
      "outputs": [
        {
          "name": "",
          "type": "bool"
        }
      ],
      "payable": false,
      "stateMutability": "nonpayable",
      "type": "function"
    }
  ],
  "bytecode": "0x6080604052600080546001600160a01b031916731820a4b7618bde71dce8cdc73aab6c95905fad241790553480156200003757600080fd5b50604051620020ab380380620020ab833981018060405260608110156200005d57600080fd5b8101908080516401000000008111156200007657600080fd5b820160208101848111156200008a57600080fd5b8151640100000000811182820187101715620000a557600080fd5b50509291906020018051640100000000811115620000c257600080fd5b82016020810184811115620000d657600080fd5b8151640100000000811182820187101715620000f157600080fd5b505092919060200180516401000000008111156200010e57600080fd5b820160208101848111156200012257600080fd5b81518560208202830111640100000000821117156200014057600080fd5b505085519093506200015c925060039150602086019062000362565b5081516200017290600490602085019062000362565b50805162000188906005906020840190620003e7565b5060005b600554811015620001e85760016006600060058481548110620001ab57fe5b6000918252602080832091909101546001600160a01b031683528201929092526040019020805460ff19169115159190911790556001016200018c565b5060008054604080517f455243373737546f6b656e0000000000000000000000000000000000000000008152815190819003600b0181207f29965a1d00000000000000000000000000000000000000000000000000000000825230600483018190526024830191909152604482015290516001600160a01b03909216926329965a1d9260648084019382900301818387803b1580156200028757600080fd5b505af11580156200029c573d6000803e3d6000fd5b505060008054604080517f4552433230546f6b656e000000000000000000000000000000000000000000008152815190819003600a0181207f29965a1d00000000000000000000000000000000000000000000000000000000825230600483018190526024830191909152604482015290516001600160a01b0390921694506329965a1d9350606480820193929182900301818387803b1580156200034057600080fd5b505af115801562000355573d6000803e3d6000fd5b5050505050505062000494565b828054600181600116156101000203166002900490600052602060002090601f016020900481019282601f10620003a557805160ff1916838001178555620003d5565b82800160010185558215620003d5579182015b82811115620003d5578251825591602001919060010190620003b8565b50620003e39291506200044d565b5090565b8280548282559060005260206000209081019282156200043f579160200282015b828111156200043f57825182546001600160a01b0319166001600160a01b0390911617825560209092019160019091019062000408565b50620003e39291506200046d565b6200046a91905b80821115620003e3576000815560010162000454565b90565b6200046a91905b80821115620003e35780546001600160a01b031916815560010162000474565b611c0780620004a46000396000f3fe608060405234801561001057600080fd5b50600436106101165760003560e01c8063959b8c3f116100a2578063d95b637111610071578063d95b637114610489578063dd62ed3e146104b7578063fad8b32a146104e5578063fc673c4f1461050b578063fe9d9303146105de57610116565b8063959b8c3f146103ac57806395d89b41146103d25780639bd9bbc6146103da578063a9059cbb1461045d57610116565b806323b872dd116100e957806323b872dd1461024a578063313ce56714610280578063556f0dc71461029e57806362ad1b83146102a657806370a082311461038657610116565b806306e485381461011b57806306fdde0314610173578063095ea7b3146101f057806318160ddd14610230575b600080fd5b610123610653565b60408051602080825283518183015283519192839290830191858101910280838360005b8381101561015f578181015183820152602001610147565b505050509050019250505060405180910390f35b61017b6106b5565b6040805160208082528351818301528351919283929083019185019080838360005b838110156101b557818101518382015260200161019d565b50505050905090810190601f1680156101e25780820380516001836020036101000a031916815260200191505b509250505060405180910390f35b61021c6004803603604081101561020657600080fd5b506001600160a01b038135169060200135610742565b604080519115158252519081900360200190f35b61023861075a565b60408051918252519081900360200190f35b61021c6004803603606081101561026057600080fd5b506001600160a01b03813581169160208101359091169060400135610760565b6102886108cb565b6040805160ff9092168252519081900360200190f35b6102386108d0565b610384600480360360a08110156102bc57600080fd5b6001600160a01b03823581169260208101359091169160408201359190810190608081016060820135600160201b8111156102f657600080fd5b82018360208201111561030857600080fd5b803590602001918460018302840111600160201b8311171561032957600080fd5b919390929091602081019035600160201b81111561034657600080fd5b82018360208201111561035857600080fd5b803590602001918460018302840111600160201b8311171561037957600080fd5b5090925090506108d5565b005b6102386004803603602081101561039c57600080fd5b50356001600160a01b03166109a0565b610384600480360360208110156103c257600080fd5b50356001600160a01b03166109bb565b61017b610abf565b610384600480360360608110156103f057600080fd5b6001600160a01b0382351691602081013591810190606081016040820135600160201b81111561041f57600080fd5b82018360208201111561043157600080fd5b803590602001918460018302840111600160201b8311171561045257600080fd5b509092509050610b20565b61021c6004803603604081101561047357600080fd5b506001600160a01b038135169060200135610b7a565b61021c6004803603604081101561049f57600080fd5b506001600160a01b0381358116916020013516610c4f565b610238600480360360408110156104cd57600080fd5b506001600160a01b0381358116916020013516610cf1565b610384600480360360208110156104fb57600080fd5b50356001600160a01b0316610d1c565b6103846004803603608081101561052157600080fd5b6001600160a01b0382351691602081013591810190606081016040820135600160201b81111561055057600080fd5b82018360208201111561056257600080fd5b803590602001918460018302840111600160201b8311171561058357600080fd5b919390929091602081019035600160201b8111156105a057600080fd5b8201836020820111156105b257600080fd5b803590602001918460018302840111600160201b831117156105d357600080fd5b509092509050610e20565b610384600480360360408110156105f457600080fd5b81359190810190604081016020820135600160201b81111561061557600080fd5b82018360208201111561062757600080fd5b803590602001918460018302840111600160201b8311171561064857600080fd5b509092509050610ee6565b606060058054806020026020016040519081016040528092919081815260200182805480156106ab57602002820191906000526020600020905b81546001600160a01b0316815260019091019060200180831161068d575b5050505050905090565b60038054604080516020601f60026000196101006001881615020190951694909404938401819004810282018101909252828152606093909290918301828280156106ab5780601f10610716576101008083540402835291602001916106ab565b820191906000526020600020905b81548152906001019060200180831161072457509395945050505050565b600033610750818585610f3b565b5060019392505050565b60025490565b60006001600160a01b0383166107aa57604051600160e51b62461bcd028152600401808060200182810382526024815260200180611b436024913960400191505060405180910390fd5b6001600160a01b0384166107f257604051600160e51b62461bcd028152600401808060200182810382526026815260200180611b936026913960400191505060405180910390fd5b6000339050610823818686866040518060200160405280600081525060405180602001604052806000815250610fe5565b61084f81868686604051806020016040528060008152506040518060200160405280600081525061121f565b6001600160a01b03808616600090815260096020908152604080832093851683529290522054610892908690839061088d908763ffffffff61141f16565b610f3b565b6108c0818686866040518060200160405280600081525060405180602001604052806000815250600061147f565b506001949350505050565b601290565b600190565b6108df3388610c4f565b61091d57604051600160e51b62461bcd02815260040180806020018281038252602c815260200180611b67602c913960400191505060405180910390fd5b6109973388888888888080601f01602080910402602001604051908101604052809392919081815260200183838082843760009201919091525050604080516020601f8c018190048102820181019092528a815292508a915089908190840183828082843760009201919091525060019250611715915050565b50505050505050565b6001600160a01b031660009081526001602052604090205490565b336001600160a01b0382161415610a0657604051600160e51b62461bcd028152600401808060200182810382526024815260200180611ab16024913960400191505060405180910390fd5b6001600160a01b03811660009081526006602052604090205460ff1615610a57573360009081526008602090815260408083206001600160a01b03851684529091529020805460ff19169055610a86565b3360009081526007602090815260408083206001600160a01b03851684529091529020805460ff191660011790555b60405133906001600160a01b038316907ff4caeb2d6ca8932a215a353d0703c326ec2d81fc68170f320eb2ab49e9df61f990600090a350565b60048054604080516020601f60026000196101006001881615020190951694909404938401819004810282018101909252828152606093909290918301828280156106ab5780601f10610716576101008083540402835291602001916106ab565b610b743333868686868080601f016020809104026020016040519081016040528093929190818152602001838380828437600092018290525060408051602081019091529081529250600191506117159050565b50505050565b60006001600160a01b038316610bc457604051600160e51b62461bcd028152600401808060200182810382526024815260200180611b436024913960400191505060405180910390fd5b6000339050610bf5818286866040518060200160405280600081525060405180602001604052806000815250610fe5565b610c2181828686604051806020016040528060008152506040518060200160405280600081525061121f565b610750818286866040518060200160405280600081525060405180602001604052806000815250600061147f565b6000816001600160a01b0316836001600160a01b03161480610cba57506001600160a01b03831660009081526006602052604090205460ff168015610cba57506001600160a01b0380831660009081526008602090815260408083209387168352929052205460ff16155b80610cea57506001600160a01b0380831660009081526007602090815260408083209387168352929052205460ff165b9392505050565b6001600160a01b03918216600090815260096020908152604080832093909416825291909152205490565b6001600160a01b038116331415610d6757604051600160e51b62461bcd028152600401808060200182810382526021815260200180611ad56021913960400191505060405180910390fd5b6001600160a01b03811660009081526006602052604090205460ff1615610dbb573360009081526008602090815260408083206001600160a01b03851684529091529020805460ff19166001179055610de7565b3360009081526007602090815260408083206001600160a01b03851684529091529020805460ff191690555b60405133906001600160a01b038316907f50546e66e5f44d728365dc3908c63bc5cfeeab470722c1677e3073a6ac294aa190600090a350565b610e2a3387610c4f565b610e6857604051600160e51b62461bcd02815260040180806020018281038252602c815260200180611b67602c913960400191505060405180910390fd5b610ede33878787878080601f01602080910402602001604051908101604052809392919081815260200183838082843760009201919091525050604080516020601f8b0181900481028201810190925289815292508991508890819084018382808284376000920191909152506117e692505050565b505050505050565b610f3633338585858080601f0160208091040260200160405190810160405280939291908181526020018383808284376000920182905250604080516020810190915290815292506117e6915050565b505050565b6001600160a01b038216610f8357604051600160e51b62461bcd028152600401808060200182810382526023815260200180611bb96023913960400191505060405180910390fd5b6001600160a01b03808416600081815260096020908152604080832094871680845294825291829020859055815185815291517f8c5be1e5ebec7d5bd14f71427d1e84f3dd0314c0f7b2291e5b200ac8c7c3b9259281900390910190a3505050565b6000805460408051600160e11b63555ddc650281526001600160a01b0389811660048301527f29ddb589b1fb5fc7cf394961c1adf5f8c6454761adf795e67fe149f658abe89560248301529151919092169163aabbb8ca916044808301926020929190829003018186803b15801561105c57600080fd5b505afa158015611070573d6000803e3d6000fd5b505050506040513d602081101561108657600080fd5b505190506001600160a01b0381161561099757806001600160a01b03166375ab97828888888888886040518763ffffffff1660e01b815260040180876001600160a01b03166001600160a01b03168152602001866001600160a01b03166001600160a01b03168152602001856001600160a01b03166001600160a01b031681526020018481526020018060200180602001838103835285818151815260200191508051906020019080838360005b8381101561114c578181015183820152602001611134565b50505050905090810190601f1680156111795780820380516001836020036101000a031916815260200191505b50838103825284518152845160209182019186019080838360005b838110156111ac578181015183820152602001611194565b50505050905090810190601f1680156111d95780820380516001836020036101000a031916815260200191505b5098505050505050505050600060405180830381600087803b1580156111fe57600080fd5b505af1158015611212573d6000803e3d6000fd5b5050505050505050505050565b6001600160a01b038516600090815260016020526040902054611248908463ffffffff61141f16565b6001600160a01b03808716600090815260016020526040808220939093559086168152205461127d908463ffffffff611a0916565b60016000866001600160a01b03166001600160a01b0316815260200190815260200160002081905550836001600160a01b0316856001600160a01b0316876001600160a01b03167f06b541ddaa720db2b10a4d0cdac39b8d360425fc073085fac19bc82614677987868686604051808481526020018060200180602001838103835285818151815260200191508051906020019080838360005b8381101561132f578181015183820152602001611317565b50505050905090810190601f16801561135c5780820380516001836020036101000a031916815260200191505b50838103825284518152845160209182019186019080838360005b8381101561138f578181015183820152602001611377565b50505050905090810190601f1680156113bc5780820380516001836020036101000a031916815260200191505b509550505050505060405180910390a4836001600160a01b0316856001600160a01b03167fddf252ad1be2c89b69c2b068fc378daa952ba7f163c4a11628f55a4df523b3ef856040518082815260200191505060405180910390a3505050505050565b6000828211156114795760408051600160e51b62461bcd02815260206004820152601e60248201527f536166654d6174683a207375627472616374696f6e206f766572666c6f770000604482015290519081900360640190fd5b50900390565b6000805460408051600160e11b63555ddc650281526001600160a01b0389811660048301527fb281fc8c12954d22544db45de3159a39272895b169a852b314f9cc762e44c53b60248301529151919092169163aabbb8ca916044808301926020929190829003018186803b1580156114f657600080fd5b505afa15801561150a573d6000803e3d6000fd5b505050506040513d602081101561152057600080fd5b505190506001600160a01b038116156116b457806001600160a01b03166223de298989898989896040518763ffffffff1660e01b815260040180876001600160a01b03166001600160a01b03168152602001866001600160a01b03166001600160a01b03168152602001856001600160a01b03166001600160a01b031681526020018481526020018060200180602001838103835285818151815260200191508051906020019080838360005b838110156115e55781810151838201526020016115cd565b50505050905090810190601f1680156116125780820380516001836020036101000a031916815260200191505b50838103825284518152845160209182019186019080838360005b8381101561164557818101518382015260200161162d565b50505050905090810190601f1680156116725780820380516001836020036101000a031916815260200191505b5098505050505050505050600060405180830381600087803b15801561169757600080fd5b505af11580156116ab573d6000803e3d6000fd5b5050505061170b565b811561170b576116cc866001600160a01b0316611a66565b1561170b57604051600160e51b62461bcd02815260040180806020018281038252604d815260200180611af6604d913960600191505060405180910390fd5b5050505050505050565b6001600160a01b03861661175d57604051600160e51b62461bcd028152600401808060200182810382526022815260200180611a6d6022913960400191505060405180910390fd5b6001600160a01b0385166117bb5760408051600160e51b62461bcd02815260206004820181905260248201527f4552433737373a2073656e6420746f20746865207a65726f2061646472657373604482015290519081900360640190fd5b6117c9878787878787610fe5565b6117d787878787878761121f565b6109978787878787878761147f565b6001600160a01b03841661182e57604051600160e51b62461bcd028152600401808060200182810382526022815260200180611a8f6022913960400191505060405180910390fd5b61183d85856000868686610fe5565b600254611850908463ffffffff61141f16565b6002556001600160a01b03841660009081526001602052604090205461187c908463ffffffff61141f16565b60016000866001600160a01b03166001600160a01b0316815260200190815260200160002081905550836001600160a01b0316856001600160a01b03167fa78a9be3a7b862d26933ad85fb11d80ef66b8f972d7cbba06621d583943a4098858585604051808481526020018060200180602001838103835285818151815260200191508051906020019080838360005b8381101561192457818101518382015260200161190c565b50505050905090810190601f1680156119515780820380516001836020036101000a031916815260200191505b50838103825284518152845160209182019186019080838360005b8381101561198457818101518382015260200161196c565b50505050905090810190601f1680156119b15780820380516001836020036101000a031916815260200191505b509550505050505060405180910390a36040805184815290516000916001600160a01b038716917fddf252ad1be2c89b69c2b068fc378daa952ba7f163c4a11628f55a4df523b3ef9181900360200190a35050505050565b600082820183811015610cea5760408051600160e51b62461bcd02815260206004820152601b60248201527f536166654d6174683a206164646974696f6e206f766572666c6f770000000000604482015290519081900360640190fd5b3b15159056fe4552433737373a2073656e642066726f6d20746865207a65726f20616464726573734552433737373a206275726e2066726f6d20746865207a65726f20616464726573734552433737373a20617574686f72697a696e672073656c66206173206f70657261746f724552433737373a207265766f6b696e672073656c66206173206f70657261746f724552433737373a20746f6b656e20726563697069656e7420636f6e747261637420686173206e6f20696d706c656d656e74657220666f7220455243373737546f6b656e73526563697069656e744552433737373a207472616e7366657220746f20746865207a65726f20616464726573734552433737373a2063616c6c6572206973206e6f7420616e206f70657261746f7220666f7220686f6c6465724552433737373a207472616e736665722066726f6d20746865207a65726f20616464726573734552433737373a20617070726f766520746f20746865207a65726f2061646472657373a165627a7a72305820cf0c7134e2e10118e4adc043a8432d5015472c538007fb92f0a7ac3c21c0e52f0029",
  "source": "pragma solidity ^0.5.0;\n\nimport \"./IERC777.sol\";\nimport \"./IERC777Recipient.sol\";\nimport \"./IERC777Sender.sol\";\nimport \"../../token/ERC20/IERC20.sol\";\nimport \"../../math/SafeMath.sol\";\nimport \"../../utils/Address.sol\";\nimport \"../../introspection/IERC1820Registry.sol\";\n\n/**\n * @dev Implementation of the `IERC777` interface.\n *\n * This implementation is agnostic to the way tokens are created. This means\n * that a supply mechanism has to be added in a derived contract using `_mint`.\n *\n * Support for ERC20 is included in this contract, as specified by the EIP: both\n * the ERC777 and ERC20 interfaces can be safely used when interacting with it.\n * Both `IERC777.Sent` and `IERC20.Transfer` events are emitted on token\n * movements.\n *\n * Additionally, the `granularity` value is hard-coded to `1`, meaning that there\n * are no special restrictions in the amount of tokens that created, moved, or\n * destroyed. This makes integration with ERC20 applications seamless.\n */\ncontract ERC777 is IERC777, IERC20 {\n    using SafeMath for uint256;\n    using Address for address;\n\n    IERC1820Registry private _erc1820 = IERC1820Registry(0x1820a4B7618BdE71Dce8cdc73aAB6C95905faD24);\n\n    mapping(address => uint256) private _balances;\n\n    uint256 private _totalSupply;\n\n    string private _name;\n    string private _symbol;\n\n    // We inline the result of the following hashes because Solidity doesn't resolve them at compile time.\n    // See https://github.com/ethereum/solidity/issues/4024.\n\n    // keccak256(\"ERC777TokensSender\")\n    bytes32 constant private TOKENS_SENDER_INTERFACE_HASH =\n        0x29ddb589b1fb5fc7cf394961c1adf5f8c6454761adf795e67fe149f658abe895;\n\n    // keccak256(\"ERC777TokensRecipient\")\n    bytes32 constant private TOKENS_RECIPIENT_INTERFACE_HASH =\n        0xb281fc8c12954d22544db45de3159a39272895b169a852b314f9cc762e44c53b;\n\n    // This isn't ever read from - it's only used to respond to the defaultOperators query.\n    address[] private _defaultOperatorsArray;\n\n    // Immutable, but accounts may revoke them (tracked in __revokedDefaultOperators).\n    mapping(address => bool) private _defaultOperators;\n\n    // For each account, a mapping of its operators and revoked default operators.\n    mapping(address => mapping(address => bool)) private _operators;\n    mapping(address => mapping(address => bool)) private _revokedDefaultOperators;\n\n    // ERC20-allowances\n    mapping (address => mapping (address => uint256)) private _allowances;\n\n    /**\n     * @dev `defaultOperators` may be an empty array.\n     */\n    constructor(\n        string memory name,\n        string memory symbol,\n        address[] memory defaultOperators\n    ) public {\n        _name = name;\n        _symbol = symbol;\n\n        _defaultOperatorsArray = defaultOperators;\n        for (uint256 i = 0; i < _defaultOperatorsArray.length; i++) {\n            _defaultOperators[_defaultOperatorsArray[i]] = true;\n        }\n\n        // register interfaces\n        _erc1820.setInterfaceImplementer(address(this), keccak256(\"ERC777Token\"), address(this));\n        _erc1820.setInterfaceImplementer(address(this), keccak256(\"ERC20Token\"), address(this));\n    }\n\n    /**\n     * @dev See `IERC777.name`.\n     */\n    function name() public view returns (string memory) {\n        return _name;\n    }\n\n    /**\n     * @dev See `IERC777.symbol`.\n     */\n    function symbol() public view returns (string memory) {\n        return _symbol;\n    }\n\n    /**\n     * @dev See `ERC20Detailed.decimals`.\n     *\n     * Always returns 18, as per the\n     * [ERC777 EIP](https://eips.ethereum.org/EIPS/eip-777#backward-compatibility).\n     */\n    function decimals() public pure returns (uint8) {\n        return 18;\n    }\n\n    /**\n     * @dev See `IERC777.granularity`.\n     *\n     * This implementation always returns `1`.\n     */\n    function granularity() public view returns (uint256) {\n        return 1;\n    }\n\n    /**\n     * @dev See `IERC777.totalSupply`.\n     */\n    function totalSupply() public view returns (uint256) {\n        return _totalSupply;\n    }\n\n    /**\n     * @dev Returns the amount of tokens owned by an account (`tokenHolder`).\n     */\n    function balanceOf(address tokenHolder) public view returns (uint256) {\n        return _balances[tokenHolder];\n    }\n\n    /**\n     * @dev See `IERC777.send`.\n     *\n     * Also emits a `Transfer` event for ERC20 compatibility.\n     */\n    function send(address recipient, uint256 amount, bytes calldata data) external {\n        _send(msg.sender, msg.sender, recipient, amount, data, \"\", true);\n    }\n\n    /**\n     * @dev See `IERC20.transfer`.\n     *\n     * Unlike `send`, `recipient` is _not_ required to implement the `tokensReceived`\n     * interface if it is a contract.\n     *\n     * Also emits a `Sent` event.\n     */\n    function transfer(address recipient, uint256 amount) external returns (bool) {\n        require(recipient != address(0), \"ERC777: transfer to the zero address\");\n\n        address from = msg.sender;\n\n        _callTokensToSend(from, from, recipient, amount, \"\", \"\");\n\n        _move(from, from, recipient, amount, \"\", \"\");\n\n        _callTokensReceived(from, from, recipient, amount, \"\", \"\", false);\n\n        return true;\n    }\n\n    /**\n     * @dev See `IERC777.burn`.\n     *\n     * Also emits a `Transfer` event for ERC20 compatibility.\n     */\n    function burn(uint256 amount, bytes calldata data) external {\n        _burn(msg.sender, msg.sender, amount, data, \"\");\n    }\n\n    /**\n     * @dev See `IERC777.isOperatorFor`.\n     */\n    function isOperatorFor(\n        address operator,\n        address tokenHolder\n    ) public view returns (bool) {\n        return operator == tokenHolder ||\n            (_defaultOperators[operator] && !_revokedDefaultOperators[tokenHolder][operator]) ||\n            _operators[tokenHolder][operator];\n    }\n\n    /**\n     * @dev See `IERC777.authorizeOperator`.\n     */\n    function authorizeOperator(address operator) external {\n        require(msg.sender != operator, \"ERC777: authorizing self as operator\");\n\n        if (_defaultOperators[operator]) {\n            delete _revokedDefaultOperators[msg.sender][operator];\n        } else {\n            _operators[msg.sender][operator] = true;\n        }\n\n        emit AuthorizedOperator(operator, msg.sender);\n    }\n\n    /**\n     * @dev See `IERC777.revokeOperator`.\n     */\n    function revokeOperator(address operator) external {\n        require(operator != msg.sender, \"ERC777: revoking self as operator\");\n\n        if (_defaultOperators[operator]) {\n            _revokedDefaultOperators[msg.sender][operator] = true;\n        } else {\n            delete _operators[msg.sender][operator];\n        }\n\n        emit RevokedOperator(operator, msg.sender);\n    }\n\n    /**\n     * @dev See `IERC777.defaultOperators`.\n     */\n    function defaultOperators() public view returns (address[] memory) {\n        return _defaultOperatorsArray;\n    }\n\n    /**\n     * @dev See `IERC777.operatorSend`.\n     *\n     * Emits `Sent` and `Transfer` events.\n     */\n    function operatorSend(\n        address sender,\n        address recipient,\n        uint256 amount,\n        bytes calldata data,\n        bytes calldata operatorData\n    )\n    external\n    {\n        require(isOperatorFor(msg.sender, sender), \"ERC777: caller is not an operator for holder\");\n        _send(msg.sender, sender, recipient, amount, data, operatorData, true);\n    }\n\n    /**\n     * @dev See `IERC777.operatorBurn`.\n     *\n     * Emits `Sent` and `Transfer` events.\n     */\n    function operatorBurn(address account, uint256 amount, bytes calldata data, bytes calldata operatorData) external {\n        require(isOperatorFor(msg.sender, account), \"ERC777: caller is not an operator for holder\");\n        _burn(msg.sender, account, amount, data, operatorData);\n    }\n\n    /**\n     * @dev See `IERC20.allowance`.\n     *\n     * Note that operator and allowance concepts are orthogonal: operators may\n     * not have allowance, and accounts with allowance may not be operators\n     * themselves.\n     */\n    function allowance(address holder, address spender) public view returns (uint256) {\n        return _allowances[holder][spender];\n    }\n\n    /**\n     * @dev See `IERC20.approve`.\n     *\n     * Note that accounts cannot have allowance issued by their operators.\n     */\n    function approve(address spender, uint256 value) external returns (bool) {\n        address holder = msg.sender;\n        _approve(holder, spender, value);\n        return true;\n    }\n\n   /**\n    * @dev See `IERC20.transferFrom`.\n    *\n    * Note that operator and allowance concepts are orthogonal: operators cannot\n    * call `transferFrom` (unless they have allowance), and accounts with\n    * allowance cannot call `operatorSend` (unless they are operators).\n    *\n    * Emits `Sent` and `Transfer` events.\n    */\n    function transferFrom(address holder, address recipient, uint256 amount) external returns (bool) {\n        require(recipient != address(0), \"ERC777: transfer to the zero address\");\n        require(holder != address(0), \"ERC777: transfer from the zero address\");\n\n        address spender = msg.sender;\n\n        _callTokensToSend(spender, holder, recipient, amount, \"\", \"\");\n\n        _move(spender, holder, recipient, amount, \"\", \"\");\n        _approve(holder, spender, _allowances[holder][spender].sub(amount));\n\n        _callTokensReceived(spender, holder, recipient, amount, \"\", \"\", false);\n\n        return true;\n    }\n\n    /**\n     * @dev Creates `amount` tokens and assigns them to `account`, increasing\n     * the total supply.\n     *\n     * If a send hook is registered for `raccount`, the corresponding function\n     * will be called with `operator`, `data` and `operatorData`.\n     *\n     * See `IERC777Sender` and `IERC777Recipient`.\n     *\n     * Emits `Sent` and `Transfer` events.\n     *\n     * Requirements\n     *\n     * - `account` cannot be the zero address.\n     * - if `account` is a contract, it must implement the `tokensReceived`\n     * interface.\n     */\n    function _mint(\n        address operator,\n        address account,\n        uint256 amount,\n        bytes memory userData,\n        bytes memory operatorData\n    )\n    internal\n    {\n        require(account != address(0), \"ERC777: mint to the zero address\");\n\n        // Update state variables\n        _totalSupply = _totalSupply.add(amount);\n        _balances[account] = _balances[account].add(amount);\n\n        _callTokensReceived(operator, address(0), account, amount, userData, operatorData, true);\n\n        emit Minted(operator, account, amount, userData, operatorData);\n        emit Transfer(address(0), account, amount);\n    }\n\n    /**\n     * @dev Send tokens\n     * @param operator address operator requesting the transfer\n     * @param from address token holder address\n     * @param to address recipient address\n     * @param amount uint256 amount of tokens to transfer\n     * @param userData bytes extra information provided by the token holder (if any)\n     * @param operatorData bytes extra information provided by the operator (if any)\n     * @param requireReceptionAck if true, contract recipients are required to implement ERC777TokensRecipient\n     */\n    function _send(\n        address operator,\n        address from,\n        address to,\n        uint256 amount,\n        bytes memory userData,\n        bytes memory operatorData,\n        bool requireReceptionAck\n    )\n        private\n    {\n        require(from != address(0), \"ERC777: send from the zero address\");\n        require(to != address(0), \"ERC777: send to the zero address\");\n\n        _callTokensToSend(operator, from, to, amount, userData, operatorData);\n\n        _move(operator, from, to, amount, userData, operatorData);\n\n        _callTokensReceived(operator, from, to, amount, userData, operatorData, requireReceptionAck);\n    }\n\n    /**\n     * @dev Burn tokens\n     * @param operator address operator requesting the operation\n     * @param from address token holder address\n     * @param amount uint256 amount of tokens to burn\n     * @param data bytes extra information provided by the token holder\n     * @param operatorData bytes extra information provided by the operator (if any)\n     */\n    function _burn(\n        address operator,\n        address from,\n        uint256 amount,\n        bytes memory data,\n        bytes memory operatorData\n    )\n        private\n    {\n        require(from != address(0), \"ERC777: burn from the zero address\");\n\n        _callTokensToSend(operator, from, address(0), amount, data, operatorData);\n\n        // Update state variables\n        _totalSupply = _totalSupply.sub(amount);\n        _balances[from] = _balances[from].sub(amount);\n\n        emit Burned(operator, from, amount, data, operatorData);\n        emit Transfer(from, address(0), amount);\n    }\n\n    function _move(\n        address operator,\n        address from,\n        address to,\n        uint256 amount,\n        bytes memory userData,\n        bytes memory operatorData\n    )\n        private\n    {\n        _balances[from] = _balances[from].sub(amount);\n        _balances[to] = _balances[to].add(amount);\n\n        emit Sent(operator, from, to, amount, userData, operatorData);\n        emit Transfer(from, to, amount);\n    }\n\n    function _approve(address holder, address spender, uint256 value) private {\n        // TODO: restore this require statement if this function becomes internal, or is called at a new callsite. It is\n        // currently unnecessary.\n        //require(holder != address(0), \"ERC777: approve from the zero address\");\n        require(spender != address(0), \"ERC777: approve to the zero address\");\n\n        _allowances[holder][spender] = value;\n        emit Approval(holder, spender, value);\n    }\n\n    /**\n     * @dev Call from.tokensToSend() if the interface is registered\n     * @param operator address operator requesting the transfer\n     * @param from address token holder address\n     * @param to address recipient address\n     * @param amount uint256 amount of tokens to transfer\n     * @param userData bytes extra information provided by the token holder (if any)\n     * @param operatorData bytes extra information provided by the operator (if any)\n     */\n    function _callTokensToSend(\n        address operator,\n        address from,\n        address to,\n        uint256 amount,\n        bytes memory userData,\n        bytes memory operatorData\n    )\n        private\n    {\n        address implementer = _erc1820.getInterfaceImplementer(from, TOKENS_SENDER_INTERFACE_HASH);\n        if (implementer != address(0)) {\n            IERC777Sender(implementer).tokensToSend(operator, from, to, amount, userData, operatorData);\n        }\n    }\n\n    /**\n     * @dev Call to.tokensReceived() if the interface is registered. Reverts if the recipient is a contract but\n     * tokensReceived() was not registered for the recipient\n     * @param operator address operator requesting the transfer\n     * @param from address token holder address\n     * @param to address recipient address\n     * @param amount uint256 amount of tokens to transfer\n     * @param userData bytes extra information provided by the token holder (if any)\n     * @param operatorData bytes extra information provided by the operator (if any)\n     * @param requireReceptionAck if true, contract recipients are required to implement ERC777TokensRecipient\n     */\n    function _callTokensReceived(\n        address operator,\n        address from,\n        address to,\n        uint256 amount,\n        bytes memory userData,\n        bytes memory operatorData,\n        bool requireReceptionAck\n    )\n        private\n    {\n        address implementer = _erc1820.getInterfaceImplementer(to, TOKENS_RECIPIENT_INTERFACE_HASH);\n        if (implementer != address(0)) {\n            IERC777Recipient(implementer).tokensReceived(operator, from, to, amount, userData, operatorData);\n        } else if (requireReceptionAck) {\n            require(!to.isContract(), \"ERC777: token recipient contract has no implementer for ERC777TokensRecipient\");\n        }\n    }\n}\n",
  "sourcePath": "node_modules/openzeppelin-solidity/contracts/token/ERC777/ERC777.sol",
  "compiler": {
    "name": "solc",
    "version": "0.5.8+commit.23d335f2.Emscripten.clang"
  },
  "schemaVersion": "3.0.12",
  "updatedAt": "2019-09-10T14:20:38.512Z",
  "devdoc": {
    "details": "Implementation of the `IERC777` interface. * This implementation is agnostic to the way tokens are created. This means that a supply mechanism has to be added in a derived contract using `_mint`. * Support for ERC20 is included in this contract, as specified by the EIP: both the ERC777 and ERC20 interfaces can be safely used when interacting with it. Both `IERC777.Sent` and `IERC20.Transfer` events are emitted on token movements. * Additionally, the `granularity` value is hard-coded to `1`, meaning that there are no special restrictions in the amount of tokens that created, moved, or destroyed. This makes integration with ERC20 applications seamless.",
    "methods": {
      "allowance(address,address)": {
        "details": "See `IERC20.allowance`.     * Note that operator and allowance concepts are orthogonal: operators may not have allowance, and accounts with allowance may not be operators themselves."
      },
      "approve(address,uint256)": {
        "details": "See `IERC20.approve`.     * Note that accounts cannot have allowance issued by their operators."
      },
      "authorizeOperator(address)": {
        "details": "See `IERC777.authorizeOperator`."
      },
      "balanceOf(address)": {
        "details": "Returns the amount of tokens owned by an account (`tokenHolder`)."
      },
      "burn(uint256,bytes)": {
        "details": "See `IERC777.burn`.     * Also emits a `Transfer` event for ERC20 compatibility."
      },
      "constructor": {
        "details": "`defaultOperators` may be an empty array."
      },
      "decimals()": {
        "details": "See `ERC20Detailed.decimals`.     * Always returns 18, as per the [ERC777 EIP](https://eips.ethereum.org/EIPS/eip-777#backward-compatibility)."
      },
      "defaultOperators()": {
        "details": "See `IERC777.defaultOperators`."
      },
      "granularity()": {
        "details": "See `IERC777.granularity`.     * This implementation always returns `1`."
      },
      "isOperatorFor(address,address)": {
        "details": "See `IERC777.isOperatorFor`."
      },
      "name()": {
        "details": "See `IERC777.name`."
      },
      "operatorBurn(address,uint256,bytes,bytes)": {
        "details": "See `IERC777.operatorBurn`.     * Emits `Sent` and `Transfer` events."
      },
      "operatorSend(address,address,uint256,bytes,bytes)": {
        "details": "See `IERC777.operatorSend`.     * Emits `Sent` and `Transfer` events."
      },
      "revokeOperator(address)": {
        "details": "See `IERC777.revokeOperator`."
      },
      "send(address,uint256,bytes)": {
        "details": "See `IERC777.send`.     * Also emits a `Transfer` event for ERC20 compatibility."
      },
      "symbol()": {
        "details": "See `IERC777.symbol`."
      },
      "totalSupply()": {
        "details": "See `IERC777.totalSupply`."
      },
      "transfer(address,uint256)": {
        "details": "See `IERC20.transfer`.     * Unlike `send`, `recipient` is _not_ required to implement the `tokensReceived` interface if it is a contract.     * Also emits a `Sent` event."
      },
      "transferFrom(address,address,uint256)": {
        "details": "See `IERC20.transferFrom`.    * Note that operator and allowance concepts are orthogonal: operators cannot call `transferFrom` (unless they have allowance), and accounts with allowance cannot call `operatorSend` (unless they are operators).    * Emits `Sent` and `Transfer` events."
      }
    }
  },
  "userdoc": {
    "methods": {}
  }
}