{
  "contractName": "EthereumClaimsRegistry",
  "abi": [
    {
      "constant": true,
      "inputs": [
        {
          "name": "",
          "type": "address"
        },
        {
          "name": "",
          "type": "address"
        },
        {
          "name": "",
          "type": "bytes32"
        }
      ],
      "name": "registry",
      "outputs": [
        {
          "name": "",
          "type": "bytes32"
        }
      ],
      "payable": false,
      "stateMutability": "view",
      "type": "function"
    },
    {
      "anonymous": false,
      "inputs": [
        {
          "indexed": true,
          "name": "issuer",
          "type": "address"
        },
        {
          "indexed": true,
          "name": "subject",
          "type": "address"
        },
        {
          "indexed": true,
          "name": "key",
          "type": "bytes32"
        },
        {
          "indexed": false,
          "name": "value",
          "type": "bytes32"
        },
        {
          "indexed": false,
          "name": "updatedAt",
          "type": "uint256"
        }
      ],
      "name": "ClaimSet",
      "type": "event"
    },
    {
      "anonymous": false,
      "inputs": [
        {
          "indexed": true,
          "name": "issuer",
          "type": "address"
        },
        {
          "indexed": true,
          "name": "subject",
          "type": "address"
        },
        {
          "indexed": true,
          "name": "key",
          "type": "bytes32"
        },
        {
          "indexed": false,
          "name": "removedAt",
          "type": "uint256"
        }
      ],
      "name": "ClaimRemoved",
      "type": "event"
    },
    {
      "constant": false,
      "inputs": [
        {
          "name": "subject",
          "type": "address"
        },
        {
          "name": "key",
          "type": "bytes32"
        },
        {
          "name": "value",
          "type": "bytes32"
        }
      ],
      "name": "setClaim",
      "outputs": [],
      "payable": false,
      "stateMutability": "nonpayable",
      "type": "function"
    },
    {
      "constant": false,
      "inputs": [
        {
          "name": "key",
          "type": "bytes32"
        },
        {
          "name": "value",
          "type": "bytes32"
        }
      ],
      "name": "setSelfClaim",
      "outputs": [],
      "payable": false,
      "stateMutability": "nonpayable",
      "type": "function"
    },
    {
      "constant": true,
      "inputs": [
        {
          "name": "issuer",
          "type": "address"
        },
        {
          "name": "subject",
          "type": "address"
        },
        {
          "name": "key",
          "type": "bytes32"
        }
      ],
      "name": "getClaim",
      "outputs": [
        {
          "name": "",
          "type": "bytes32"
        }
      ],
      "payable": false,
      "stateMutability": "view",
      "type": "function"
    },
    {
      "constant": false,
      "inputs": [
        {
          "name": "issuer",
          "type": "address"
        },
        {
          "name": "subject",
          "type": "address"
        },
        {
          "name": "key",
          "type": "bytes32"
        }
      ],
      "name": "removeClaim",
      "outputs": [],
      "payable": false,
      "stateMutability": "nonpayable",
      "type": "function"
    }
  ],
  "bytecode": "0x608060405234801561001057600080fd5b5061033b806100206000396000f3fe608060405234801561001057600080fd5b50600436106100575760003560e01c80639155b01a1461005c5780639918925d14610081578063c7508ec7146100b3578063e1661eff146100e9578063e6d970aa14610131575b600080fd5b61007f6004803603604081101561007257600080fd5b5080359060200135610167565b005b61007f6004803603606081101561009757600080fd5b506001600160a01b038135169060208101359060400135610176565b61007f600480360360608110156100c957600080fd5b506001600160a01b038135811691602081013590911690604001356101e5565b61011f600480360360608110156100ff57600080fd5b506001600160a01b0381358116916020810135909116906040013561029b565b60408051918252519081900360200190f35b61011f6004803603606081101561014757600080fd5b506001600160a01b038135811691602081013590911690604001356102cb565b610172338383610176565b5050565b336000818152602081815260408083206001600160a01b0388168085529083528184208785528352928190208590558051858152429281019290925280518694927f8c9f893548e8429f9352aba6698e6f4dca2e390604f6e8c5881a7a505d94ae5092908290030190a4505050565b336001600160a01b0384161461022f57604051600160e51b62461bcd0281526004018080602001828103825260228152602001806102ee6022913960400191505060405180910390fd5b6001600160a01b038084166000908152602081815260408083209386168084529382528083208584528252808320929092558151428152915184939233927f7bc046ef9f2fccd4c99778d7e0fbed67ddb16e63e1a266894769de9516b8039a92918290030190a4505050565b6001600160a01b039283166000908152602081815260408083209490951682529283528381209181529152205490565b600060208181529381526040808220855292815282812090935282529020548156fe4572726f723a20436c61696d20697373756572206d7573742062652063616c6c6572a165627a7a723058204985a90713ffa620ec213f6ae1de4140723f6aa9e3b7214ffde12696be9460cd0029",
  "source": "pragma solidity ^0.5.0;\n\n/**\n * @title Ethereum Claims Registry (ERC780)\n */\n\ncontract EthereumClaimsRegistry {\n\n    mapping(address => mapping(address => mapping(bytes32 => bytes32))) public registry;\n\n    event ClaimSet(\n        address indexed issuer,\n        address indexed subject,\n        bytes32 indexed key,\n        bytes32 value,\n        uint updatedAt);\n\n    event ClaimRemoved(\n        address indexed issuer,\n        address indexed subject,\n        bytes32 indexed key,\n        uint removedAt);\n\n    // create or update claims\n    function setClaim(address subject, bytes32 key, bytes32 value) public {\n        registry[msg.sender][subject][key] = value;\n        emit ClaimSet(msg.sender, subject, key, value, now);\n    }\n\n    function setSelfClaim(bytes32 key, bytes32 value) public {\n        setClaim(msg.sender, key, value);\n    }\n\n    function getClaim(address issuer, address subject, bytes32 key) public view returns(bytes32) {\n        return registry[issuer][subject][key];\n    }\n\n    function removeClaim(address issuer, address subject, bytes32 key) public {\n        require(msg.sender == issuer,\"Error: Claim issuer must be caller\");\n        delete registry[issuer][subject][key];\n        emit ClaimRemoved(msg.sender, subject, key, now);\n    }\n}",
  "sourcePath": "/home/svm/src/EEA/Trusted-Token/contracts/EthereumClaimsRegistry.sol",
  "compiler": {
    "name": "solc",
    "version": "0.5.8+commit.23d335f2.Emscripten.clang"
  },
  "schemaVersion": "3.0.12",
  "updatedAt": "2019-09-10T14:20:38.312Z",
  "devdoc": {
    "methods": {},
    "title": "Ethereum Claims Registry (ERC780)"
  },
  "userdoc": {
    "methods": {}
  }
}