{
  "contractName": "EthereumDIDRegistry",
  "abi": [
    {
      "constant": true,
      "inputs": [
        {
          "name": "",
          "type": "address"
        }
      ],
      "name": "owners",
      "outputs": [
        {
          "name": "",
          "type": "address"
        }
      ],
      "payable": false,
      "stateMutability": "view",
      "type": "function"
    },
    {
      "constant": true,
      "inputs": [
        {
          "name": "",
          "type": "address"
        },
        {
          "name": "",
          "type": "bytes32"
        },
        {
          "name": "",
          "type": "address"
        }
      ],
      "name": "delegates",
      "outputs": [
        {
          "name": "",
          "type": "uint256"
        }
      ],
      "payable": false,
      "stateMutability": "view",
      "type": "function"
    },
    {
      "constant": true,
      "inputs": [
        {
          "name": "",
          "type": "address"
        }
      ],
      "name": "nonce",
      "outputs": [
        {
          "name": "",
          "type": "uint256"
        }
      ],
      "payable": false,
      "stateMutability": "view",
      "type": "function"
    },
    {
      "constant": true,
      "inputs": [
        {
          "name": "",
          "type": "address"
        }
      ],
      "name": "changed",
      "outputs": [
        {
          "name": "",
          "type": "uint256"
        }
      ],
      "payable": false,
      "stateMutability": "view",
      "type": "function"
    },
    {
      "anonymous": false,
      "inputs": [
        {
          "indexed": true,
          "name": "identity",
          "type": "address"
        },
        {
          "indexed": false,
          "name": "owner",
          "type": "address"
        },
        {
          "indexed": false,
          "name": "previousChange",
          "type": "uint256"
        }
      ],
      "name": "DIDOwnerChanged",
      "type": "event"
    },
    {
      "anonymous": false,
      "inputs": [
        {
          "indexed": true,
          "name": "identity",
          "type": "address"
        },
        {
          "indexed": false,
          "name": "delegateType",
          "type": "bytes32"
        },
        {
          "indexed": false,
          "name": "delegate",
          "type": "address"
        },
        {
          "indexed": false,
          "name": "validTo",
          "type": "uint256"
        },
        {
          "indexed": false,
          "name": "previousChange",
          "type": "uint256"
        }
      ],
      "name": "DIDDelegateChanged",
      "type": "event"
    },
    {
      "anonymous": false,
      "inputs": [
        {
          "indexed": true,
          "name": "identity",
          "type": "address"
        },
        {
          "indexed": false,
          "name": "name",
          "type": "bytes32"
        },
        {
          "indexed": false,
          "name": "value",
          "type": "bytes"
        },
        {
          "indexed": false,
          "name": "validTo",
          "type": "uint256"
        },
        {
          "indexed": false,
          "name": "previousChange",
          "type": "uint256"
        }
      ],
      "name": "DIDAttributeChanged",
      "type": "event"
    },
    {
      "constant": true,
      "inputs": [
        {
          "name": "identity",
          "type": "address"
        }
      ],
      "name": "identityOwner",
      "outputs": [
        {
          "name": "",
          "type": "address"
        }
      ],
      "payable": false,
      "stateMutability": "view",
      "type": "function"
    },
    {
      "constant": true,
      "inputs": [
        {
          "name": "identity",
          "type": "address"
        },
        {
          "name": "delegateType",
          "type": "bytes32"
        },
        {
          "name": "delegate",
          "type": "address"
        }
      ],
      "name": "validDelegate",
      "outputs": [
        {
          "name": "",
          "type": "bool"
        }
      ],
      "payable": false,
      "stateMutability": "view",
      "type": "function"
    },
    {
      "constant": false,
      "inputs": [
        {
          "name": "identity",
          "type": "address"
        },
        {
          "name": "newOwner",
          "type": "address"
        }
      ],
      "name": "changeOwner",
      "outputs": [],
      "payable": false,
      "stateMutability": "nonpayable",
      "type": "function"
    },
    {
      "constant": false,
      "inputs": [
        {
          "name": "identity",
          "type": "address"
        },
        {
          "name": "sigV",
          "type": "uint8"
        },
        {
          "name": "sigR",
          "type": "bytes32"
        },
        {
          "name": "sigS",
          "type": "bytes32"
        },
        {
          "name": "newOwner",
          "type": "address"
        }
      ],
      "name": "changeOwnerSigned",
      "outputs": [],
      "payable": false,
      "stateMutability": "nonpayable",
      "type": "function"
    },
    {
      "constant": false,
      "inputs": [
        {
          "name": "identity",
          "type": "address"
        },
        {
          "name": "delegateType",
          "type": "bytes32"
        },
        {
          "name": "delegate",
          "type": "address"
        },
        {
          "name": "validity",
          "type": "uint256"
        }
      ],
      "name": "addDelegate",
      "outputs": [],
      "payable": false,
      "stateMutability": "nonpayable",
      "type": "function"
    },
    {
      "constant": false,
      "inputs": [
        {
          "name": "identity",
          "type": "address"
        },
        {
          "name": "sigV",
          "type": "uint8"
        },
        {
          "name": "sigR",
          "type": "bytes32"
        },
        {
          "name": "sigS",
          "type": "bytes32"
        },
        {
          "name": "delegateType",
          "type": "bytes32"
        },
        {
          "name": "delegate",
          "type": "address"
        },
        {
          "name": "validity",
          "type": "uint256"
        }
      ],
      "name": "addDelegateSigned",
      "outputs": [],
      "payable": false,
      "stateMutability": "nonpayable",
      "type": "function"
    },
    {
      "constant": false,
      "inputs": [
        {
          "name": "identity",
          "type": "address"
        },
        {
          "name": "delegateType",
          "type": "bytes32"
        },
        {
          "name": "delegate",
          "type": "address"
        }
      ],
      "name": "revokeDelegate",
      "outputs": [],
      "payable": false,
      "stateMutability": "nonpayable",
      "type": "function"
    },
    {
      "constant": false,
      "inputs": [
        {
          "name": "identity",
          "type": "address"
        },
        {
          "name": "sigV",
          "type": "uint8"
        },
        {
          "name": "sigR",
          "type": "bytes32"
        },
        {
          "name": "sigS",
          "type": "bytes32"
        },
        {
          "name": "delegateType",
          "type": "bytes32"
        },
        {
          "name": "delegate",
          "type": "address"
        }
      ],
      "name": "revokeDelegateSigned",
      "outputs": [],
      "payable": false,
      "stateMutability": "nonpayable",
      "type": "function"
    },
    {
      "constant": false,
      "inputs": [
        {
          "name": "identity",
          "type": "address"
        },
        {
          "name": "name",
          "type": "bytes32"
        },
        {
          "name": "value",
          "type": "bytes"
        },
        {
          "name": "validity",
          "type": "uint256"
        }
      ],
      "name": "setAttribute",
      "outputs": [],
      "payable": false,
      "stateMutability": "nonpayable",
      "type": "function"
    },
    {
      "constant": false,
      "inputs": [
        {
          "name": "identity",
          "type": "address"
        },
        {
          "name": "sigV",
          "type": "uint8"
        },
        {
          "name": "sigR",
          "type": "bytes32"
        },
        {
          "name": "sigS",
          "type": "bytes32"
        },
        {
          "name": "name",
          "type": "bytes32"
        },
        {
          "name": "value",
          "type": "bytes"
        },
        {
          "name": "validity",
          "type": "uint256"
        }
      ],
      "name": "setAttributeSigned",
      "outputs": [],
      "payable": false,
      "stateMutability": "nonpayable",
      "type": "function"
    },
    {
      "constant": false,
      "inputs": [
        {
          "name": "identity",
          "type": "address"
        },
        {
          "name": "name",
          "type": "bytes32"
        },
        {
          "name": "value",
          "type": "bytes"
        }
      ],
      "name": "revokeAttribute",
      "outputs": [],
      "payable": false,
      "stateMutability": "nonpayable",
      "type": "function"
    },
    {
      "constant": false,
      "inputs": [
        {
          "name": "identity",
          "type": "address"
        },
        {
          "name": "sigV",
          "type": "uint8"
        },
        {
          "name": "sigR",
          "type": "bytes32"
        },
        {
          "name": "sigS",
          "type": "bytes32"
        },
        {
          "name": "name",
          "type": "bytes32"
        },
        {
          "name": "value",
          "type": "bytes"
        }
      ],
      "name": "revokeAttributeSigned",
      "outputs": [],
      "payable": false,
      "stateMutability": "nonpayable",
      "type": "function"
    }
  ],
  "bytecode": "0x608060405234801561001057600080fd5b506114e4806100206000396000f3fe608060405234801561001057600080fd5b50600436106100ff5760003560e01c806380b29f7c11610097578063a7068d6611610066578063a7068d6614610580578063e476af5c146105ba578063f00d4b5d14610689578063f96d0f9f146106b7576100ff565b806380b29f7c1461048a5780638733d4e8146104c057806393072684146104e65780639c2c1b2b1461052f576100ff565b8063240cf1fa116100d3578063240cf1fa1461031a578063622b2a3c1461035f57806370ae92d2146103a95780637ad4b0a4146103cf576100ff565b8062c023da14610104578063022914a7146101bf5780630d44625b14610201578063123b5e9814610249575b600080fd5b6101bd6004803603606081101561011a57600080fd5b6001600160a01b0382351691602081013591810190606081016040820135600160201b81111561014957600080fd5b82018360208201111561015b57600080fd5b803590602001918460018302840111600160201b8311171561017c57600080fd5b91908080601f0160208091040260200160405190810160405280939291908181526020018383808284376000920191909152509295506106dd945050505050565b005b6101e5600480360360208110156101d557600080fd5b50356001600160a01b03166106ee565b604080516001600160a01b039092168252519081900360200190f35b6102376004803603606081101561021757600080fd5b506001600160a01b03813581169160208101359160409091013516610709565b60408051918252519081900360200190f35b6101bd600480360360e081101561025f57600080fd5b6001600160a01b038235169160ff602082013516916040820135916060810135916080820135919081019060c0810160a0820135600160201b8111156102a457600080fd5b8201836020820111156102b657600080fd5b803590602001918460018302840111600160201b831117156102d757600080fd5b91908080601f016020809104026020016040519081016040528093929190818152602001838380828437600092019190915250929550509135925061072c915050565b6101bd600480360360a081101561033057600080fd5b506001600160a01b03813581169160ff60208201351691604082013591606081013591608090910135166108a6565b6103956004803603606081101561037557600080fd5b506001600160a01b03813581169160208101359160409091013516610970565b604080519115158252519081900360200190f35b610237600480360360208110156103bf57600080fd5b50356001600160a01b03166109c2565b6101bd600480360360808110156103e557600080fd5b6001600160a01b0382351691602081013591810190606081016040820135600160201b81111561041457600080fd5b82018360208201111561042657600080fd5b803590602001918460018302840111600160201b8311171561044757600080fd5b91908080601f01602080910402602001604051908101604052809392919081815260200183838082843760009201919091525092955050913592506109d4915050565b6101bd600480360360608110156104a057600080fd5b506001600160a01b038135811691602081013591604090910135166109e7565b6101e5600480360360208110156104d657600080fd5b50356001600160a01b03166109f3565b6101bd600480360360c08110156104fc57600080fd5b506001600160a01b03813581169160ff6020820135169160408201359160608101359160808201359160a0013516610a27565b6101bd600480360360e081101561054557600080fd5b506001600160a01b03813581169160ff6020820135169160408201359160608101359160808201359160a08101359091169060c00135610b09565b6101bd6004803603608081101561059657600080fd5b506001600160a01b0381358116916020810135916040820135169060600135610bdc565b6101bd600480360360c08110156105d057600080fd5b6001600160a01b038235169160ff602082013516916040820135916060810135916080820135919081019060c0810160a0820135600160201b81111561061557600080fd5b82018360208201111561062757600080fd5b803590602001918460018302840111600160201b8311171561064857600080fd5b91908080601f016020809104026020016040519081016040528093929190818152602001838380828437600092019190915250929550610be9945050505050565b6101bd6004803603604081101561069f57600080fd5b506001600160a01b0381358116916020013516610d50565b610237600480360360208110156106cd57600080fd5b50356001600160a01b0316610d5f565b6106e983338484610d71565b505050565b6000602081905290815260409020546001600160a01b031681565b600160209081526000938452604080852082529284528284209052825290205481565b6000600160f81b60190281306003826107448d6109f3565b6001600160a01b03166001600160a01b03168152602001908152602001600020548b88888860405160200180896001600160f81b0319166001600160f81b0319168152600101886001600160f81b0319166001600160f81b0319168152600101876001600160a01b03166001600160a01b031660601b8152601401868152602001856001600160a01b03166001600160a01b031660601b8152601401807f7365744174747269627574650000000000000000000000000000000000000000815250600c0184815260200183805190602001908083835b602083106108395780518252601f19909201916020918201910161081a565b6001836020036101000a0380198251168184511680821785525050505050509050018281526020019850505050505050505060405160208183030381529060405280519060200120905061089c886108948a8a8a8a87610ed6565b868686610fdc565b5050505050505050565b6000600160f81b60190281306003826108be8b6109f3565b6001600160a01b03908116825260208083019390935260409182016000205482516001600160f81b031997881681860152959096166021860152928316606090811b602286015260368501959095528a8316851b6056850152600160a91b6a31b430b733b2a7bbb732b902606a85015291861690931b6075830152805160698184030181526089909201905280519101209050610968866109628188888887610ed6565b84611143565b505050505050565b6001600160a01b03808416600090815260016020908152604080832081518084018890528251808203850181529083018352805190840120845282528083209385168352929052205442109392505050565b60036020526000908152604090205481565b6109e18433858585610fdc565b50505050565b6106e983338484611233565b6001600160a01b038082166000908152602081905260408120549091168015610a1d579050610a22565b829150505b919050565b6000600160f81b6019028130600382610a3f8c6109f3565b6001600160a01b03908116825260208083019390935260409182016000205482516001600160f81b031997881681860152959096166021860152928316606090811b602286015260368501959095528b8316851b60568501527f7265766f6b6544656c6567617465000000000000000000000000000000000000606a8501526078840188905291861690931b60988301528051608c81840301815260ac909201905280519101209050610b0087610af98189898987610ed6565b8585611233565b50505050505050565b6000600160f81b6019028130600382610b218d6109f3565b6001600160a01b03908116825260208083019390935260409182016000205482516001600160f81b031997881681860152959096166021860152928316606090811b602286015260368501959095528c8316851b6056850152600160a81b6a61646444656c656761746502606a8501526075840189905291871690931b609583015260a98083018690528151808403909101815260c990920190528051910120905061089c88610bd4818a8a8a87610ed6565b868686611364565b6109e18433858585611364565b6000600160f81b6019028130600382610c018c6109f3565b6001600160a01b03166001600160a01b03168152602001908152602001600020548a878760405160200180886001600160f81b0319166001600160f81b0319168152600101876001600160f81b0319166001600160f81b0319168152600101866001600160a01b03166001600160a01b031660601b8152601401858152602001846001600160a01b03166001600160a01b031660601b8152601401807f7265766f6b654174747269627574650000000000000000000000000000000000815250600f0183815260200182805190602001908083835b60208310610cf55780518252601f199092019160209182019101610cd6565b6001836020036101000a038019825116818451168082178552505050505050905001975050505050505050604051602081830303815290604052805190602001209050610b0087610d498989898987610ed6565b8585610d71565b610d5b823383611143565b5050565b60026020526000908152604090205481565b8383610d7c826109f3565b6001600160a01b0316816001600160a01b031614610dd25760408051600160e51b62461bcd02815260206004820152601a6024820152600080516020611499833981519152604482015290519081900360640190fd5b856001600160a01b03167f18ab6b2ae3d64306c00ce663125f2bd680e441a098de1635bd7ad8b0d44965e485856000600260008c6001600160a01b03166001600160a01b03168152602001908152602001600020546040518085815260200180602001848152602001838152602001828103825285818151815260200191508051906020019080838360005b83811015610e76578181015183820152602001610e5e565b50505050905090810190601f168015610ea35780820380516001836020036101000a031916815260200191505b509550505050505060405180910390a25050506001600160a01b0390921660009081526002602052604090204390555050565b60008060018387878760405160008152602001604052604051808581526020018460ff1660ff1681526020018381526020018281526020019450505050506020604051602081039080840390855afa158015610f36573d6000803e3d6000fd5b505050602060405103519050610f4b876109f3565b6001600160a01b0316816001600160a01b031614610fb35760408051600160e51b62461bcd02815260206004820152601a60248201527f4572726f723a205369676e6572206973206e6f74204f776e6572000000000000604482015290519081900360640190fd5b6001600160a01b0381166000908152600360205260409020805460010190559695505050505050565b8484610fe7826109f3565b6001600160a01b0316816001600160a01b03161461103d5760408051600160e51b62461bcd02815260206004820152601a6024820152600080516020611499833981519152604482015290519081900360640190fd5b866001600160a01b03167f18ab6b2ae3d64306c00ce663125f2bd680e441a098de1635bd7ad8b0d44965e48686864201600260008d6001600160a01b03166001600160a01b03168152602001908152602001600020546040518085815260200180602001848152602001838152602001828103825285818151815260200191508051906020019080838360005b838110156110e25781810151838201526020016110ca565b50505050905090810190601f16801561110f5780820380516001836020036101000a031916815260200191505b509550505050505060405180910390a25050506001600160a01b039093166000908152600260205260409020439055505050565b828261114e826109f3565b6001600160a01b0316816001600160a01b0316146111a45760408051600160e51b62461bcd02815260206004820152601a6024820152600080516020611499833981519152604482015290519081900360640190fd5b6001600160a01b0385811660008181526020818152604080832080546001600160a01b0319169589169586179055600282529182902054825194855290840152805191927f38a5a6e68f30ed1ab45860a4afb34bcb2fc00f22ca462d249b8a8d40cda6f7a3929081900390910190a2505050506001600160a01b03166000908152600260205260409020439055565b838361123e826109f3565b6001600160a01b0316816001600160a01b0316146112945760408051600160e51b62461bcd02815260206004820152601a6024820152600080516020611499833981519152604482015290519081900360640190fd5b6001600160a01b03808716600081815260016020908152604080832081518084018b90528251808203850181528184018085528151918601919091208652918452828520968a16808652968452828520429081905586865260029094529382902054908a90526060840195909552608083019190915260a0820193909352915190917f5a5084339536bcab65f20799fcc58724588145ca054bd2be626174b27ba156f7919081900360c00190a25050506001600160a01b0390921660009081526002602052604090204390555050565b848461136f826109f3565b6001600160a01b0316816001600160a01b0316146113c55760408051600160e51b62461bcd02815260206004820152601a6024820152600080516020611499833981519152604482015290519081900360640190fd5b6001600160a01b03808816600081815260016020908152604080832081518084018c90528251808203850181528184018085528151918601919091208652918452828520968b16808652968452828520428b019081905586865260029094529382902054908b90526060840195909552608083019190915260a0820193909352915190917f5a5084339536bcab65f20799fcc58724588145ca054bd2be626174b27ba156f7919081900360c00190a25050506001600160a01b03909316600090815260026020526040902043905550505056fe4572726f723a204f776e6572206f6e6c792066756e6374696f6e000000000000a165627a7a72305820a9c25d6e92b1512469f621aaa26d6b18977659979f7839ecb9cd755d19ac7cec0029",
  "source": "pragma solidity ^0.5.0;\n\n\n/**\n * @title Ethereum DID Registry (ERC1056)\n */\n\ncontract EthereumDIDRegistry {\n\n  mapping(address => address) public owners;\n  mapping(address => mapping(bytes32 => mapping(address => uint))) public delegates;\n  mapping(address => uint) public changed;\n  mapping(address => uint) public nonce;\n\n  modifier onlyOwner(address identity, address actor) {\n    require (actor == identityOwner(identity), \"Error: Owner only function\");\n    _;\n  }\n\n  event DIDOwnerChanged(\n    address indexed identity,\n    address owner,\n    uint previousChange\n  );\n\n  event DIDDelegateChanged(\n    address indexed identity,\n    bytes32 delegateType,\n    address delegate,\n    uint validTo,\n    uint previousChange\n  );\n\n  event DIDAttributeChanged(\n    address indexed identity,\n    bytes32 name,\n    bytes value,\n    uint validTo,\n    uint previousChange\n  );\n\n  function identityOwner(address identity) public view returns(address) {\n     address owner = owners[identity];\n     if (owner != address(0)) {\n       return owner;\n     }\n     return identity;\n  }\n\n  function checkSignature(address identity, uint8 sigV, bytes32 sigR, bytes32 sigS, bytes32 hash) internal returns(address) {\n    address signer = ecrecover(hash, sigV, sigR, sigS);\n    require(signer == identityOwner(identity), \"Error: Signer is not Owner\");\n    nonce[signer]++;\n    return signer;\n  }\n\n  function validDelegate(address identity, bytes32 delegateType, address delegate) public view returns(bool) {\n    uint validity = delegates[identity][keccak256(abi.encodePacked(delegateType))][delegate];\n    return (validity > now);\n  }\n\n  function changeOwner(address identity, address actor, address newOwner) internal onlyOwner(identity, actor) {\n    owners[identity] = newOwner;\n    emit DIDOwnerChanged(identity, newOwner, changed[identity]);\n    changed[identity] = block.number;\n  }\n\n  function changeOwner(address identity, address newOwner) public {\n    changeOwner(identity, msg.sender, newOwner);\n  }\n\n  function changeOwnerSigned(address identity, uint8 sigV, bytes32 sigR, bytes32 sigS, address newOwner) public {\n    bytes32 hash = keccak256(abi.encodePacked(byte(0x19), byte(0), this, nonce[identityOwner(identity)], identity, \"changeOwner\", newOwner));\n    changeOwner(identity, checkSignature(identity, sigV, sigR, sigS, hash), newOwner);\n  }\n\n  function addDelegate(address identity, address actor, bytes32 delegateType, address delegate, uint validity\n  ) internal onlyOwner(identity, actor) {\n    delegates[identity][keccak256(abi.encodePacked(delegateType))][delegate] = now + validity;\n    emit DIDDelegateChanged(identity, delegateType, delegate, now + validity, changed[identity]);\n    changed[identity] = block.number;\n  }\n\n  function addDelegate(address identity, bytes32 delegateType, address delegate, uint validity) public {\n    addDelegate(identity, msg.sender, delegateType, delegate, validity);\n  }\n\n  function addDelegateSigned(address identity, uint8 sigV, bytes32 sigR, bytes32 sigS, bytes32 delegateType, address delegate, uint validity\n  ) public {\n    bytes32 hash = keccak256(abi.encodePacked(byte(0x19), byte(0), this, nonce[identityOwner(identity)],\n    identity, \"addDelegate\", delegateType, delegate, validity));\n    addDelegate(identity, checkSignature(identity, sigV, sigR, sigS, hash), delegateType, delegate, validity);\n  }\n\n  function revokeDelegate(address identity, address actor, bytes32 delegateType, address delegate) internal onlyOwner(identity, actor) {\n    delegates[identity][keccak256(abi.encodePacked(delegateType))][delegate] = now;\n    emit DIDDelegateChanged(identity, delegateType, delegate, now, changed[identity]);\n    changed[identity] = block.number;\n  }\n\n  function revokeDelegate(address identity, bytes32 delegateType, address delegate) public {\n    revokeDelegate(identity, msg.sender, delegateType, delegate);\n  }\n\n  function revokeDelegateSigned(address identity, uint8 sigV, bytes32 sigR, bytes32 sigS, bytes32 delegateType, address delegate) public {\n    bytes32 hash = keccak256(abi.encodePacked(byte(0x19), byte(0), this, nonce[identityOwner(identity)],\n    identity, \"revokeDelegate\", delegateType, delegate));\n    revokeDelegate(identity, checkSignature(identity, sigV, sigR, sigS, hash), delegateType, delegate);\n  }\n\n  function setAttribute(address identity, address actor, bytes32 name, bytes memory value, uint validity ) internal onlyOwner(identity, actor) {\n    emit DIDAttributeChanged(identity, name, value, now + validity, changed[identity]);\n    changed[identity] = block.number;\n  }\n\n  function setAttribute(address identity, bytes32 name, bytes memory value, uint validity) public {\n    setAttribute(identity, msg.sender, name, value, validity);\n  }\n\n  function setAttributeSigned(address identity, uint8 sigV, bytes32 sigR, bytes32 sigS, bytes32 name, bytes memory value, uint validity) public {\n    bytes32 hash = keccak256(abi.encodePacked(byte(0x19), byte(0), this, nonce[identityOwner(identity)],\n    identity, \"setAttribute\", name, value, validity));\n    setAttribute(identity, checkSignature(identity, sigV, sigR, sigS, hash), name, value, validity);\n  }\n\n  function revokeAttribute(address identity, address actor, bytes32 name, bytes memory value ) internal onlyOwner(identity, actor) {\n    emit DIDAttributeChanged(identity, name, value, 0, changed[identity]);\n    changed[identity] = block.number;\n  }\n\n  function revokeAttribute(address identity, bytes32 name, bytes memory value) public {\n    revokeAttribute(identity, msg.sender, name, value);\n  }\n\n function revokeAttributeSigned(address identity, uint8 sigV, bytes32 sigR, bytes32 sigS, bytes32 name, bytes memory value) public {\n    bytes32 hash = keccak256(abi.encodePacked(byte(0x19), byte(0), this, nonce[identityOwner(identity)],\n    identity, \"revokeAttribute\", name, value)); \n    revokeAttribute(identity, checkSignature(identity, sigV, sigR, sigS, hash), name, value);\n  }\n\n}",
  "sourcePath": "/home/svm/src/EEA/Trusted-Token/contracts/EthereumDIDRegistry.sol",
  "compiler": {
    "name": "solc",
    "version": "0.5.8+commit.23d335f2.Emscripten.clang"
  },
  "schemaVersion": "3.0.12",
  "updatedAt": "2019-09-10T14:20:38.365Z",
  "devdoc": {
    "methods": {},
    "title": "Ethereum DID Registry (ERC1056)"
  },
  "userdoc": {
    "methods": {}
  }
}