{
  "contractName": "NonTransferableToken",
  "abi": [
    {
      "anonymous": false,
      "inputs": [
        {
          "indexed": false,
          "name": "name",
          "type": "bytes"
        },
        {
          "indexed": true,
          "name": "from",
          "type": "address"
        },
        {
          "indexed": true,
          "name": "operator",
          "type": "address"
        },
        {
          "indexed": false,
          "name": "amount",
          "type": "uint256"
        },
        {
          "indexed": false,
          "name": "data",
          "type": "bytes"
        }
      ],
      "name": "ForbiddenOperation",
      "type": "event"
    },
    {
      "constant": false,
      "inputs": [
        {
          "name": "recipient",
          "type": "address"
        },
        {
          "name": "amount",
          "type": "uint256"
        },
        {
          "name": "data",
          "type": "bytes"
        }
      ],
      "name": "send",
      "outputs": [],
      "payable": false,
      "stateMutability": "nonpayable",
      "type": "function"
    },
    {
      "constant": false,
      "inputs": [
        {
          "name": "recipient",
          "type": "address"
        },
        {
          "name": "amount",
          "type": "uint256"
        }
      ],
      "name": "transfer",
      "outputs": [
        {
          "name": "",
          "type": "bool"
        }
      ],
      "payable": false,
      "stateMutability": "nonpayable",
      "type": "function"
    },
    {
      "constant": false,
      "inputs": [
        {
          "name": "holder",
          "type": "address"
        },
        {
          "name": "recipient",
          "type": "address"
        },
        {
          "name": "amount",
          "type": "uint256"
        }
      ],
      "name": "transferFrom",
      "outputs": [
        {
          "name": "",
          "type": "bool"
        }
      ],
      "payable": false,
      "stateMutability": "nonpayable",
      "type": "function"
    },
    {
      "constant": false,
      "inputs": [
        {
          "name": "spender",
          "type": "address"
        },
        {
          "name": "value",
          "type": "uint256"
        }
      ],
      "name": "approve",
      "outputs": [
        {
          "name": "",
          "type": "bool"
        }
      ],
      "payable": false,
      "stateMutability": "nonpayable",
      "type": "function"
    },
    {
      "constant": false,
      "inputs": [
        {
          "name": "amount",
          "type": "uint256"
        },
        {
          "name": "data",
          "type": "bytes"
        }
      ],
      "name": "burn",
      "outputs": [],
      "payable": false,
      "stateMutability": "nonpayable",
      "type": "function"
    },
    {
      "constant": false,
      "inputs": [
        {
          "name": "operator",
          "type": "address"
        }
      ],
      "name": "authorizeOperator",
      "outputs": [],
      "payable": false,
      "stateMutability": "nonpayable",
      "type": "function"
    },
    {
      "constant": false,
      "inputs": [
        {
          "name": "operator",
          "type": "address"
        }
      ],
      "name": "revokeOperator",
      "outputs": [],
      "payable": false,
      "stateMutability": "nonpayable",
      "type": "function"
    }
  ],
  "bytecode": "0x608060405234801561001057600080fd5b506107f0806100206000396000f3fe608060405234801561001057600080fd5b506004361061007d5760003560e01c80639bd9bbc61161005b5780639bd9bbc614610120578063a9059cbb146101a5578063fad8b32a146101d1578063fe9d9303146101f75761007d565b8063095ea7b31461008257806323b872dd146100c2578063959b8c3f146100f8575b600080fd5b6100ae6004803603604081101561009857600080fd5b506001600160a01b03813516906020013561026e565b604080519115158252519081900360200190f35b6100ae600480360360608110156100d857600080fd5b506001600160a01b0381358116916020810135909116906040013561030c565b61011e6004803603602081101561010e57600080fd5b50356001600160a01b03166103c0565b005b61011e6004803603606081101561013657600080fd5b6001600160a01b038235169160208101359181019060608101604082013564010000000081111561016657600080fd5b82018360208201111561017857600080fd5b8035906020019184600183028401116401000000008311171561019a57600080fd5b50909250905061046a565b6100ae600480360360408110156101bb57600080fd5b506001600160a01b038135169060200135610535565b61011e600480360360208110156101e757600080fd5b50356001600160a01b03166105d4565b61011e6004803603604081101561020d57600080fd5b8135919081019060408101602082013564010000000081111561022f57600080fd5b82018360208201111561024157600080fd5b8035906020019184600183028401116401000000008311171561026357600080fd5b50909250905061067e565b60408051602081018390526060808252600790820152600160c81b66617070726f766502608082015260a0818301819052600090820181905291516001600160a01b0385169133916000805160206107858339815191529181900360e00190a360408051600160e51b62461bcd02815260206004820152601d60248201526000805160206107a5833981519152604482015290519081900360640190fd5b60408051602081018390526060808252600c908201527f7472616e7366657246726f6d0000000000000000000000000000000000000000608082015260a0818301819052600090820181905291516001600160a01b0380861692908716916000805160206107858339815191529181900360e00190a360408051600160e51b62461bcd02815260206004820152601d60248201526000805160206107a5833981519152604482015290519081900360640190fd5b6040805160006020820181905260608083526011908301527f617574686f72697a654f70657261746f72000000000000000000000000000000608083015260a082840181905282015290516001600160a01b0383169133916000805160206107858339815191529181900360e00190a3604051600160e51b62461bcd02815260040180806020018281038252602881526020018061075d6028913960400191505060405180910390fd5b836001600160a01b0316336001600160a01b031660008051602061078583398151915285858560405180806020018581526020018060200183810383526004815260200180600160e21b631cd95b99028152506020018381038252858582818152602001925080828437600083820152604051601f909101601f191690920182900397509095505050505050a360408051600160e51b62461bcd02815260206004820152601d60248201526000805160206107a5833981519152604482015290519081900360640190fd5b60408051602081018390526060808252600890820152600160c11b673a3930b739b332b902608082015260a0818301819052600090820181905291516001600160a01b0385169133916000805160206107858339815191529181900360e00190a360408051600160e51b62461bcd02815260206004820152601d60248201526000805160206107a5833981519152604482015290519081900360640190fd5b604080516000602082018190526060808352600e908301527f7265766f6b654f70657261746f72000000000000000000000000000000000000608083015260a082840181905282015290516001600160a01b0383169133916000805160206107858339815191529181900360e00190a3604051600160e51b62461bcd02815260040180806020018281038252602881526020018061075d6028913960400191505060405180910390fd5b60006001600160a01b0316336001600160a01b031660008051602061078583398151915285858560405180806020018581526020018060200183810383526004815260200180600160e11b63313ab937028152506020018381038252858582818152602001925080828437600083820152604051601f909101601f191690920182900397509095505050505050a360408051600160e51b62461bcd02815260206004820152601960248201527f596f752063616e6e6f74206275726e2070656e616c7469657300000000000000604482015290519081900360640190fdfe596f752063616e6e6f74206368616e6765206f70657261746f7273206f662070656e616c74696573161b4785e99874352709f5b56d49e6b0db0cceb13274a2e7c11dff30e8f32334596f752063616e6e6f74207472616e736665722070656e616c74696573000000a165627a7a7230582039a6c6512c0498bd439986112cb45e6c13d504637fe7eb7dd2b50b800914537c0029",
  "source": "pragma solidity ^0.5.0;\n\n\n/**\n * @title EEA Non Transferable Token \n */\ncontract NonTransferableToken {\n\n    event ForbiddenOperation(bytes name, address indexed from, address indexed operator, uint256 amount, bytes data);\n\n\n    /// RESTRICTED METHODS, TOKEN HOLDERS ARE NOT ALLOWED TO CALL THEM\n\n    /**\n     * @dev See `IERC777.send`.\n     *\n     * Also emits a `Transfer` event for ERC20 compatibility.\n     */\n    function send(address recipient, uint256 amount, bytes calldata data) external {\n      emit ForbiddenOperation('send', msg.sender, recipient, amount, data);\n      revert(\"You cannot transfer penalties\");\n    }\n\n    /**\n     * @dev See `IERC20.transfer`.\n     *\n     * Unlike `send`, `recipient` is _not_ required to implement the `tokensReceived`\n     * interface if it is a contract.\n     *\n     * Also emits a `Sent` event.\n     */\n    function transfer(address recipient, uint256 amount) external returns (bool) {\n      emit ForbiddenOperation('transfer', msg.sender, recipient, amount, '');\n      revert(\"You cannot transfer penalties\");\n    }\n\n    /**\n    * @dev See `IERC20.transferFrom`.\n    *\n    * Note that operator and allowance concepts are orthogonal: operators cannot\n    * call `transferFrom` (unless they have allowance), and accounts with\n    * allowance cannot call `operatorSend` (unless they are operators).\n    *\n    * Emits `Sent`, `Transfer` and `Approval` events.\n    */\n    function transferFrom(address holder, address recipient, uint256 amount) external returns (bool) {\n      emit ForbiddenOperation('transferFrom', holder, recipient, amount, '');\n      revert(\"You cannot transfer penalties\");\n    }\n\n    /**\n     * @dev See `IERC20.approve`.\n     *\n     * Note that accounts cannot have allowance issued by their operators.\n     */\n    function approve(address spender, uint256 value) external returns (bool) {\n      emit ForbiddenOperation('approve', msg.sender, spender, value, '');\n      revert(\"You cannot transfer penalties\");\n    }\n\n    /**\n     * @dev See `IERC777.burn`.\n     *\n     * Also emits a `Transfer` event for ERC20 compatibility.\n     */\n    function burn(uint256 amount, bytes calldata data) external {\n      emit ForbiddenOperation('burn', msg.sender, address(0), amount, data);\n      revert(\"You cannot burn penalties\");\n    }\n\n    /**\n     * @dev See `IERC777.authorizeOperator`.\n     */\n    function authorizeOperator(address operator) external {\n      emit ForbiddenOperation('authorizeOperator', msg.sender, operator, 0, '');\n      revert(\"You cannot change operators of penalties\");\n    }\n\n    /**\n     * @dev See `IERC777.revokeOperator`.\n     */\n    function revokeOperator(address operator) external {\n      emit ForbiddenOperation('revokeOperator', msg.sender, operator, 0, '');\n      revert(\"You cannot change operators of penalties\");\n    }\n\n}\n",
  "sourcePath": "/home/svm/src/EEA/Trusted-Token/contracts/NonTransferableToken.sol",
  "compiler": {
    "name": "solc",
    "version": "0.5.8+commit.23d335f2.Emscripten.clang"
  },
  "schemaVersion": "3.0.12",
  "updatedAt": "2019-09-10T14:20:38.457Z",
  "devdoc": {
    "methods": {
      "approve(address,uint256)": {
        "details": "See `IERC20.approve`.     * Note that accounts cannot have allowance issued by their operators."
      },
      "authorizeOperator(address)": {
        "details": "See `IERC777.authorizeOperator`."
      },
      "burn(uint256,bytes)": {
        "details": "See `IERC777.burn`.     * Also emits a `Transfer` event for ERC20 compatibility."
      },
      "revokeOperator(address)": {
        "details": "See `IERC777.revokeOperator`."
      },
      "send(address,uint256,bytes)": {
        "details": "See `IERC777.send`.     * Also emits a `Transfer` event for ERC20 compatibility."
      },
      "transfer(address,uint256)": {
        "details": "See `IERC20.transfer`.     * Unlike `send`, `recipient` is _not_ required to implement the `tokensReceived` interface if it is a contract.     * Also emits a `Sent` event."
      },
      "transferFrom(address,address,uint256)": {
        "details": "See `IERC20.transferFrom`.    * Note that operator and allowance concepts are orthogonal: operators cannot call `transferFrom` (unless they have allowance), and accounts with allowance cannot call `operatorSend` (unless they are operators).    * Emits `Sent`, `Transfer` and `Approval` events."
      }
    },
    "title": "EEA Non Transferable Token "
  },
  "userdoc": {
    "methods": {}
  }
}