{
  "contractName": "ReputationToken",
  "abi": [
    {
      "constant": true,
      "inputs": [],
      "name": "defaultOperators",
      "outputs": [
        {
          "name": "",
          "type": "address[]"
        }
      ],
      "payable": false,
      "stateMutability": "view",
      "type": "function"
    },
    {
      "constant": true,
      "inputs": [],
      "name": "name",
      "outputs": [
        {
          "name": "",
          "type": "string"
        }
      ],
      "payable": false,
      "stateMutability": "view",
      "type": "function"
    },
    {
      "constant": false,
      "inputs": [
        {
          "name": "spender",
          "type": "address"
        },
        {
          "name": "value",
          "type": "uint256"
        }
      ],
      "name": "approve",
      "outputs": [
        {
          "name": "",
          "type": "bool"
        }
      ],
      "payable": false,
      "stateMutability": "nonpayable",
      "type": "function"
    },
    {
      "constant": true,
      "inputs": [],
      "name": "totalSupply",
      "outputs": [
        {
          "name": "",
          "type": "uint256"
        }
      ],
      "payable": false,
      "stateMutability": "view",
      "type": "function"
    },
    {
      "constant": false,
      "inputs": [
        {
          "name": "holder",
          "type": "address"
        },
        {
          "name": "recipient",
          "type": "address"
        },
        {
          "name": "amount",
          "type": "uint256"
        }
      ],
      "name": "transferFrom",
      "outputs": [
        {
          "name": "",
          "type": "bool"
        }
      ],
      "payable": false,
      "stateMutability": "nonpayable",
      "type": "function"
    },
    {
      "constant": true,
      "inputs": [],
      "name": "decimals",
      "outputs": [
        {
          "name": "",
          "type": "uint8"
        }
      ],
      "payable": false,
      "stateMutability": "pure",
      "type": "function"
    },
    {
      "constant": true,
      "inputs": [],
      "name": "granularity",
      "outputs": [
        {
          "name": "",
          "type": "uint256"
        }
      ],
      "payable": false,
      "stateMutability": "view",
      "type": "function"
    },
    {
      "constant": false,
      "inputs": [
        {
          "name": "sender",
          "type": "address"
        },
        {
          "name": "recipient",
          "type": "address"
        },
        {
          "name": "amount",
          "type": "uint256"
        },
        {
          "name": "data",
          "type": "bytes"
        },
        {
          "name": "operatorData",
          "type": "bytes"
        }
      ],
      "name": "operatorSend",
      "outputs": [],
      "payable": false,
      "stateMutability": "nonpayable",
      "type": "function"
    },
    {
      "constant": true,
      "inputs": [
        {
          "name": "tokenHolder",
          "type": "address"
        }
      ],
      "name": "balanceOf",
      "outputs": [
        {
          "name": "",
          "type": "uint256"
        }
      ],
      "payable": false,
      "stateMutability": "view",
      "type": "function"
    },
    {
      "constant": false,
      "inputs": [
        {
          "name": "operator",
          "type": "address"
        }
      ],
      "name": "authorizeOperator",
      "outputs": [],
      "payable": false,
      "stateMutability": "nonpayable",
      "type": "function"
    },
    {
      "constant": true,
      "inputs": [],
      "name": "symbol",
      "outputs": [
        {
          "name": "",
          "type": "string"
        }
      ],
      "payable": false,
      "stateMutability": "view",
      "type": "function"
    },
    {
      "constant": false,
      "inputs": [
        {
          "name": "recipient",
          "type": "address"
        },
        {
          "name": "amount",
          "type": "uint256"
        },
        {
          "name": "data",
          "type": "bytes"
        }
      ],
      "name": "send",
      "outputs": [],
      "payable": false,
      "stateMutability": "nonpayable",
      "type": "function"
    },
    {
      "constant": false,
      "inputs": [
        {
          "name": "recipient",
          "type": "address"
        },
        {
          "name": "amount",
          "type": "uint256"
        }
      ],
      "name": "transfer",
      "outputs": [
        {
          "name": "",
          "type": "bool"
        }
      ],
      "payable": false,
      "stateMutability": "nonpayable",
      "type": "function"
    },
    {
      "constant": true,
      "inputs": [
        {
          "name": "operator",
          "type": "address"
        },
        {
          "name": "tokenHolder",
          "type": "address"
        }
      ],
      "name": "isOperatorFor",
      "outputs": [
        {
          "name": "",
          "type": "bool"
        }
      ],
      "payable": false,
      "stateMutability": "view",
      "type": "function"
    },
    {
      "constant": true,
      "inputs": [
        {
          "name": "holder",
          "type": "address"
        },
        {
          "name": "spender",
          "type": "address"
        }
      ],
      "name": "allowance",
      "outputs": [
        {
          "name": "",
          "type": "uint256"
        }
      ],
      "payable": false,
      "stateMutability": "view",
      "type": "function"
    },
    {
      "constant": false,
      "inputs": [
        {
          "name": "operator",
          "type": "address"
        }
      ],
      "name": "revokeOperator",
      "outputs": [],
      "payable": false,
      "stateMutability": "nonpayable",
      "type": "function"
    },
    {
      "constant": false,
      "inputs": [
        {
          "name": "account",
          "type": "address"
        },
        {
          "name": "amount",
          "type": "uint256"
        },
        {
          "name": "data",
          "type": "bytes"
        },
        {
          "name": "operatorData",
          "type": "bytes"
        }
      ],
      "name": "operatorBurn",
      "outputs": [],
      "payable": false,
      "stateMutability": "nonpayable",
      "type": "function"
    },
    {
      "constant": false,
      "inputs": [
        {
          "name": "amount",
          "type": "uint256"
        },
        {
          "name": "data",
          "type": "bytes"
        }
      ],
      "name": "burn",
      "outputs": [],
      "payable": false,
      "stateMutability": "nonpayable",
      "type": "function"
    },
    {
      "inputs": [
        {
          "name": "defaultOperators",
          "type": "address[]"
        }
      ],
      "payable": false,
      "stateMutability": "nonpayable",
      "type": "constructor"
    },
    {
      "anonymous": false,
      "inputs": [
        {
          "indexed": false,
          "name": "name",
          "type": "bytes"
        },
        {
          "indexed": true,
          "name": "from",
          "type": "address"
        },
        {
          "indexed": true,
          "name": "operator",
          "type": "address"
        },
        {
          "indexed": false,
          "name": "amount",
          "type": "uint256"
        },
        {
          "indexed": false,
          "name": "data",
          "type": "bytes"
        }
      ],
      "name": "ForbiddenOperation",
      "type": "event"
    },
    {
      "anonymous": false,
      "inputs": [
        {
          "indexed": true,
          "name": "from",
          "type": "address"
        },
        {
          "indexed": true,
          "name": "to",
          "type": "address"
        },
        {
          "indexed": false,
          "name": "value",
          "type": "uint256"
        }
      ],
      "name": "Transfer",
      "type": "event"
    },
    {
      "anonymous": false,
      "inputs": [
        {
          "indexed": true,
          "name": "owner",
          "type": "address"
        },
        {
          "indexed": true,
          "name": "spender",
          "type": "address"
        },
        {
          "indexed": false,
          "name": "value",
          "type": "uint256"
        }
      ],
      "name": "Approval",
      "type": "event"
    },
    {
      "anonymous": false,
      "inputs": [
        {
          "indexed": true,
          "name": "operator",
          "type": "address"
        },
        {
          "indexed": true,
          "name": "from",
          "type": "address"
        },
        {
          "indexed": true,
          "name": "to",
          "type": "address"
        },
        {
          "indexed": false,
          "name": "amount",
          "type": "uint256"
        },
        {
          "indexed": false,
          "name": "data",
          "type": "bytes"
        },
        {
          "indexed": false,
          "name": "operatorData",
          "type": "bytes"
        }
      ],
      "name": "Sent",
      "type": "event"
    },
    {
      "anonymous": false,
      "inputs": [
        {
          "indexed": true,
          "name": "operator",
          "type": "address"
        },
        {
          "indexed": true,
          "name": "to",
          "type": "address"
        },
        {
          "indexed": false,
          "name": "amount",
          "type": "uint256"
        },
        {
          "indexed": false,
          "name": "data",
          "type": "bytes"
        },
        {
          "indexed": false,
          "name": "operatorData",
          "type": "bytes"
        }
      ],
      "name": "Minted",
      "type": "event"
    },
    {
      "anonymous": false,
      "inputs": [
        {
          "indexed": true,
          "name": "operator",
          "type": "address"
        },
        {
          "indexed": true,
          "name": "from",
          "type": "address"
        },
        {
          "indexed": false,
          "name": "amount",
          "type": "uint256"
        },
        {
          "indexed": false,
          "name": "data",
          "type": "bytes"
        },
        {
          "indexed": false,
          "name": "operatorData",
          "type": "bytes"
        }
      ],
      "name": "Burned",
      "type": "event"
    },
    {
      "anonymous": false,
      "inputs": [
        {
          "indexed": true,
          "name": "operator",
          "type": "address"
        },
        {
          "indexed": true,
          "name": "tokenHolder",
          "type": "address"
        }
      ],
      "name": "AuthorizedOperator",
      "type": "event"
    },
    {
      "anonymous": false,
      "inputs": [
        {
          "indexed": true,
          "name": "operator",
          "type": "address"
        },
        {
          "indexed": true,
          "name": "tokenHolder",
          "type": "address"
        }
      ],
      "name": "RevokedOperator",
      "type": "event"
    },
    {
      "constant": false,
      "inputs": [
        {
          "name": "account",
          "type": "address"
        },
        {
          "name": "amount",
          "type": "uint256"
        },
        {
          "name": "data",
          "type": "bytes"
        },
        {
          "name": "operatorData",
          "type": "bytes"
        }
      ],
      "name": "operatorMint",
      "outputs": [],
      "payable": false,
      "stateMutability": "nonpayable",
      "type": "function"
    }
  ],
  "bytecode": "0x6080604052600080546001600160a01b031916731820a4b7618bde71dce8cdc73aab6c95905fad241790553480156200003757600080fd5b506040516200239f3803806200239f833981018060405260208110156200005d57600080fd5b8101908080516401000000008111156200007657600080fd5b820160208101848111156200008a57600080fd5b8151856020820283011164010000000082111715620000a857600080fd5b5050604080518082018252600f81527f52657075746174696f6e546f6b656e000000000000000000000000000000000060208083019182528351808501909452600584527f454541525000000000000000000000000000000000000000000000000000000090840152815193965090945090925084916200012c9160039162000333565b5081516200014290600490602085019062000333565b50805162000158906005906020840190620003b8565b5060005b600554811015620001b857600160066000600584815481106200017b57fe5b6000918252602080832091909101546001600160a01b031683528201929092526040019020805460ff19169115159190911790556001016200015c565b5060008054604080517f455243373737546f6b656e0000000000000000000000000000000000000000008152815190819003600b0181207f29965a1d00000000000000000000000000000000000000000000000000000000825230600483018190526024830191909152604482015290516001600160a01b03909216926329965a1d9260648084019382900301818387803b1580156200025757600080fd5b505af11580156200026c573d6000803e3d6000fd5b505060008054604080517f4552433230546f6b656e000000000000000000000000000000000000000000008152815190819003600a0181207f29965a1d00000000000000000000000000000000000000000000000000000000825230600483018190526024830191909152604482015290516001600160a01b0390921694506329965a1d9350606480820193929182900301818387803b1580156200031057600080fd5b505af115801562000325573d6000803e3d6000fd5b505050505050505062000465565b828054600181600116156101000203166002900490600052602060002090601f016020900481019282601f106200037657805160ff1916838001178555620003a6565b82800160010185558215620003a6579182015b82811115620003a657825182559160200191906001019062000389565b50620003b49291506200041e565b5090565b82805482825590600052602060002090810192821562000410579160200282015b828111156200041057825182546001600160a01b0319166001600160a01b03909116178255602090920191600190910190620003d9565b50620003b49291506200043e565b6200043b91905b80821115620003b4576000815560010162000425565b90565b6200043b91905b80821115620003b45780546001600160a01b031916815560010162000445565b611f2a80620004756000396000f3fe608060405234801561001057600080fd5b50600436106101215760003560e01c8063959b8c3f116100ad578063d95b637111610071578063d95b637114610567578063dd62ed3e14610595578063fad8b32a146105c3578063fc673c4f146105e9578063fe9d9303146106bc57610121565b8063959b8c3f146103b757806395d89b41146103dd578063999de9cc146103e55780639bd9bbc6146104b8578063a9059cbb1461053b57610121565b806323b872dd116100f457806323b872dd14610255578063313ce5671461028b578063556f0dc7146102a957806362ad1b83146102b157806370a082311461039157610121565b806306e485381461012657806306fdde031461017e578063095ea7b3146101fb57806318160ddd1461023b575b600080fd5b61012e610731565b60408051602080825283518183015283519192839290830191858101910280838360005b8381101561016a578181015183820152602001610152565b505050509050019250505060405180910390f35b610186610793565b6040805160208082528351818301528351919283929083019185019080838360005b838110156101c05781810151838201526020016101a8565b50505050905090810190601f1680156101ed5780820380516001836020036101000a031916815260200191505b509250505060405180910390f35b6102276004803603604081101561021157600080fd5b506001600160a01b038135169060200135610820565b604080519115158252519081900360200190f35b6102436108be565b60408051918252519081900360200190f35b6102276004803603606081101561026b57600080fd5b506001600160a01b038135811691602081013590911690604001356108c4565b610293610978565b6040805160ff9092168252519081900360200190f35b61024361097d565b61038f600480360360a08110156102c757600080fd5b6001600160a01b03823581169260208101359091169160408201359190810190608081016060820135600160201b81111561030157600080fd5b82018360208201111561031357600080fd5b803590602001918460018302840111600160201b8311171561033457600080fd5b919390929091602081019035600160201b81111561035157600080fd5b82018360208201111561036357600080fd5b803590602001918460018302840111600160201b8311171561038457600080fd5b509092509050610982565b005b610243600480360360208110156103a757600080fd5b50356001600160a01b0316610a4d565b61038f600480360360208110156103cd57600080fd5b50356001600160a01b0316610a68565b610186610b12565b61038f600480360360808110156103fb57600080fd5b6001600160a01b0382351691602081013591810190606081016040820135600160201b81111561042a57600080fd5b82018360208201111561043c57600080fd5b803590602001918460018302840111600160201b8311171561045d57600080fd5b919390929091602081019035600160201b81111561047a57600080fd5b82018360208201111561048c57600080fd5b803590602001918460018302840111600160201b831117156104ad57600080fd5b509092509050610b73565b61038f600480360360608110156104ce57600080fd5b6001600160a01b0382351691602081013591810190606081016040820135600160201b8111156104fd57600080fd5b82018360208201111561050f57600080fd5b803590602001918460018302840111600160201b8311171561053057600080fd5b509092509050610c9a565b6102276004803603604081101561055157600080fd5b506001600160a01b038135169060200135610d65565b6102276004803603604081101561057d57600080fd5b506001600160a01b0381358116916020013516610e04565b610243600480360360408110156105ab57600080fd5b506001600160a01b0381358116916020013516610ea6565b61038f600480360360208110156105d957600080fd5b50356001600160a01b0316610ed1565b61038f600480360360808110156105ff57600080fd5b6001600160a01b0382351691602081013591810190606081016040820135600160201b81111561062e57600080fd5b82018360208201111561064057600080fd5b803590602001918460018302840111600160201b8311171561066157600080fd5b919390929091602081019035600160201b81111561067e57600080fd5b82018360208201111561069057600080fd5b803590602001918460018302840111600160201b831117156106b157600080fd5b509092509050610f7b565b61038f600480360360408110156106d257600080fd5b81359190810190604081016020820135600160201b8111156106f357600080fd5b82018360208201111561070557600080fd5b803590602001918460018302840111600160201b8311171561072657600080fd5b509092509050611039565b6060600580548060200260200160405190810160405280929190818152602001828054801561078957602002820191906000526020600020905b81546001600160a01b0316815260019091019060200180831161076b575b5050505050905090565b60038054604080516020601f60026000196101006001881615020190951694909404938401819004810282018101909252828152606093909290918301828280156107895780601f106107f457610100808354040283529160200191610789565b820191906000526020600020905b81548152906001019060200180831161080257509395945050505050565b60408051602081018390526060808252600790820152600160c81b66617070726f766502608082015260a0818301819052600090820181905291516001600160a01b038516913391600080516020611e468339815191529181900360e00190a360408051600160e51b62461bcd02815260206004820152601d6024820152600080516020611e66833981519152604482015290519081900360640190fd5b60025490565b60408051602081018390526060808252600c908201527f7472616e7366657246726f6d0000000000000000000000000000000000000000608082015260a0818301819052600090820181905291516001600160a01b038086169290871691600080516020611e468339815191529181900360e00190a360408051600160e51b62461bcd02815260206004820152601d6024820152600080516020611e66833981519152604482015290519081900360640190fd5b601290565b600190565b61098c3388610e04565b6109ca57604051600160e51b62461bcd02815260040180806020018281038252602c815260200180611ed3602c913960400191505060405180910390fd5b610a443388888888888080601f01602080910402602001604051908101604052809392919081815260200183838082843760009201919091525050604080516020601f8c018190048102820181019092528a815292508a915089908190840183828082843760009201919091525060019250611117915050565b50505050505050565b6001600160a01b031660009081526001602052604090205490565b6040805160006020820181905260608083526011908301527f617574686f72697a654f70657261746f72000000000000000000000000000000608083015260a082840181905282015290516001600160a01b038316913391600080516020611e468339815191529181900360e00190a3604051600160e51b62461bcd028152600401808060200182810382526028815260200180611e1e6028913960400191505060405180910390fd5b60048054604080516020601f60026000196101006001881615020190951694909404938401819004810282018101909252828152606093909290918301828280156107895780601f106107f457610100808354040283529160200191610789565b336001600160a01b0387161415610bd45760408051600160e51b62461bcd02815260206004820152601e60248201527f4572726f723a2063616c6c65722063616e6e6f7420626520686f6c6465720000604482015290519081900360640190fd5b610bde3387610e04565b610c1c57604051600160e51b62461bcd02815260040180806020018281038252602c815260200180611ed3602c913960400191505060405180910390fd5b610c9233878787878080601f01602080910402602001604051908101604052809392919081815260200183838082843760009201919091525050604080516020601f8b0181900481028201810190925289815292508991508890819084018382808284376000920191909152506111e892505050565b505050505050565b836001600160a01b0316336001600160a01b0316600080516020611e4683398151915285858560405180806020018581526020018060200183810383526004815260200180600160e21b631cd95b99028152506020018381038252858582818152602001925080828437600083820152604051601f909101601f191690920182900397509095505050505050a360408051600160e51b62461bcd02815260206004820152601d6024820152600080516020611e66833981519152604482015290519081900360640190fd5b60408051602081018390526060808252600890820152600160c11b673a3930b739b332b902608082015260a0818301819052600090820181905291516001600160a01b038516913391600080516020611e468339815191529181900360e00190a360408051600160e51b62461bcd02815260206004820152601d6024820152600080516020611e66833981519152604482015290519081900360640190fd5b6000816001600160a01b0316836001600160a01b03161480610e6f57506001600160a01b03831660009081526006602052604090205460ff168015610e6f57506001600160a01b0380831660009081526008602090815260408083209387168352929052205460ff16155b80610e9f57506001600160a01b0380831660009081526007602090815260408083209387168352929052205460ff165b9392505050565b6001600160a01b03918216600090815260096020908152604080832093909416825291909152205490565b604080516000602082018190526060808352600e908301527f7265766f6b654f70657261746f72000000000000000000000000000000000000608083015260a082840181905282015290516001600160a01b038316913391600080516020611e468339815191529181900360e00190a3604051600160e51b62461bcd028152600401808060200182810382526028815260200180611e1e6028913960400191505060405180910390fd5b610f853387610e04565b610fc357604051600160e51b62461bcd02815260040180806020018281038252602c815260200180611ed3602c913960400191505060405180910390fd5b610c9233878787878080601f01602080910402602001604051908101604052809392919081815260200183838082843760009201919091525050604080516020601f8b01819004810282018101909252898152925089915088908190840183828082843760009201919091525061142392505050565b60006001600160a01b0316336001600160a01b0316600080516020611e4683398151915285858560405180806020018581526020018060200183810383526004815260200180600160e11b63313ab937028152506020018381038252858582818152602001925080828437600083820152604051601f909101601f191690920182900397509095505050505050a360408051600160e51b62461bcd02815260206004820152601960248201527f596f752063616e6e6f74206275726e2070656e616c7469657300000000000000604482015290519081900360640190fd5b6001600160a01b03861661115f57604051600160e51b62461bcd028152600401808060200182810382526022815260200180611dda6022913960400191505060405180910390fd5b6001600160a01b0385166111bd5760408051600160e51b62461bcd02815260206004820181905260248201527f4552433737373a2073656e6420746f20746865207a65726f2061646472657373604482015290519081900360640190fd5b6111cb878787878787611646565b6111d9878787878787611880565b610a4487878787878787611a80565b6001600160a01b0384166112465760408051600160e51b62461bcd02815260206004820181905260248201527f4552433737373a206d696e7420746f20746865207a65726f2061646472657373604482015290519081900360640190fd5b600254611259908463ffffffff611d1616565b6002556001600160a01b038416600090815260016020526040902054611285908463ffffffff611d1616565b60016000866001600160a01b03166001600160a01b03168152602001908152602001600020819055506112bf856000868686866001611a80565b836001600160a01b0316856001600160a01b03167f2fe5be0146f74c5bce36c0b80911af6c7d86ff27e89d5cfa61fc681327954e5d858585604051808481526020018060200180602001838103835285818151815260200191508051906020019080838360005b8381101561133e578181015183820152602001611326565b50505050905090810190601f16801561136b5780820380516001836020036101000a031916815260200191505b50838103825284518152845160209182019186019080838360005b8381101561139e578181015183820152602001611386565b50505050905090810190601f1680156113cb5780820380516001836020036101000a031916815260200191505b509550505050505060405180910390a36040805184815290516001600160a01b038616916000917fddf252ad1be2c89b69c2b068fc378daa952ba7f163c4a11628f55a4df523b3ef9181900360200190a35050505050565b6001600160a01b03841661146b57604051600160e51b62461bcd028152600401808060200182810382526022815260200180611dfc6022913960400191505060405180910390fd5b61147a85856000868686611646565b60025461148d908463ffffffff611d7316565b6002556001600160a01b0384166000908152600160205260409020546114b9908463ffffffff611d7316565b60016000866001600160a01b03166001600160a01b0316815260200190815260200160002081905550836001600160a01b0316856001600160a01b03167fa78a9be3a7b862d26933ad85fb11d80ef66b8f972d7cbba06621d583943a4098858585604051808481526020018060200180602001838103835285818151815260200191508051906020019080838360005b83811015611561578181015183820152602001611549565b50505050905090810190601f16801561158e5780820380516001836020036101000a031916815260200191505b50838103825284518152845160209182019186019080838360005b838110156115c15781810151838201526020016115a9565b50505050905090810190601f1680156115ee5780820380516001836020036101000a031916815260200191505b509550505050505060405180910390a36040805184815290516000916001600160a01b038716917fddf252ad1be2c89b69c2b068fc378daa952ba7f163c4a11628f55a4df523b3ef9181900360200190a35050505050565b6000805460408051600160e11b63555ddc650281526001600160a01b0389811660048301527f29ddb589b1fb5fc7cf394961c1adf5f8c6454761adf795e67fe149f658abe89560248301529151919092169163aabbb8ca916044808301926020929190829003018186803b1580156116bd57600080fd5b505afa1580156116d1573d6000803e3d6000fd5b505050506040513d60208110156116e757600080fd5b505190506001600160a01b03811615610a4457806001600160a01b03166375ab97828888888888886040518763ffffffff1660e01b815260040180876001600160a01b03166001600160a01b03168152602001866001600160a01b03166001600160a01b03168152602001856001600160a01b03166001600160a01b031681526020018481526020018060200180602001838103835285818151815260200191508051906020019080838360005b838110156117ad578181015183820152602001611795565b50505050905090810190601f1680156117da5780820380516001836020036101000a031916815260200191505b50838103825284518152845160209182019186019080838360005b8381101561180d5781810151838201526020016117f5565b50505050905090810190601f16801561183a5780820380516001836020036101000a031916815260200191505b5098505050505050505050600060405180830381600087803b15801561185f57600080fd5b505af1158015611873573d6000803e3d6000fd5b5050505050505050505050565b6001600160a01b0385166000908152600160205260409020546118a9908463ffffffff611d7316565b6001600160a01b0380871660009081526001602052604080822093909355908616815220546118de908463ffffffff611d1616565b60016000866001600160a01b03166001600160a01b0316815260200190815260200160002081905550836001600160a01b0316856001600160a01b0316876001600160a01b03167f06b541ddaa720db2b10a4d0cdac39b8d360425fc073085fac19bc82614677987868686604051808481526020018060200180602001838103835285818151815260200191508051906020019080838360005b83811015611990578181015183820152602001611978565b50505050905090810190601f1680156119bd5780820380516001836020036101000a031916815260200191505b50838103825284518152845160209182019186019080838360005b838110156119f05781810151838201526020016119d8565b50505050905090810190601f168015611a1d5780820380516001836020036101000a031916815260200191505b509550505050505060405180910390a4836001600160a01b0316856001600160a01b03167fddf252ad1be2c89b69c2b068fc378daa952ba7f163c4a11628f55a4df523b3ef856040518082815260200191505060405180910390a3505050505050565b6000805460408051600160e11b63555ddc650281526001600160a01b0389811660048301527fb281fc8c12954d22544db45de3159a39272895b169a852b314f9cc762e44c53b60248301529151919092169163aabbb8ca916044808301926020929190829003018186803b158015611af757600080fd5b505afa158015611b0b573d6000803e3d6000fd5b505050506040513d6020811015611b2157600080fd5b505190506001600160a01b03811615611cb557806001600160a01b03166223de298989898989896040518763ffffffff1660e01b815260040180876001600160a01b03166001600160a01b03168152602001866001600160a01b03166001600160a01b03168152602001856001600160a01b03166001600160a01b031681526020018481526020018060200180602001838103835285818151815260200191508051906020019080838360005b83811015611be6578181015183820152602001611bce565b50505050905090810190601f168015611c135780820380516001836020036101000a031916815260200191505b50838103825284518152845160209182019186019080838360005b83811015611c46578181015183820152602001611c2e565b50505050905090810190601f168015611c735780820380516001836020036101000a031916815260200191505b5098505050505050505050600060405180830381600087803b158015611c9857600080fd5b505af1158015611cac573d6000803e3d6000fd5b50505050611d0c565b8115611d0c57611ccd866001600160a01b0316611dd3565b15611d0c57604051600160e51b62461bcd02815260040180806020018281038252604d815260200180611e86604d913960600191505060405180910390fd5b5050505050505050565b600082820183811015610e9f5760408051600160e51b62461bcd02815260206004820152601b60248201527f536166654d6174683a206164646974696f6e206f766572666c6f770000000000604482015290519081900360640190fd5b600082821115611dcd5760408051600160e51b62461bcd02815260206004820152601e60248201527f536166654d6174683a207375627472616374696f6e206f766572666c6f770000604482015290519081900360640190fd5b50900390565b3b15159056fe4552433737373a2073656e642066726f6d20746865207a65726f20616464726573734552433737373a206275726e2066726f6d20746865207a65726f2061646472657373596f752063616e6e6f74206368616e6765206f70657261746f7273206f662070656e616c74696573161b4785e99874352709f5b56d49e6b0db0cceb13274a2e7c11dff30e8f32334596f752063616e6e6f74207472616e736665722070656e616c746965730000004552433737373a20746f6b656e20726563697069656e7420636f6e747261637420686173206e6f20696d706c656d656e74657220666f7220455243373737546f6b656e73526563697069656e744552433737373a2063616c6c6572206973206e6f7420616e206f70657261746f7220666f7220686f6c646572a165627a7a72305820902316ef4aafd3a0847b1cad46ab81ed52c24004153e64d6934b7b550832da4a0029",
  "source": "pragma solidity ^0.5.0;\n\nimport \"node_modules/openzeppelin-solidity/contracts/token/ERC777/ERC777.sol\";\nimport \"./NonTransferableToken.sol\";\n\n\n/**\n * @title EEA Reputation Token\n */\ncontract ReputationToken is ERC777, NonTransferableToken {\n\n    /**\n     * @dev Constructor that sets default operators.\n     */\n    constructor(address[] memory defaultOperators) public ERC777(\"ReputationToken\", \"EEARP\", defaultOperators) {\n    }\n\n    /**\n     * @dev Similar to operator burn, see `IERC777.operatorBurn`.\n     *\n     * Emits `Minted` and `Transfer` events.\n     */\n    function operatorMint(address account, uint256 amount, bytes calldata data, bytes calldata operatorData) external {\n       require(msg.sender != account, \"Error: caller cannot be holder\");\n       require(isOperatorFor(msg.sender, account), \"ERC777: caller is not an operator for holder\");\n      _mint(msg.sender, account, amount, data, operatorData);\n    }\n\n}\n",
  "sourcePath": "/home/svm/src/EEA/Trusted-Token/contracts/ReputationToken.sol",
  "compiler": {
    "name": "solc",
    "version": "0.5.8+commit.23d335f2.Emscripten.clang"
  },
  "schemaVersion": "3.0.12",
  "updatedAt": "2019-09-10T14:20:38.473Z",
  "devdoc": {
    "methods": {
      "allowance(address,address)": {
        "details": "See `IERC20.allowance`.     * Note that operator and allowance concepts are orthogonal: operators may not have allowance, and accounts with allowance may not be operators themselves."
      },
      "approve(address,uint256)": {
        "details": "See `IERC20.approve`.     * Note that accounts cannot have allowance issued by their operators."
      },
      "authorizeOperator(address)": {
        "details": "See `IERC777.authorizeOperator`."
      },
      "balanceOf(address)": {
        "details": "Returns the amount of tokens owned by an account (`tokenHolder`)."
      },
      "burn(uint256,bytes)": {
        "details": "See `IERC777.burn`.     * Also emits a `Transfer` event for ERC20 compatibility."
      },
      "constructor": {
        "details": "Constructor that sets default operators."
      },
      "decimals()": {
        "details": "See `ERC20Detailed.decimals`.     * Always returns 18, as per the [ERC777 EIP](https://eips.ethereum.org/EIPS/eip-777#backward-compatibility)."
      },
      "defaultOperators()": {
        "details": "See `IERC777.defaultOperators`."
      },
      "granularity()": {
        "details": "See `IERC777.granularity`.     * This implementation always returns `1`."
      },
      "isOperatorFor(address,address)": {
        "details": "See `IERC777.isOperatorFor`."
      },
      "name()": {
        "details": "See `IERC777.name`."
      },
      "operatorBurn(address,uint256,bytes,bytes)": {
        "details": "See `IERC777.operatorBurn`.     * Emits `Sent` and `Transfer` events."
      },
      "operatorMint(address,uint256,bytes,bytes)": {
        "details": "Similar to operator burn, see `IERC777.operatorBurn`.     * Emits `Minted` and `Transfer` events."
      },
      "operatorSend(address,address,uint256,bytes,bytes)": {
        "details": "See `IERC777.operatorSend`.     * Emits `Sent` and `Transfer` events."
      },
      "revokeOperator(address)": {
        "details": "See `IERC777.revokeOperator`."
      },
      "send(address,uint256,bytes)": {
        "details": "See `IERC777.send`.     * Also emits a `Transfer` event for ERC20 compatibility."
      },
      "symbol()": {
        "details": "See `IERC777.symbol`."
      },
      "totalSupply()": {
        "details": "See `IERC777.totalSupply`."
      },
      "transfer(address,uint256)": {
        "details": "See `IERC20.transfer`.     * Unlike `send`, `recipient` is _not_ required to implement the `tokensReceived` interface if it is a contract.     * Also emits a `Sent` event."
      },
      "transferFrom(address,address,uint256)": {
        "details": "See `IERC20.transferFrom`.    * Note that operator and allowance concepts are orthogonal: operators cannot call `transferFrom` (unless they have allowance), and accounts with allowance cannot call `operatorSend` (unless they are operators).    * Emits `Sent`, `Transfer` and `Approval` events."
      }
    },
    "title": "EEA Reputation Token"
  },
  "userdoc": {
    "methods": {}
  }
}