{
  "contractName": "RewardToken",
  "abi": [
    {
      "constant": true,
      "inputs": [],
      "name": "defaultOperators",
      "outputs": [
        {
          "name": "",
          "type": "address[]"
        }
      ],
      "payable": false,
      "stateMutability": "view",
      "type": "function"
    },
    {
      "constant": true,
      "inputs": [],
      "name": "name",
      "outputs": [
        {
          "name": "",
          "type": "string"
        }
      ],
      "payable": false,
      "stateMutability": "view",
      "type": "function"
    },
    {
      "constant": false,
      "inputs": [
        {
          "name": "spender",
          "type": "address"
        },
        {
          "name": "value",
          "type": "uint256"
        }
      ],
      "name": "approve",
      "outputs": [
        {
          "name": "",
          "type": "bool"
        }
      ],
      "payable": false,
      "stateMutability": "nonpayable",
      "type": "function"
    },
    {
      "constant": true,
      "inputs": [],
      "name": "totalSupply",
      "outputs": [
        {
          "name": "",
          "type": "uint256"
        }
      ],
      "payable": false,
      "stateMutability": "view",
      "type": "function"
    },
    {
      "constant": true,
      "inputs": [],
      "name": "decimals",
      "outputs": [
        {
          "name": "",
          "type": "uint8"
        }
      ],
      "payable": false,
      "stateMutability": "pure",
      "type": "function"
    },
    {
      "constant": true,
      "inputs": [],
      "name": "granularity",
      "outputs": [
        {
          "name": "",
          "type": "uint256"
        }
      ],
      "payable": false,
      "stateMutability": "view",
      "type": "function"
    },
    {
      "constant": true,
      "inputs": [],
      "name": "didRegistry",
      "outputs": [
        {
          "name": "",
          "type": "address"
        }
      ],
      "payable": false,
      "stateMutability": "view",
      "type": "function"
    },
    {
      "constant": false,
      "inputs": [
        {
          "name": "sender",
          "type": "address"
        },
        {
          "name": "recipient",
          "type": "address"
        },
        {
          "name": "amount",
          "type": "uint256"
        },
        {
          "name": "data",
          "type": "bytes"
        },
        {
          "name": "operatorData",
          "type": "bytes"
        }
      ],
      "name": "operatorSend",
      "outputs": [],
      "payable": false,
      "stateMutability": "nonpayable",
      "type": "function"
    },
    {
      "constant": true,
      "inputs": [
        {
          "name": "tokenHolder",
          "type": "address"
        }
      ],
      "name": "balanceOf",
      "outputs": [
        {
          "name": "",
          "type": "uint256"
        }
      ],
      "payable": false,
      "stateMutability": "view",
      "type": "function"
    },
    {
      "constant": false,
      "inputs": [
        {
          "name": "operator",
          "type": "address"
        }
      ],
      "name": "authorizeOperator",
      "outputs": [],
      "payable": false,
      "stateMutability": "nonpayable",
      "type": "function"
    },
    {
      "constant": true,
      "inputs": [],
      "name": "symbol",
      "outputs": [
        {
          "name": "",
          "type": "string"
        }
      ],
      "payable": false,
      "stateMutability": "view",
      "type": "function"
    },
    {
      "constant": true,
      "inputs": [],
      "name": "claimsRegistry",
      "outputs": [
        {
          "name": "",
          "type": "address"
        }
      ],
      "payable": false,
      "stateMutability": "view",
      "type": "function"
    },
    {
      "constant": true,
      "inputs": [
        {
          "name": "operator",
          "type": "address"
        },
        {
          "name": "tokenHolder",
          "type": "address"
        }
      ],
      "name": "isOperatorFor",
      "outputs": [
        {
          "name": "",
          "type": "bool"
        }
      ],
      "payable": false,
      "stateMutability": "view",
      "type": "function"
    },
    {
      "constant": true,
      "inputs": [],
      "name": "eeaIssuer",
      "outputs": [
        {
          "name": "",
          "type": "address"
        }
      ],
      "payable": false,
      "stateMutability": "view",
      "type": "function"
    },
    {
      "constant": true,
      "inputs": [
        {
          "name": "holder",
          "type": "address"
        },
        {
          "name": "spender",
          "type": "address"
        }
      ],
      "name": "allowance",
      "outputs": [
        {
          "name": "",
          "type": "uint256"
        }
      ],
      "payable": false,
      "stateMutability": "view",
      "type": "function"
    },
    {
      "constant": false,
      "inputs": [
        {
          "name": "operator",
          "type": "address"
        }
      ],
      "name": "revokeOperator",
      "outputs": [],
      "payable": false,
      "stateMutability": "nonpayable",
      "type": "function"
    },
    {
      "constant": false,
      "inputs": [
        {
          "name": "account",
          "type": "address"
        },
        {
          "name": "amount",
          "type": "uint256"
        },
        {
          "name": "data",
          "type": "bytes"
        },
        {
          "name": "operatorData",
          "type": "bytes"
        }
      ],
      "name": "operatorBurn",
      "outputs": [],
      "payable": false,
      "stateMutability": "nonpayable",
      "type": "function"
    },
    {
      "constant": false,
      "inputs": [
        {
          "name": "amount",
          "type": "uint256"
        },
        {
          "name": "data",
          "type": "bytes"
        }
      ],
      "name": "burn",
      "outputs": [],
      "payable": false,
      "stateMutability": "nonpayable",
      "type": "function"
    },
    {
      "inputs": [
        {
          "name": "defaultOperators",
          "type": "address[]"
        },
        {
          "name": "_didRegistry",
          "type": "address"
        },
        {
          "name": "_claimsRegistry",
          "type": "address"
        },
        {
          "name": "_eeaIssuer",
          "type": "address"
        }
      ],
      "payable": false,
      "stateMutability": "nonpayable",
      "type": "constructor"
    },
    {
      "anonymous": false,
      "inputs": [
        {
          "indexed": true,
          "name": "from",
          "type": "address"
        },
        {
          "indexed": true,
          "name": "to",
          "type": "address"
        },
        {
          "indexed": false,
          "name": "value",
          "type": "uint256"
        }
      ],
      "name": "Transfer",
      "type": "event"
    },
    {
      "anonymous": false,
      "inputs": [
        {
          "indexed": true,
          "name": "owner",
          "type": "address"
        },
        {
          "indexed": true,
          "name": "spender",
          "type": "address"
        },
        {
          "indexed": false,
          "name": "value",
          "type": "uint256"
        }
      ],
      "name": "Approval",
      "type": "event"
    },
    {
      "anonymous": false,
      "inputs": [
        {
          "indexed": true,
          "name": "operator",
          "type": "address"
        },
        {
          "indexed": true,
          "name": "from",
          "type": "address"
        },
        {
          "indexed": true,
          "name": "to",
          "type": "address"
        },
        {
          "indexed": false,
          "name": "amount",
          "type": "uint256"
        },
        {
          "indexed": false,
          "name": "data",
          "type": "bytes"
        },
        {
          "indexed": false,
          "name": "operatorData",
          "type": "bytes"
        }
      ],
      "name": "Sent",
      "type": "event"
    },
    {
      "anonymous": false,
      "inputs": [
        {
          "indexed": true,
          "name": "operator",
          "type": "address"
        },
        {
          "indexed": true,
          "name": "to",
          "type": "address"
        },
        {
          "indexed": false,
          "name": "amount",
          "type": "uint256"
        },
        {
          "indexed": false,
          "name": "data",
          "type": "bytes"
        },
        {
          "indexed": false,
          "name": "operatorData",
          "type": "bytes"
        }
      ],
      "name": "Minted",
      "type": "event"
    },
    {
      "anonymous": false,
      "inputs": [
        {
          "indexed": true,
          "name": "operator",
          "type": "address"
        },
        {
          "indexed": true,
          "name": "from",
          "type": "address"
        },
        {
          "indexed": false,
          "name": "amount",
          "type": "uint256"
        },
        {
          "indexed": false,
          "name": "data",
          "type": "bytes"
        },
        {
          "indexed": false,
          "name": "operatorData",
          "type": "bytes"
        }
      ],
      "name": "Burned",
      "type": "event"
    },
    {
      "anonymous": false,
      "inputs": [
        {
          "indexed": true,
          "name": "operator",
          "type": "address"
        },
        {
          "indexed": true,
          "name": "tokenHolder",
          "type": "address"
        }
      ],
      "name": "AuthorizedOperator",
      "type": "event"
    },
    {
      "anonymous": false,
      "inputs": [
        {
          "indexed": true,
          "name": "operator",
          "type": "address"
        },
        {
          "indexed": true,
          "name": "tokenHolder",
          "type": "address"
        }
      ],
      "name": "RevokedOperator",
      "type": "event"
    },
    {
      "constant": false,
      "inputs": [
        {
          "name": "account",
          "type": "address"
        },
        {
          "name": "amount",
          "type": "uint256"
        },
        {
          "name": "data",
          "type": "bytes"
        },
        {
          "name": "operatorData",
          "type": "bytes"
        }
      ],
      "name": "operatorMint",
      "outputs": [],
      "payable": false,
      "stateMutability": "nonpayable",
      "type": "function"
    },
    {
      "constant": false,
      "inputs": [
        {
          "name": "recipient",
          "type": "address"
        },
        {
          "name": "amount",
          "type": "uint256"
        },
        {
          "name": "data",
          "type": "bytes"
        }
      ],
      "name": "send",
      "outputs": [],
      "payable": false,
      "stateMutability": "nonpayable",
      "type": "function"
    },
    {
      "constant": false,
      "inputs": [
        {
          "name": "recipient",
          "type": "address"
        },
        {
          "name": "amount",
          "type": "uint256"
        }
      ],
      "name": "transfer",
      "outputs": [
        {
          "name": "",
          "type": "bool"
        }
      ],
      "payable": false,
      "stateMutability": "nonpayable",
      "type": "function"
    },
    {
      "constant": false,
      "inputs": [
        {
          "name": "holder",
          "type": "address"
        },
        {
          "name": "recipient",
          "type": "address"
        },
        {
          "name": "amount",
          "type": "uint256"
        }
      ],
      "name": "transferFrom",
      "outputs": [
        {
          "name": "",
          "type": "bool"
        }
      ],
      "payable": false,
      "stateMutability": "nonpayable",
      "type": "function"
    }
  ],
  "bytecode": "0x6080604052600080546001600160a01b031916731820a4b7618bde71dce8cdc73aab6c95905fad241790553480156200003757600080fd5b506040516200252d3803806200252d833981018060405260808110156200005d57600080fd5b8101908080516401000000008111156200007657600080fd5b820160208101848111156200008a57600080fd5b8151856020820283011164010000000082111715620000a857600080fd5b505060208083015160408085015160609095015181518083018352600b81527f526577617264546f6b656e0000000000000000000000000000000000000000008186019081528351808501909452600584527f454541525400000000000000000000000000000000000000000000000000000095840195909552805195985092965093869386938693909290918a91620001459160039162000391565b5081516200015b90600490602085019062000391565b5080516200017190600590602084019062000416565b5060005b600554811015620001d157600160066000600584815481106200019457fe5b6000918252602080832091909101546001600160a01b031683528201929092526040019020805460ff191691151591909117905560010162000175565b5060008054604080517f455243373737546f6b656e0000000000000000000000000000000000000000008152815190819003600b0181207f29965a1d00000000000000000000000000000000000000000000000000000000825230600483018190526024830191909152604482015290516001600160a01b03909216926329965a1d9260648084019382900301818387803b1580156200027057600080fd5b505af115801562000285573d6000803e3d6000fd5b505060008054604080517f4552433230546f6b656e000000000000000000000000000000000000000000008152815190819003600a0181207f29965a1d00000000000000000000000000000000000000000000000000000000825230600483018190526024830191909152604482015290516001600160a01b0390921694506329965a1d9350606480820193929182900301818387803b1580156200032957600080fd5b505af11580156200033e573d6000803e3d6000fd5b5050600a80546001600160a01b03199081166001600160a01b039a8b1617909155600b80548216988a16989098179097555050600c8054909516939095169290921790925550620004c395505050505050565b828054600181600116156101000203166002900490600052602060002090601f016020900481019282601f10620003d457805160ff191683800117855562000404565b8280016001018555821562000404579182015b8281111562000404578251825591602001919060010190620003e7565b50620004129291506200047c565b5090565b8280548282559060005260206000209081019282156200046e579160200282015b828111156200046e57825182546001600160a01b0319166001600160a01b0390911617825560209092019160019091019062000437565b50620004129291506200049c565b6200049991905b8082111562000412576000815560010162000483565b90565b6200049991905b80821115620004125780546001600160a01b0319168155600101620004a3565b61205a80620004d36000396000f3fe608060405234801561001057600080fd5b50600436106101425760003560e01c806395d89b41116100b8578063d95b63711161007c578063d95b6371146105ea578063dbf1bfb814610618578063dd62ed3e14610620578063fad8b32a1461064e578063fc673c4f14610674578063fe9d93031461074757610142565b806395d89b4114610422578063999de9cc1461042a5780639bd9bbc6146104fd578063a9059cbb146105b6578063b1a8dbc4146105e257610142565b8063313ce5671161010a578063313ce567146102ac578063556f0dc7146102ca578063577f9fb1146102d257806362ad1b83146102f657806370a08231146103d6578063959b8c3f146103fc57610142565b806306e485381461014757806306fdde031461019f578063095ea7b31461021c57806318160ddd1461025c57806323b872dd14610276575b600080fd5b61014f6107bc565b60408051602080825283518183015283519192839290830191858101910280838360005b8381101561018b578181015183820152602001610173565b505050509050019250505060405180910390f35b6101a761081e565b6040805160208082528351818301528351919283929083019185019080838360005b838110156101e15781810151838201526020016101c9565b50505050905090810190601f16801561020e5780820380516001836020036101000a031916815260200191505b509250505060405180910390f35b6102486004803603604081101561023257600080fd5b506001600160a01b0381351690602001356108ab565b604080519115158252519081900360200190f35b6102646108c3565b60408051918252519081900360200190f35b6102486004803603606081101561028c57600080fd5b506001600160a01b038135811691602081013590911690604001356108c9565b6102b4610936565b6040805160ff9092168252519081900360200190f35b61026461093b565b6102da610940565b604080516001600160a01b039092168252519081900360200190f35b6103d4600480360360a081101561030c57600080fd5b6001600160a01b03823581169260208101359091169160408201359190810190608081016060820135600160201b81111561034657600080fd5b82018360208201111561035857600080fd5b803590602001918460018302840111600160201b8311171561037957600080fd5b919390929091602081019035600160201b81111561039657600080fd5b8201836020820111156103a857600080fd5b803590602001918460018302840111600160201b831117156103c957600080fd5b50909250905061094f565b005b610264600480360360208110156103ec57600080fd5b50356001600160a01b0316610a1a565b6103d46004803603602081101561041257600080fd5b50356001600160a01b0316610a39565b6101a7610b3d565b6103d46004803603608081101561044057600080fd5b6001600160a01b0382351691602081013591810190606081016040820135600160201b81111561046f57600080fd5b82018360208201111561048157600080fd5b803590602001918460018302840111600160201b831117156104a257600080fd5b919390929091602081019035600160201b8111156104bf57600080fd5b8201836020820111156104d157600080fd5b803590602001918460018302840111600160201b831117156104f257600080fd5b509092509050610b9e565b6103d46004803603606081101561051357600080fd5b6001600160a01b0382351691602081013591810190606081016040820135600160201b81111561054257600080fd5b82018360208201111561055457600080fd5b803590602001918460018302840111600160201b8311171561057557600080fd5b91908080601f016020809104026020016040519081016040528093929190818152602001838380828437600092019190915250929550610cc5945050505050565b610248600480360360408110156105cc57600080fd5b506001600160a01b038135169060200135610d2d565b6102da610d98565b6102486004803603604081101561060057600080fd5b506001600160a01b0381358116916020013516610da7565b6102da610e49565b6102646004803603604081101561063657600080fd5b506001600160a01b0381358116916020013516610e58565b6103d46004803603602081101561066457600080fd5b50356001600160a01b0316610e83565b6103d46004803603608081101561068a57600080fd5b6001600160a01b0382351691602081013591810190606081016040820135600160201b8111156106b957600080fd5b8201836020820111156106cb57600080fd5b803590602001918460018302840111600160201b831117156106ec57600080fd5b919390929091602081019035600160201b81111561070957600080fd5b82018360208201111561071b57600080fd5b803590602001918460018302840111600160201b8311171561073c57600080fd5b509092509050610f87565b6103d46004803603604081101561075d57600080fd5b81359190810190604081016020820135600160201b81111561077e57600080fd5b82018360208201111561079057600080fd5b803590602001918460018302840111600160201b831117156107b157600080fd5b509092509050611045565b6060600580548060200260200160405190810160405280929190818152602001828054801561081457602002820191906000526020600020905b81546001600160a01b031681526001909101906020018083116107f6575b5050505050905090565b60038054604080516020601f60026000196101006001881615020190951694909404938401819004810282018101909252828152606093909290918301828280156108145780601f1061087f57610100808354040283529160200191610814565b820191906000526020600020905b81548152906001019060200180831161088d57509395945050505050565b6000336108b9818585611095565b5060019392505050565b60025490565b60006108d48361113f565b6109235760408051600160e51b62461bcd0281526020600482015260156024820152600160591b7422b93937b91d102737ba1022a2a09036b2b6b132b902604482015290519081900360640190fd5b61092e8484846108c9565b509392505050565b601290565b600190565b600a546001600160a01b031681565b6109593388610da7565b61099757604051600160e51b62461bcd02815260040180806020018281038252602c815260200180611fe0602c913960400191505060405180910390fd5b610a113388888888888080601f01602080910402602001604051908101604052809392919081815260200183838082843760009201919091525050604080516020601f8c018190048102820181019092528a815292508a915089908190840183828082843760009201919091525060019250611247915050565b50505050505050565b6001600160a01b0381166000908152600160205260409020545b919050565b336001600160a01b0382161415610a8457604051600160e51b62461bcd028152600401808060200182810382526024815260200180611f4e6024913960400191505060405180910390fd5b6001600160a01b03811660009081526006602052604090205460ff1615610ad5573360009081526008602090815260408083206001600160a01b03851684529091529020805460ff19169055610b04565b3360009081526007602090815260408083206001600160a01b03851684529091529020805460ff191660011790555b60405133906001600160a01b038316907ff4caeb2d6ca8932a215a353d0703c326ec2d81fc68170f320eb2ab49e9df61f990600090a350565b60048054604080516020601f60026000196101006001881615020190951694909404938401819004810282018101909252828152606093909290918301828280156108145780601f1061087f57610100808354040283529160200191610814565b336001600160a01b0387161415610bff5760408051600160e51b62461bcd02815260206004820152601e60248201527f4572726f723a2063616c6c65722063616e6e6f7420626520686f6c6465720000604482015290519081900360640190fd5b610c093387610da7565b610c4757604051600160e51b62461bcd02815260040180806020018281038252602c815260200180611fe0602c913960400191505060405180910390fd5b610cbd33878787878080601f01602080910402602001604051908101604052809392919081815260200183838082843760009201919091525050604080516020601f8b01819004810282018101909252898152925089915088908190840183828082843760009201919091525061131892505050565b505050505050565b610cce8361113f565b610d1d5760408051600160e51b62461bcd0281526020600482015260156024820152600160591b7422b93937b91d102737ba1022a2a09036b2b6b132b902604482015290519081900360640190fd5b610d28838383610cc5565b505050565b6000610d388361113f565b610d875760408051600160e51b62461bcd0281526020600482015260156024820152600160591b7422b93937b91d102737ba1022a2a09036b2b6b132b902604482015290519081900360640190fd5b610d918383610d2d565b5092915050565b600b546001600160a01b031681565b6000816001600160a01b0316836001600160a01b03161480610e1257506001600160a01b03831660009081526006602052604090205460ff168015610e1257506001600160a01b0380831660009081526008602090815260408083209387168352929052205460ff16155b80610e4257506001600160a01b0380831660009081526007602090815260408083209387168352929052205460ff165b9392505050565b600c546001600160a01b031681565b6001600160a01b03918216600090815260096020908152604080832093909416825291909152205490565b6001600160a01b038116331415610ece57604051600160e51b62461bcd028152600401808060200182810382526021815260200180611f726021913960400191505060405180910390fd5b6001600160a01b03811660009081526006602052604090205460ff1615610f22573360009081526008602090815260408083206001600160a01b03851684529091529020805460ff19166001179055610f4e565b3360009081526007602090815260408083206001600160a01b03851684529091529020805460ff191690555b60405133906001600160a01b038316907f50546e66e5f44d728365dc3908c63bc5cfeeab470722c1677e3073a6ac294aa190600090a350565b610f913387610da7565b610fcf57604051600160e51b62461bcd02815260040180806020018281038252602c815260200180611fe0602c913960400191505060405180910390fd5b610cbd33878787878080601f01602080910402602001604051908101604052809392919081815260200183838082843760009201919091525050604080516020601f8b01819004810282018101909252898152925089915088908190840183828082843760009201919091525061155392505050565b610d2833338585858080601f016020809104026020016040519081016040528093929190818152602001838380828437600092018290525060408051602081019091529081529250611553915050565b6001600160a01b0382166110dd57604051600160e51b62461bcd02815260040180806020018281038252602381526020018061200c6023913960400191505060405180910390fd5b6001600160a01b03808416600081815260096020908152604080832094871680845294825291829020859055815185815291517f8c5be1e5ebec7d5bd14f71427d1e84f3dd0314c0f7b2291e5b200ac8c7c3b9259281900390910190a3505050565b600b54600c5460408051600160b41b6906d656d6265727368697026020808301919091528251808303600a018152602a8301808552815191830191909120600160e01b63e1661eff029091526001600160a01b03948516602e840152868516604e840152606e83015291516000948594169263e1661eff92608e8082019391829003018186803b1580156111d257600080fd5b505afa1580156111e6573d6000803e3d6000fd5b505050506040513d60208110156111fc57600080fd5b505160408051600160e01b6374727565026020828101919091528251808303600401815260249092019092528051910120909150811415611241576001915050610a34565b50919050565b6001600160a01b03861661128f57604051600160e51b62461bcd028152600401808060200182810382526022815260200180611f0a6022913960400191505060405180910390fd5b6001600160a01b0385166112ed5760408051600160e51b62461bcd02815260206004820181905260248201527f4552433737373a2073656e6420746f20746865207a65726f2061646472657373604482015290519081900360640190fd5b6112fb878787878787611776565b6113098787878787876119b0565b610a1187878787878787611bb0565b6001600160a01b0384166113765760408051600160e51b62461bcd02815260206004820181905260248201527f4552433737373a206d696e7420746f20746865207a65726f2061646472657373604482015290519081900360640190fd5b600254611389908463ffffffff611e4616565b6002556001600160a01b0384166000908152600160205260409020546113b5908463ffffffff611e4616565b60016000866001600160a01b03166001600160a01b03168152602001908152602001600020819055506113ef856000868686866001611bb0565b836001600160a01b0316856001600160a01b03167f2fe5be0146f74c5bce36c0b80911af6c7d86ff27e89d5cfa61fc681327954e5d858585604051808481526020018060200180602001838103835285818151815260200191508051906020019080838360005b8381101561146e578181015183820152602001611456565b50505050905090810190601f16801561149b5780820380516001836020036101000a031916815260200191505b50838103825284518152845160209182019186019080838360005b838110156114ce5781810151838201526020016114b6565b50505050905090810190601f1680156114fb5780820380516001836020036101000a031916815260200191505b509550505050505060405180910390a36040805184815290516001600160a01b038616916000917fddf252ad1be2c89b69c2b068fc378daa952ba7f163c4a11628f55a4df523b3ef9181900360200190a35050505050565b6001600160a01b03841661159b57604051600160e51b62461bcd028152600401808060200182810382526022815260200180611f2c6022913960400191505060405180910390fd5b6115aa85856000868686611776565b6002546115bd908463ffffffff611ea316565b6002556001600160a01b0384166000908152600160205260409020546115e9908463ffffffff611ea316565b60016000866001600160a01b03166001600160a01b0316815260200190815260200160002081905550836001600160a01b0316856001600160a01b03167fa78a9be3a7b862d26933ad85fb11d80ef66b8f972d7cbba06621d583943a4098858585604051808481526020018060200180602001838103835285818151815260200191508051906020019080838360005b83811015611691578181015183820152602001611679565b50505050905090810190601f1680156116be5780820380516001836020036101000a031916815260200191505b50838103825284518152845160209182019186019080838360005b838110156116f15781810151838201526020016116d9565b50505050905090810190601f16801561171e5780820380516001836020036101000a031916815260200191505b509550505050505060405180910390a36040805184815290516000916001600160a01b038716917fddf252ad1be2c89b69c2b068fc378daa952ba7f163c4a11628f55a4df523b3ef9181900360200190a35050505050565b6000805460408051600160e11b63555ddc650281526001600160a01b0389811660048301527f29ddb589b1fb5fc7cf394961c1adf5f8c6454761adf795e67fe149f658abe89560248301529151919092169163aabbb8ca916044808301926020929190829003018186803b1580156117ed57600080fd5b505afa158015611801573d6000803e3d6000fd5b505050506040513d602081101561181757600080fd5b505190506001600160a01b03811615610a1157806001600160a01b03166375ab97828888888888886040518763ffffffff1660e01b815260040180876001600160a01b03166001600160a01b03168152602001866001600160a01b03166001600160a01b03168152602001856001600160a01b03166001600160a01b031681526020018481526020018060200180602001838103835285818151815260200191508051906020019080838360005b838110156118dd5781810151838201526020016118c5565b50505050905090810190601f16801561190a5780820380516001836020036101000a031916815260200191505b50838103825284518152845160209182019186019080838360005b8381101561193d578181015183820152602001611925565b50505050905090810190601f16801561196a5780820380516001836020036101000a031916815260200191505b5098505050505050505050600060405180830381600087803b15801561198f57600080fd5b505af11580156119a3573d6000803e3d6000fd5b5050505050505050505050565b6001600160a01b0385166000908152600160205260409020546119d9908463ffffffff611ea316565b6001600160a01b038087166000908152600160205260408082209390935590861681522054611a0e908463ffffffff611e4616565b60016000866001600160a01b03166001600160a01b0316815260200190815260200160002081905550836001600160a01b0316856001600160a01b0316876001600160a01b03167f06b541ddaa720db2b10a4d0cdac39b8d360425fc073085fac19bc82614677987868686604051808481526020018060200180602001838103835285818151815260200191508051906020019080838360005b83811015611ac0578181015183820152602001611aa8565b50505050905090810190601f168015611aed5780820380516001836020036101000a031916815260200191505b50838103825284518152845160209182019186019080838360005b83811015611b20578181015183820152602001611b08565b50505050905090810190601f168015611b4d5780820380516001836020036101000a031916815260200191505b509550505050505060405180910390a4836001600160a01b0316856001600160a01b03167fddf252ad1be2c89b69c2b068fc378daa952ba7f163c4a11628f55a4df523b3ef856040518082815260200191505060405180910390a3505050505050565b6000805460408051600160e11b63555ddc650281526001600160a01b0389811660048301527fb281fc8c12954d22544db45de3159a39272895b169a852b314f9cc762e44c53b60248301529151919092169163aabbb8ca916044808301926020929190829003018186803b158015611c2757600080fd5b505afa158015611c3b573d6000803e3d6000fd5b505050506040513d6020811015611c5157600080fd5b505190506001600160a01b03811615611de557806001600160a01b03166223de298989898989896040518763ffffffff1660e01b815260040180876001600160a01b03166001600160a01b03168152602001866001600160a01b03166001600160a01b03168152602001856001600160a01b03166001600160a01b031681526020018481526020018060200180602001838103835285818151815260200191508051906020019080838360005b83811015611d16578181015183820152602001611cfe565b50505050905090810190601f168015611d435780820380516001836020036101000a031916815260200191505b50838103825284518152845160209182019186019080838360005b83811015611d76578181015183820152602001611d5e565b50505050905090810190601f168015611da35780820380516001836020036101000a031916815260200191505b5098505050505050505050600060405180830381600087803b158015611dc857600080fd5b505af1158015611ddc573d6000803e3d6000fd5b50505050611e3c565b8115611e3c57611dfd866001600160a01b0316611f03565b15611e3c57604051600160e51b62461bcd02815260040180806020018281038252604d815260200180611f93604d913960600191505060405180910390fd5b5050505050505050565b600082820183811015610e425760408051600160e51b62461bcd02815260206004820152601b60248201527f536166654d6174683a206164646974696f6e206f766572666c6f770000000000604482015290519081900360640190fd5b600082821115611efd5760408051600160e51b62461bcd02815260206004820152601e60248201527f536166654d6174683a207375627472616374696f6e206f766572666c6f770000604482015290519081900360640190fd5b50900390565b3b15159056fe4552433737373a2073656e642066726f6d20746865207a65726f20616464726573734552433737373a206275726e2066726f6d20746865207a65726f20616464726573734552433737373a20617574686f72697a696e672073656c66206173206f70657261746f724552433737373a207265766f6b696e672073656c66206173206f70657261746f724552433737373a20746f6b656e20726563697069656e7420636f6e747261637420686173206e6f20696d706c656d656e74657220666f7220455243373737546f6b656e73526563697069656e744552433737373a2063616c6c6572206973206e6f7420616e206f70657261746f7220666f7220686f6c6465724552433737373a20617070726f766520746f20746865207a65726f2061646472657373a165627a7a72305820b1a155cb0a25fd38fb3d55ff07056b69d7932cd0298877ac8c19eeab9535de180029",
  "source": "pragma solidity ^0.5.0;\n\nimport \"./ModifiedERC777.sol\";\nimport \"./EEATransferableToken.sol\";\n\n/**\n * @title EEA Reward Token\n */\ncontract RewardToken is ModifiedERC777, EEATransferableToken {\n\n    /**\n     * @dev Constructor that sets default operators.\n     */\n    constructor(address[] memory defaultOperators, address _didRegistry, address _claimsRegistry, address _eeaIssuer)\n    public ModifiedERC777(\"RewardToken\", \"EEART\", defaultOperators) EEATransferableToken( _didRegistry, _claimsRegistry, _eeaIssuer){\n    }\n\n    /**\n     * @dev Similar to operator burn, see `IERC777.operatorBurn`.\n     *\n     * Emits `Minted` and `Transfer` events.\n     */\n    function operatorMint(address account, uint256 amount, bytes calldata data, bytes calldata operatorData) external {\n       require(msg.sender != account, \"Error: caller cannot be holder\");\n       require(isOperatorFor(msg.sender, account), \"ERC777: caller is not an operator for holder\");\n       _mint(msg.sender, account, amount, data, operatorData);\n    }\n\n    /// RESTRICTED METHODS BETWEEN EEA MEMBERS ONLY\n\n\n\n    function send(address recipient, uint256 amount, bytes memory data) public {\n        require (_memberCheck(recipient), \"Error: Not EEA member\");\n        send(recipient, amount, data);\n    }\n\n\n    function transfer(address recipient, uint256 amount) public returns (bool) {\n        require (_memberCheck(recipient), \"Error: Not EEA member\");\n        transfer(recipient, amount);\n    }\n\n\n\n    function transferFrom(address holder, address recipient, uint256 amount) public returns (bool) {\n        require (_memberCheck(recipient), \"Error: Not EEA member\");\n        transferFrom(holder, recipient, amount);\n    }\n\n}",
  "sourcePath": "/home/svm/src/EEA/Trusted-Token/contracts/RewardToken.sol",
  "compiler": {
    "name": "solc",
    "version": "0.5.8+commit.23d335f2.Emscripten.clang"
  },
  "schemaVersion": "3.0.12",
  "updatedAt": "2019-09-10T14:20:38.478Z",
  "devdoc": {
    "methods": {
      "allowance(address,address)": {
        "details": "See `IERC20.allowance`.     * Note that operator and allowance concepts are orthogonal: operators may not have allowance, and accounts with allowance may not be operators themselves."
      },
      "approve(address,uint256)": {
        "details": "See `IERC20.approve`.     * Note that accounts cannot have allowance issued by their operators."
      },
      "authorizeOperator(address)": {
        "details": "See `IERC777.authorizeOperator`."
      },
      "balanceOf(address)": {
        "details": "Returns the amount of tokens owned by an account (`tokenHolder`)."
      },
      "burn(uint256,bytes)": {
        "details": "See `IERC777.burn`.     * Also emits a `Transfer` event for ERC20 compatibility."
      },
      "constructor": {
        "details": "Constructor that sets default operators."
      },
      "decimals()": {
        "details": "See `ERC20Detailed.decimals`.     * Always returns 18, as per the [ERC777 EIP](https://eips.ethereum.org/EIPS/eip-777#backward-compatibility)."
      },
      "defaultOperators()": {
        "details": "See `IERC777.defaultOperators`."
      },
      "granularity()": {
        "details": "See `IERC777.granularity`.     * This implementation always returns `1`."
      },
      "isOperatorFor(address,address)": {
        "details": "See `IERC777.isOperatorFor`."
      },
      "name()": {
        "details": "See `IERC777.name`."
      },
      "operatorBurn(address,uint256,bytes,bytes)": {
        "details": "See `IERC777.operatorBurn`.     * Emits `Sent` and `Transfer` events."
      },
      "operatorMint(address,uint256,bytes,bytes)": {
        "details": "Similar to operator burn, see `IERC777.operatorBurn`.     * Emits `Minted` and `Transfer` events."
      },
      "operatorSend(address,address,uint256,bytes,bytes)": {
        "details": "See `IERC777.operatorSend`.     * Emits `Sent` and `Transfer` events."
      },
      "revokeOperator(address)": {
        "details": "See `IERC777.revokeOperator`."
      },
      "symbol()": {
        "details": "See `IERC777.symbol`."
      },
      "totalSupply()": {
        "details": "See `IERC777.totalSupply`."
      }
    },
    "title": "EEA Reward Token"
  },
  "userdoc": {
    "methods": {
      "send(address,uint256,bytes)": {
        "notice": "RESTRICTED METHODS BETWEEN EEA MEMBERS ONLY"
      }
    }
  }
}